:020000040000FA
:10000000383E00202523000059800000092300000D
:10001000092300000923000009230000000000005C
:10002000000000000000000000000000FD230000B0
:10003000092300000000000009230000092300003C
:1000400049250000492500004925000049250000F8
:1000500049250000492500004925000049250000E8
:1000600049250000492500004925000049250000D8
:1000700049250000492500004925000049250000C8
:1000800049250000492500004925000049250000B8
:1000900049250000492500004925000049250000A8
:1000A0004925000049250000492500004925000098
:1000B0004925000049250000492500004925000088
:1000C0004925000049250000492500004925000078
:1000D0004925000049250000492500004925000068
:1000E0004925000049250000492500004925000058
:1000F0004925000049250000492500004925000048
:1001000000000000000000000000000000000000EF
:1001100000000000000000000000000000000000DF
:1001200000000000000000000000000000000000CF
:1001300000000000000000000000000000000000BF
:1001400000000000000000000000000000000000AF
:10015000000000000000000000000000000000009F
:10016000000000000000000000000000000000008F
:10017000000000000000000000000000000000007F
:10018000000000000000000000000000000000006F
:10019000000000000000000000000000000000005F
:1001A000000000000000000000000000000000004F
:1001B000000000000000000000000000000000003F
:1001C000000000000000000000000000000000002F
:1001D000000000000000000000000000000000001F
:1001E000000000000000000000000000000000000F
:1001F00000000000000000000000000000000000FF
:10020000DEE61E284CBBCE8F02340000EC0000005E
:1002100062BA0000010000000000000000000000C1
:10022000FFFF02910000000000000000000000003D
:10023000000000000500000000000000DEE61E28AF
:10024000EAAC45B8023400002000000003100000B2
:100250000100000001000000AD860000DEE61E285F
:10026000EAAC45B802340000300000000210000083
:100270000000000001000000DF860000F1860000A1
:1002800007870000DD850000C8000000DEE61E28AC
:10029000EAAC45B802340000200000000110000064
:1002A000020000000100000073860000DEE61E2848
:1002B000EAAC45B802340000200000000111000043
:1002C00003000000010000003F870000DEE61E285A
:1002D000EAAC45B802340000200000000012000023
:1002E0000000000001000000C54200002DE9F007F9
:1002F00091E8F807B2E802105B1854EB0C04B2E87E
:1003000002104D4156EB0C06B2E802104F4158EB7B
:100310000C08B2E8021059EB01095AEB0C0A80E80C
:10032000F80780410130BDE8F00770472DE9F0077C
:1003300091E8F807B2E802105B1A74EB0C04B2E81B
:1003400002108D4176EB0C06B2E802108F4178EB7B
:100350000C08B2E8021079EB01097AEB0C0A80E88C
:10036000F80780414042BDE8F00770472DE9F007EB
:10037000524290E87800B1E880071740DB1918EA8C
:10038000020854EB080419EA020955EB09051AEAB8
:10039000020A56EB0A0678C090E87800B1E88007B8
:1003A00017407B4118EA020854EB080419EA0209D5
:1003B00055EB09051AEA020A56EB0A0678C0804195
:1003C0000130BDE8F00770472DE9F007524290E890
:1003D0007800B1E880071740DB1B18EA020874EBCD
:1003E000080419EA020975EB09051AEA020A76EB14
:1003F0000A0678C090E87800B1E880071740BB4152
:1004000018EA020874EB080419EA020975EB0905F9
:100410001AEA020A76EB0A0678C080414042BDE83B
:10042000F00770472DE9F00152424FF0040890E8C0
:10043000300091E8C000A31B1340E41AF618EB1B30
:100440001340ED1AFF1830C0C0C1B8F10108EED159
:10045000BDE8F001704700BF00B592E8DC072DE968
:10046000DC07B1E8805702B4A7FB02510A95A8FB4C
:10047000020BE7FB6310E9FB62B00B91A8FB035191
:10048000EAFB6201E7FB64B5E7FB6605E8FB66157E
:10049000CDF830B0A9FB03B6EAFB6316ECFB63565C
:1004A000E8FB640BE9FB641BEAFB645BECFB646B3D
:1004B0000D90ACFB0230059CEEFB6250E9FB6460E2
:1004C000EAFB64B0E7FB6431E8FB6451069CE8FB9F
:1004D0006461E9FB64B1EAFB64010E93A7FB04329B
:1004E000079CE7FB6462E8FB64B2E9FB6402EAFB99
:1004F0006412049CE9FB6453EAFB6463089CE7FB19
:1005000064B3E8FB6403E9FB6413EAFB64230F951F
:100510005DF8049B99E80006DDF80080A9FB08540B
:10052000EAFB68B4DDF81080ECFB6804EEFB6814AD
:10053000E9FB6824EAFB6834DDF80480EEFB6865BB
:10054000E9FB68B5EAFB6805DDF81480ECFB68158B
:10055000EEFB6825E9FB6835EAFB68450F96DDF898
:100560000880AEFB0876E9FB6806EAFB6816DDF852
:100570001880ECFB6826EEFB6836E9FB6846EAFB70
:100580006856DDF80C80ECFB68B7EEFB6807E9FB0A
:100590006817EAFB6827DDF81C80ECFB6837EEFB88
:1005A0006847E9FB6857EAFB686708B000BD00BF11
:1005B0002DE9F14F87B0FFF74FFFDDF81C8008F100
:1005C000200888E8FF00FFBC87E87F08BDE8F08FBF
:1005D00000B591E89857A3FB03520195A3FB0401D2
:1005E000E3FB6420E3FB67100292A3FB0752E3FBEB
:1005F0006802E4FB6415E3FB6805E3FB69250391EE
:10060000A4FB07B6E3FB6926E3FB6A56E4FB670B32
:10061000E4FB682BE3FB6A5BE3FB6C6B0490A4FBDD
:100620000810E4FB6950E3FB6C60E3FB6EB0E7FB92
:100630006721E4FB6951E4FB6A61E3FB6EB1E4FB13
:100640006E010592A7FB0832E4FB6A62E4FB6CB220
:10065000E4FB6E02E7FB6E12E7FB6853E7FB69639E
:10066000E4FB6CB3E7FB6C03E7FB6E13E8FB6E2364
:100670000695A7FB0954E7FB6AB4E7FB6C04E8FBAB
:100680006C14E8FB6E24E9FB6E34E8FB6865E7FB5D
:100690006AB5E8FB6A05E8FB6C15E9FB6C25E9FB2C
:1006A0006E35EAFB6E450796A8FB0976E8FB6A06FD
:1006B000E9FB6A16E9FB6C26EAFB6C36EAFB6E4640
:1006C000ECFB6E56E8FB69B7E9FB6907E9FB6A17C3
:1006D000EAFB6A27EAFB6C37ECFB6C47ECFB6E57D6
:1006E000EEFB6E6700BD00BF2DE9F14F87B0FFF74D
:1006F0006FFFDDF81C8008F1200888E8FF00FFBCD0
:1007000087E87F08BDE8F08F30B44FF0000310F8A1
:10071000014B11F8015B013A84EA050443EA040342
:10072000F5D1A3F101034FEAD37030BC704700BF8D
:100730004FF0000310F8012B013943EA0203F9D10D
:10074000A3F101034FEAD370704700BF30B411F832
:10075000014B12F8015B6C4000F8014B013BF6D1F4
:1007600030BC70472DE9F00791E8F807B2E80210B5
:100770005B1854EB0C04B2E802104D4156EB0C062A
:10078000B2E802104F4158EB0C08B2E8021059EBE6
:1007900001095AEB0C0A8941B3F1FF3374F1FF34BC
:1007A00075F1FF3576F1000677F1000778F1000862
:1007B00079F101097AF1FF3A51F100015B184C41DE
:1007C0004D4156F1000657F1000758F1000859EB6A
:1007D000D1795AEB010A80E8F807BDE8F0077047C5
:1007E0002DE9F00791E8F807B2E802105B1A74EB04
:1007F0000C04B2E802108D4176EB0C06B2E8021050
:100800008F4178EB0C08B2E8021079EB01097AEB22
:100810000C0A89415B184C414D4156F1000657F1D5
:10082000000758F1000859EBD1795AEB010A80E82A
:10083000F807BDE8F007704718EB040859EB050905
:100840005AEB060A5BEB070B5FF0000C4CF1000C57
:1008500018EB050859EB06095AEB070A5BEB070B87
:1008600050EB0C005FF0000C51EB0C0152EB0C0252
:1008700063414CF1000CB8EB070879F100097AF1FB
:10088000000A7BEB040BA841B141A241B3416CF1DA
:10089000000CBBEB050BB041B941AA41BB416CF167
:1008A000000C4CF001068CF0020718EB060859EB1F
:1008B0006C095AEB6C0A7BEB6C0B70EB6C0471EB04
:1008C0006C0572EB670653EB6C076CEB6C0C18EB6A
:1008D0000C0059EB0C015AEB0C025BF1000354F1D4
:1008E000000455F1000556EBDC7657EB0C0770471A
:1008F0002DE9F14F87B0FFF7AFFDDDF81080DDF88F
:100900001490DDF818A0FFF797FFBDE8000FFFF780
:1009100093FF03B05DF8048B88E8FF00BDE8F08F1B
:100920002DE9F14F87B0FFF753FEDDF81080DDF8B9
:100930001490DDF818A0FFF77FFFBDE8000FFFF768
:100940007BFF03B05DF8048B88E8FF00BDE8F08F03
:100950002DE9F04F90E8F00F00F140004FF0040E49
:1009600059E0F0B4826BC36B0468052524268759CF
:100970003C444FEA724787EAF24787EA92273C44B1
:1009800042684FEAF21787EAB24787EAD2073C4447
:1009900040F8044B032D08BF6FF01B0687593A44FB
:1009A0004FEA734787EAF34787EA93273A44436855
:1009B0004FEAF31787EAB34787EAD3073A4440F888
:1009C000042B87593B444FEA744787EAF44787EA88
:1009D00094273B4444684FEAF41787EAB44787EA10
:1009E000D4073B4440F8043B013DC0D1A0F13C009A
:1009F000076A3C444FEA724787EAF24787EA922740
:100A00003C4402684FEAF21787EAB24787EAD20706
:100A10003C44C463F0BC4FF0020288EA781C8CEAC4
:100A2000F84C0BEBBC1C8AEA090303EA080383EACF
:100A30000A039C4450F8043B9C4451F8043B9C44FA
:100A4000674444EA050B0BEA060B04EA05034BEA8C
:100A5000030BE34484EAF42383EA34530BEBB30B34
:100A600087EA771C8CEAF74C0AEBBC1C89EA08037E
:100A700003EA070383EA09039C4450F8043B9C44BF
:100A800051F8043B9C4466444BEA040A0AEA050A0E
:100A90000BEA04034AEA030AE2448BEAFB2383EAF3
:100AA0003B530AEBB30A86EA761C8CEAF64C09EB58
:100AB000BC1C88EA070303EA060383EA08039C4494
:100AC00050F8043B9C4451F8043B9C4465444AEA7A
:100AD0000B0909EA04090AEA0B0349EA0309E1449C
:100AE0008AEAFA2383EA3A5309EBB30985EA751CCB
:100AF0008CEAF54C08EBBC1C87EA060303EA050305
:100B000083EA07039C4450F8043B9C4451F8043B9F
:100B10009C44644449EA0A0808EA0B0809EA0A0303
:100B200048EA0308E04489EAF92383EA395308EBE9
:100B3000B30884EA741C8CEAF44C07EBBC1C86EA0C
:100B4000050303EA040383EA06039C4450F8043BCC
:100B50009C4451F8043B9C44E34448EA090707EAF3
:100B60000A0708EA090347EA0307674488EAF82303
:100B700083EA385307EBB3078BEA7B1C8CEAFB4C08
:100B800006EBBC1C85EA040303EA0B0383EA0503B6
:100B90009C4450F8043B9C4451F8043B9C44E24480
:100BA00047EA080606EA090607EA080346EA0306D2
:100BB000664487EAF72383EA375306EBB3068AEAEB
:100BC0007A1C8CEAFA4C05EBBC1C84EA0B0303EAA2
:100BD0000A0383EA04039C4450F8043B9C4451F804
:100BE000043B9C44E14446EA070505EA080506EA99
:100BF000070345EA0305654486EAF62383EA36538C
:100C000005EBB30589EA791C8CEAF94C04EBBC1CB2
:100C10008BEA0A0303EA090383EA0B039C4450F8B6
:100C2000043B9C4451F8043B9C44E04445EA0604E0
:100C300004EA070405EA060344EA0304644485EA77
:100C4000F52383EA355304EBB304013A7FF4E5AEB0
:100C5000A0F14000BEF1010E7FF483AEA0F1400C84
:100C60009CE80F00001949199219DB19ACE80F0034
:100C70009CE80F004044494452445B44ACE80F00F8
:100C8000BDE8F08F07B50023044800931A461021F1
:100C900000F09CF803B05DF804FB00BF2892000050
:100CA00013B50C480469836801A95B689847021E64
:100CB00007D00BDA0848452107F038F9002002B0C8
:100CC00010BD2368019A5A40C2F3C012101E18BF0B
:100CD0000120F4E7148F0000AA99000008B5044829
:100CE00007F03FF800F058FB00F022F8002008BDA4
:100CF000CE990000024608B50648452107F016F9CE
:100D0000EFF31183202383F31288BFF36F8F032047
:100D100000F0C0FCEE9900000446024608B5034806
:100D2000452107F003F92046FFF7E4FF139A00007E
:100D300010B51248492107F0F9F8114C204607F088
:100D4000AAFF28B9BDE810400E48452107F0EEB8CB
:100D50002269A168136823F4807313600B684FF451
:100D6000C022082120469847021E05DABDE810403F
:100D70000548452107F0DAB810BD00BF3A9A0000D7
:100D8000148F0000629A0000889A000030B4034675
:100D90000A4600681979836805699C697CB1130269
:100DA00006D52D6801238B402B4218BF82F0C0620C
:100DB000054BA446134030BC02F0B07260476FF0A0
:100DC000570030BC704700BF400000062DE9F047D7
:100DD00015460268DDF82080126804460E461F465C
:100DE00049210379384807F0A1F8206807F053FF3C
:100DF000236830B9BDE8F0471A683448452107F048
:100E000095B8E2882179324342F4803CD002D3F88D
:100E10000890D3F810E006D512F4402F03D0D20783
:100E200048BF8CF4402CDEF80060012088401CF0A4
:100E3000010F14BF06438643CEF80060D9F8006066
:100E40002CF480121846B04748B1226808902379E4
:100E500012681F484521BDE8F04707F067B818F44D
:100E6000800F22D041462046FFF790FF30B1226824
:100E700008902379126817484521ECE717B30DB3A2
:100E80002268237912681448492107F04FF8237922
:100E9000012202FA03F3C5E9017320688368DB6964
:100EA00083B12946BDE8F04718474FF400112046AA
:100EB000FFF76CFF30B12268089023791268074869
:100EC0004521C8E7BDE8F087CA9A0000ED9A000006
:100ED000079B0000329B00006A9B0000919B000072
:100EE0002DE9F04F89B0002305460E46C0B204A993
:100EF000049300F03FFF014650B100903346244870
:100F00002A46452107F012F8002009B0BDE8F08F0D
:100F1000DFF88080049841F23C03424607F014F861
:100F2000044668B141F23C030193049B02905B6864
:100F30000093194833462A46452106F0F7FFE3E7B8
:100F4000DFF858A0DFF858B005AF9BE807005AF863
:100F5000043B08EB030987E807000C2239464846A2
:100F600007F0C9FE10B9B9F1000F09D10134052C01
:100F7000EBD10C4833462A46452106F0D7FFC3E79C
:100F8000094833462A46492106F0D0FF0120BCE734
:100F9000C79B0000F0120020F59B0000309200007B
:100FA000909100006B9C00003C9C000073B51446BF
:100FB000CDE90023054602461E460B480B46492153
:100FC00006F0B4FF2046294600F0DAFC2046294608
:100FD00000F0DCFC044620B904483246452106F006
:100FE000A5FF204602B070BDA79C0000F59C000044
:100FF00008B50A48452106F099FF0948492106F03D
:1010000095FFEFF31183202383F31288BFF36F8FD3
:1010100000F0C6FA022000F03DFB00BF539D000027
:10102000779D0000F0B5012385B0904A9048492192
:1010300006F07CFF8F4A9048492106F077FF8F4BDE
:101040008F4A9048009349218F4B06F06FFF8F4BDA
:101050008F4A9048009349218F4B06F067FFFFF7B6
:1010600011FE00F055FBFFF71BFE70B3012000F0EE
:10107000A1F9012000F0A4F988480A22492106F0CC
:1010800055FF07F036FE4FF47A77A0FB070307FB06
:101090000133C00B40EA43443D4642F20F76FFF76E
:1010A000FFFD40BB7E48492106F040FF06F031FDC0
:1010B0007C48492106F03AFF012001F0BFFA0246C0
:1010C00018B17948452106F031FF78484FF4504374
:1010D0000022492106F02AFF4FF480534FF450427A
:1010E0004921734806F022FF4FF4FA7006F04DFDD7
:1010F000002005B0F0BD07F0FCFDA0FB050307FBD9
:101100000131C30B43EA41431B1BB342C7D906F06D
:1011100000FD6848492106F009FF00F057F96649CB
:101120000820FFF7DDFEA8B164490E20FFF7D8FEC6
:1011300080B163491320FFF7D3FE58B161491A20EB
:10114000FFF7CEFE30B1604B604904220520FFF767
:101150002DFF08B9FFF74CFF5D4B574907220820C8
:10116000FFF724FF0028F5D05A4B54490D220E20DA
:10117000FFF71CFF0028EDD0574B514912221320D6
:10118000FFF714FF0028E5D0544B4E4919221A20CE
:10119000FFF70CFF0028DDD0514B52481D2249219A
:1011A00006F0C4FE002403A91D20039400F0E2FD14
:1011B000031E05DA4C481D22452106F0B7FEC9E79B
:1011C000039B4A489A680192DA68126800925B6849
:1011D0001D22492106F0AAFE03982146826806F0E6
:1011E000F5FE031E4FF01D0207DA4148452106F0C7
:1011F0009DFE039806F0A7FEACE749213D4806F0A6
:1012000095FE039806F09FFE3B48492106F08EFEAE
:10121000AC2001F013FA024620B12348452106F024
:1012200085FE97E700F0BCF9FFF73AFD70B133484F
:10123000492106F07BFE012000F0BCF8012000F0FF
:10124000BFF8FFF72DFD60B906F063FC2C4849217B
:1012500006F06CFE4FF4FA7006F097FC012000F0E7
:1012600065FC0A2006F091FCEBE700BF9E9D0000A4
:10127000AB9D0000D49D0000EF9D0000419E00004A
:10128000079E00000D9E0000069E00009B9E000031
:101290005B9E0000649E00004E9E0000A89E000021
:1012A000FB9E0000149F0000F7A000005EA100005C
:1012B0009BA10000359F0000609F0000679F000019
:1012C0006E9F0000829F0000989F0000A29F000078
:1012D000B09F0000589E0000B39F0000C39F000015
:1012E000D59F0000E99F000008A0000034A0000086
:1012F0006CA0000095A00000C6A0000017A100008F
:1013000048A10000036803F01F025B09026004D0DB
:10131000012B034818BF002070474FF0A0407047D2
:101320000003005013B50446006807F0B4FC48B948
:101330002268237912680B48452102B0BDE81040AD
:1013400006F0F4BD4FF4B011204606F0EBFB38B1C7
:1013500022680090237912680348452106F0E6FDD3
:1013600002B010BDE1A10000FDA1000007B5019091
:1013700001A8FFF7C7FF019B00EB8300054BD0F8E6
:101380000027134043F00303C0F8003703B05DF8B3
:1013900004FB00BFF0F8FCFF08B50448FFF7C2FFEC
:1013A000BDE808400248FFF7BDBF00BF5C920000E7
:1013B000549200000146014806F0D3BB5C92000045
:1013C0000146014806F0CDBB549200002DE9F041E2
:1013D000634D644888B0294603F03AFD624B984259
:1013E000064605AC29D002464521604806F09EFD20
:1013F0005F4B93E80700032384E8070000225D4861
:101400008DF81930214604F0DFFA574B9842024616
:1014100068D05948452106F089FD584C204603F014
:101420008DFE514B984206466CD0024654484521E9
:1014300008B0BDE8F04106F079BDDFF848814948C1
:10144000414603F005FDB042074609D0024645215A
:101450004D4806F06BFD2978424803F0F3FCC7E7DE
:101460004FF48073ADF80C302B788DF810300022DB
:1014700003238DF80E208DF811308DF812208DF891
:10148000153098F800208DF8142001238DF81630BF
:10149000344804AB03AA292103F0F8FBB8420646FE
:1014A0000BD002463948452106F040FD29782D48E9
:1014B00003F0C8FC98F80010CEE703AA2948234699
:1014C000282103F0E3FBB042024602D03048452118
:1014D000EAE72448292107F0D5FA2248282107F015
:1014E000D1FA85E74FF4FA71224807F032FB002168
:1014F000024600911F48012307F058FB1D4804F0E5
:1015000087FA8AE72921174807F0DAFA28210546E1
:10151000144807F0D5FA2A461E490746207803F0FA
:1015200027FEB04205460AD002461B48452106F078
:10153000FDFC207808B0BDE8F04103F005BE20783E
:10154000394603F041FEA842024602D01348452125
:10155000EDE7207808B0BDE8F04103F04FBE00BFD2
:101560002C230020449200000000AD0B27A20000B5
:101570009C9100004C920000EDA200002E23002060
:101580000DA300002D23002056A2000087A200001A
:10159000B9A2000040B1014034A300005CA30000E8
:1015A00073B5234C207803F045FE2078214C03F0DE
:1015B000CBFD204604F03AFA204604F043FA2820F6
:1015C000FFF7D4FE2920FFF7D1FE282501A80195B9
:1015D000FFF798FE019B184C012101FA03F329261D
:1015E000C0F8083501A80196FFF78CFE019B9940D1
:1015F000C0F808153146204607F053FA2946204620
:1016000007F04FFA3146204607F03AFA29462046BD
:1016100007F036FA094B2046197803F013FC084B03
:101620001978204602B0BDE8704003F00BBC00BF43
:101630002E2300204C920000449200002C23002016
:101640002D23002010B5037804467BB9FFF728FB53
:1016500048B901230C482370492106F067FC0B4868
:10166000492106F063FC0024204610BDFFF718FB5B
:1016700004460028F7D00648492106F057FC6420AC
:1016800006F083FAF0E700BF89A30000A5A30000DD
:10169000D5A3000007B50446FFF702FB80F0010365
:1016A000DBB28DF807301BB11848492106F03EFC2B
:1016B0000020FFF785FE0025AC420BD109256420F0
:1016C00006F063FA0DF10700FFF7BCFF68B9013DB2
:1016D000F5D1F0E70120FFF76DFE642006F055FA22
:1016E0000DF10700FFF7AEFF10B1012000F01EFA68
:1016F000FFF760FE642006F048FA0DF10700FFF7DF
:10170000A1FF0028F1D10135D6E700BFA5A3000055
:1017100038B5204D204C21482A464921641B06F04B
:1017200005FC1F482246492106F000FCB5F1005F88
:101730000BD01C491C48252206F013FB1B484FF018
:101740000052294606F00DFB0BE0C4F30B0393B1E6
:10175000144915482A2206F004FB1548214606F0D4
:1017600000FBEFF31183202383F31288BFF36F8F05
:101770000420FFF78FFFB4F5805F09D009490A48BC
:10178000352206F0EEFA0B484FF480522146D9E795
:1017900038BD00BF0000002000100020F9A30000A9
:1017A00017A4000035A4000085A40000A1A4000037
:1017B000E5A4000019A5000030B5B5B00B460191B5
:1017C000024605460C4604A8C02106F079F9011E20
:1017D00005DA2146284600F091F935B030BDBF2921
:1017E00013DD0B4B18689B88ADF80C309DF80C305E
:1017F0008DF8CE3000230290CDF8CA008DF8CF309E
:10180000BF2104A806F0C6F9E3E70029E1D0F8E714
:1018100059A5000038B505460C4606F0AAFB03465C
:1018200038B16A6804482244452106F07FFBFFF77F
:10183000DFFB012038BD00BF5FA500002DE9FF4799
:1018400005460E46994602A90023C0B2CDE90233EF
:10185000174600F08FFA034630B12A462D4845213D
:1018600006F064FBFFF7C4FB03A9F0B200F082FAB4
:10187000044610B103463246F0E70298039B8268A3
:101880009B689A4202D024484521E9E777B1214676
:1018900006F084FB50B1029B01909A6800925B684D
:1018A0001E482A46452106F041FBDBE7039BDFF893
:1018B00070A09F68039857B90125039806F043FB71
:1018C000029806F040FB284604B0BDE8F087B7F563
:1018D000807FB84628BF4FF4807843465246214661
:1018E00006F032FB48B1039B5B68009023440D482F
:1018F0003246452106F01AFBB4E7029843465246A9
:101900002146C84705460028D7D04444A7EB08071E
:10191000D0E700BF8DA50000B6A50000D9A5000046
:101920002F24002021A600002DE9F0411746114A7E
:1019300006460D46984606F007FB044640B172681D
:1019400003462A440C48452106F0F0FAFFF750FB05
:1019500008494246384607F0CEF940B17268074858
:101960002A44492106F0E2FA2046BDE8F081012030
:10197000FBE700BF2F2300205AA600008DA6000021
:10198000014B0122FFF75ABF15180000014B00223E
:10199000FFF754BF291900002DE9F043DFF8389014
:1019A000DFF8388085B00746002601AD98E80700CB
:1019B00059F8044B3C4485E807000C222946204690
:1019C00007F099F900B91CB90136052EEED10024B3
:1019D000204605B0BDE8F08364920000A8910000A5
:1019E00037B504461E480D4606F0BBF92CB91D4814
:1019F00003B0BDE8304006F0B4B9A1691A4806F05A
:101A0000B0F9A069214606F0A8FE40B9174806F0D3
:101A1000A8F9204603B0BDE8304002F013BD1448D9
:101A2000616906F09EF90DF1060006F076FE40B100
:101A3000104806F096F9104806F093F90023ADF827
:101A400006306069BDF80630984203D9294680B255
:101A500002F07AFA204602F0A3F903B030BD00BFCD
:101A6000B2A60000D0A60000EBA6000013A700005D
:101A700043A7000059A7000081A7000070B54FF4EC
:101A80005041002006F0A7FD064620B1134806F09D
:101A900068F9002070BD06F0BCFE044606F0BDFEED
:101AA00005462046FFF778FF04462846FFF774FFF7
:101AB000054618B1626943699A4209D3002120465C
:101AC000FFF78EFF01212846FFF78AFF0448DEE773
:101AD0000121FFF785FF31462046F5E7C4A7000046
:101AE000F2A70000014B1B68184700BF0010002040
:101AF000014B1860704700BF0010002030B585B062
:101B000004460D4610220021684607F08FF9022393
:101B10008DF802302A46044B01932146684605F0B1
:101B200073FD05B030BD00BFE51A000008B50446DE
:101B3000EFF31183202383F31288BFF36F8F02F03A
:101B4000F9F8204600F018FC024806F00AF906F001
:101B50009EFAFCE72DA800002DE9F047058B04460E
:101B60002807904611D4022905F0070540F0CC80E3
:101B7000204606F003F978B10138218B042811D8EA
:101B8000DFE800F0C2106D85950001290CBF45F01B
:101B9000100545F02005258388F31188BFF36F8F6A
:101BA000BDE8F08701F0070AAA4500F0A5800027EC
:101BB000B9463E46A368002B00F0BC8041F0080106
:101BC000218388F31188BFF36F8FA168002900F08B
:101BD000BA800D68002900F0B680D1F80480334641
:101BE00052462046C047002D76D02B6829461D4618
:101BF000F0E701F007035A1F012A1BD8002221F049
:101C00000701062B276889B2C4E9002209D13B46A7
:101C100003E0628B013262831B68002BF9D141F033
:101C200002012183204606F0A9F800287AD041F06D
:101C3000200176E0042B0AD121F0070189B221832B
:101C4000204606F09BF810B141F020012183218B42
:101C500001F0070AAA454FD00027B946AAE7236931
:101C600021F0070141F00601062DD3F800902183F1
:101C70002DD1B9F1000F3FD041F00801218388F345
:101C80001188BFF36F8F3A492046C84729E021F0F9
:101C90000701236941F0040189B2042DD3F80490AF
:101CA0002183E6D000273E464FF0040A82E721F068
:101CB0000701236941F0050189B2052DD3F8089089
:101CC0002183D6D000273E464FF0050A72E7002751
:101CD0003E464FF0060A6DE72B4687E7B9F1000F45
:101CE000D1D1EFF31188202383F31288BFF36F8FD4
:101CF000238B23F008032383258BEA062ED525F0BA
:101D00001003238305F007056669218B002EBFF6BB
:101D100070AF00232768C4E9003321F0070141F0C8
:101D200001012183218B01F0070AAA454FF0000928
:101D30007FF440AF002F9CD041F00801218388F34D
:101D40001188BFF36F8F002FC8D03D6839463346E6
:101D50005246204606F03EF82F46F4E7AB067FF5E4
:101D60001BAF25F02003238305F0070500E700BF24
:101D7000017E000070B5114B1C680D46DCB1104BA4
:101D8000196800238B4202DB6FF0010070BD224610
:101D900012F8106B864202D001331446F2E7E06875
:101DA00010B96FF01200F1E706F075FF0028F8D0C7
:101DB0002C600020EAE76FF00C00E7E70410002039
:101DC0007892000008B54FF01022D2F8100210F4FB
:101DD0007F4018D00C4B0121C3F80415BFF34F8F7F
:101DE000BFF36F8F6FF47F41C2F81012D3F8002455
:101DF000002AFBD00020C3F80405BFF34F8FBFF3C8
:101E00006F8FFFF793FE08BD00E0014008B504485E
:101E100005F0A7FFBDE80840024805F0A2BF00BFDB
:101E20005CA8000091A80000014805F07FBA00BF3F
:101E30009C94000073B506460C46002938D08B6888
:101E40000093D1E900232248452106F06FF8636929
:101E50000093D4E903231F48452106F067F8E2699F
:101E60001D48452106F062F8256ABDB1AB680093B4
:101E7000D5E900231948452106F058F86B6900930D
:101E8000D5E903231648452106F050F82B6A009344
:101E9000D5E906231348452106F048F8A26A1248FE
:101EA000452106F043F8A2691048452106F03EF8A6
:101EB000012E06D1EFF305820D48103A452106F0B8
:101EC00035F82146304602B0BDE8704003F052BEFE
:101ED000BFA80000F3A8000027A900003BA900004C
:101EE0006FA90000A3A90000D7A90000EEA9000077
:101EF00021AA000030BFFFF7FDBF00BF10B5204C86
:101F00002048452106F012F8A36A990136D51E48EB
:101F1000452106F00BF81E20A36ADA0104D51B4800
:101F2000452106F003F81F20154CA36A1B0304D5B6
:101F30001748452105F0FAFF2120A36A590304D56B
:101F40001448452105F0F2FF22200D4CA36A9A03A4
:101F500004D51148452105F0E9FF2320A36ADB03DE
:101F600004D50E48452105F0E1FF2420044A936A78
:101F70006FEA03436FEA1343936210BD1D20CBE762
:101F800000ED00E039AA000056AA00006EAA000089
:101F90008DAA0000B0AA0000DAAA0000F9AA000089
:101FA00070B5284C06460D462748452105F0BEFF72
:101FB000A36AD9043BD52548452105F0B7FF172072
:101FC000A36A1A0504D52248452105F0AFFF182061
:101FD0001C4CA36A9B0511D51E48452105F0A6FFA0
:101FE000A26BA36A180408D51B48452105F09EFF83
:101FF0001EB1A36A23F40043A3621920114CA36A03
:10200000590504D51548452105F090FF1A20A36A0B
:10201000DA050ED51248452105F088FF1B20094A34
:10202000936A43F47F43936200232B7070BD1620A4
:10203000C6E7A36A9B04F2D50A48452105F076FF5E
:102040001C20ECE700ED00E029AB000044AB0000F1
:102050005AAB000072AB000090AB0000AAAB0000CE
:10206000CAAB0000E7AB000070B5294C06460D4630
:102070002848452105F05AFFA36AD80646D52648C8
:10208000452105F053FF1120A36A190704D5234801
:10209000452105F04BFF12201D4CA36A9A0711D56C
:1020A0001F48452105F042FF626BA36A1B0608D555
:1020B0001C48452105F03AFF1EB1A36A23F08003B6
:1020C000A3621320124CA36ADE0704D516484521EB
:1020D00005F02CFF1420A36A9C0604D51348452163
:1020E00005F024FF15200A4B9A6AD10658BF9A6A58
:1020F0009A6A920642BF5A6A22F400525A629A6A57
:1021000042F0FF029A6200232B7070BD1020BBE7E3
:1021100000ED00E01BAC000036AC00005AAB000044
:102120006EAC00008BAC0000A6AC0000E7AB00007A
:102130002DE9F04F9946634BD3F804A08DB080464B
:102140000D461746CAF30804002686F31188BFF32C
:102150006F8F02F07F43B3F17F4F07D102F00C0382
:10216000082B14D15848452105F0E0FE00263546DD
:102170004FF0000BE31E8DF803B0092B00F28F80A7
:10218000DFE803F00A82867E8D8D8D8D8D8A1107A2
:102190005CBF05460126EBE74C484A4C452105F05B
:1021A000C5FE8DF803B0E36A9A0705D54848452176
:1021B00005F0BCFE002432E0E36A002B02DA454859
:1021C0004521F5E7E36A5B00F4D54348452105F076
:1021D000ADFE6369AA6943F480736361BFF34F8FF7
:1021E000BFF36F8F636932F8022C23F4807363614D
:1021F000BFF34F8FBFF36F8F4DF602739A4208D033
:10220000A36ADBB273B30DF103010120FFF72CFFCA
:1022100038E02A683148452105F088FE2C689DF891
:102220000330E3B901AA05F1200C28686968134658
:1022300003C3083565451A46F7D1CDE90998089BCF
:102240000B97002E38D0C3F3080222B96FEA53234C
:102250006FEA4323089301A92046FFF7EBFD0DB079
:10226000BDE8F08FA36A13F47F4F05D00DF1030191
:102270000120FFF795FE05E0A36AB3F5803F99D3EF
:10228000FFF73CFE0446CAE70DF103010020BDE75D
:102290000DF103010020ECE71148452188E71149C1
:1022A000114A12481AF4F87F08BF0A46A4F1100335
:1022B000452105F03BFE7DE723F4FF7323F0010386
:1022C000C8E700BF00ED00E0F8AC000028AD00005A
:1022D00044AD00006AAD00007DAD0000A1AD00007E
:1022E000C2AD0000CAAC0000DFAC0000EBAD0000E6
:1022F000044B5A6942F010025A615A6922F00802EE
:102300005A61704700ED00E0EFF30880EFF30981B8
:1023100001B506B42DE9F00F6B467246FFF708FFD2
:102320000AB001BD002080F31488BFF36F8F02F064
:10233000B1F800200D490860BFF34F8F0C4880F3BF
:10234000088800F02BF8202080F3118809484FF40A
:102350000061401880F30988EFF3148002210843DC
:1023600080F31488BFF36F8F00F0A8F894ED00E0BD
:10237000383E002038260020BFF34F8F0549064B1A
:10238000CA6802F4E0621343CB60BFF34F8F00BF13
:10239000FDE700BF00ED00E00400FA0572B600237F
:1023A00083F31388144B4FF0FF32C3F88020C3F837
:1023B0008420C3F88820C3F88C20C3F89020C3F889
:1023C0009420C3F89820C3F89C20C3F88021C3F858
:1023D0008421C3F88821C3F88C21C3F89021C3F865
:1023E0009421C3F89821C3F89C2162B6BFF34F8FA4
:1023F000BFF36F8F704700BF00E100E01EF0040FD5
:102400000CBFEFF30880EFF30980816911F8021C1B
:102410000229FFD001B5EFF3098106B42DE9F00FD1
:10242000694605F0FFFD0AB001BD00BF40B20028BB
:1024300007DB044A4109012300F01F00834042F8F2
:102440002130704700E100E040B200280CDB430976
:10245000064900F01F0020330122824041F823206A
:10246000BFF34F8FBFF36F8F704700BF00E100E0F5
:10247000054B420900F01F0053F82220012303FA04
:1024800000F01040704700BF00E100E040B20028BB
:10249000A8BF00F1604001F10101B8BF064B4FEA4F
:1024A0004111ACBF00F5614000F00F00C9B2B4BFEC
:1024B000195480F80013704714ED00E00B4A08B57A
:1024C0000B4B22F07F029A60BFF34F8FBFF36F8FE9
:1024D000D3F8882022F47002C3F8882003F0B2FBFE
:1024E00003F0F4FB00F024F803F0B8FB0000000058
:1024F00000ED00E080B50C4607461546064E86F313
:1025000009884FF0000005498847204629461A46A9
:10251000B84703488047FEE7383E0020718000003E
:102520007F800000014B10221A61704700ED00E02F
:10253000044800232021C2180133302B82F80013F5
:10254000F9D1704700E100E008B5EFF30583064AD2
:10255000103B02EBC30152F8330049688847BDE8DD
:10256000084005F080BD00BFA08F000008B5024BF9
:102570001B689847002008BD48110020034B044AFF
:102580001860937843F0020393707047481100205D
:102590000810002008B5044904484FF4807205F083
:1025A00086FB002008BD00BF382500204C1100200C
:1025B000044A0123C2F840354FF080420020C2F89F
:1025C0007835704700E0014020B1034B800143F0B3
:1025D00001031847704700BF2092000038B54568D6
:1025E000286806F058FB38B91148452105F09EFCD3
:1025F0006FF01204204638BD286883681B6898472E
:10260000041E05DA0B482246452105F08FFCF1E750
:10261000D5E901231A44A24207D923460648452199
:1026200005F084FC6FF01504E4E70024E2E700BF46
:1026300007AE000027AE00004EAE000007B5012334
:102640008DF807000DF107020021034805F0A0FDF9
:1026500003B05DF804FB00BF8C8F0000084B70B521
:10266000C31A0D4607499B100446594306484022A9
:1026700005F0D1FD2B4601462046BDE870401847C5
:102680006C110020B76DDBB6EC8E000073B50C4CFE
:102690000C4A4023041B00930D460B460A49A41024
:1026A00061430646094805F0E1FD011E05DA3046A2
:1026B0002B4602B0BDE87040184702B070BD00BFA5
:1026C0006C110020DB820000B76DDBB6EC8E0000E1
:1026D00010B5EFF31184202383F31288BFF36F8FBB
:1026E000074A136823F00201DB07116002D40120BE
:1026F00006F048F984F31188BFF36F8F10BD00BF57
:10270000BC110020002270B5012104461046FFF7DD
:10271000BDFE0F4802F048F80E4B984215D102F06A
:1027200053F826690C49304605F077FB00280BDB8F
:10273000012535642469084904F11C0005F06DFB8E
:10274000002801DBE564002070BD6FF00400FBE7AA
:10275000212800000000AD0BD094000030B4104BD5
:102760000C2202FB003301460020D3E90E5298638D
:10277000EFF31180202484F31288BFF36F8F1C6C59
:1027800004F0C00444F002041C6480F31188BFF319
:102790006F8F1DB12B46034830BC184730BC7047C3
:1027A0006C110020EC8E000010B4EFF31182202396
:1027B00083F31288BFF36F8F1748016841F002045A
:1027C0000460C80707D482F31188BFF36F8F01201C
:1027D00010BC02F00BB84FF08041D1F80C04D1F8D6
:1027E0000C14C907EFD5EFF3118083F31288BFF300
:1027F0006F8F0A490B6C03F0C00343F002030B64B4
:1028000080F31188BFF36F8F82F31188BFF36F8F4E
:10281000002010BCFFF7A2BFBC1100206C110020EB
:1028200010B1012804D07047034B1B6C5B0701D12A
:10283000FFF794BF704700BF6C11002038B52349E3
:10284000BFF35B8F0446012251E8003F41E80020BE
:102850000028F9D1BFF35B8F33B91D491D484B6088
:10286000CB608A6005F0ECFA631E012B1ED806F0DF
:102870003AFAE0B9184B1B78CBB14FF080430222F3
:10288000C3F8082303464FF08041D1F81854D1F81B
:102890001824ED03F9D502F00302022A01D0012C1D
:1028A000F3D168B183F31188BFF36F8F38BDEFF3B5
:1028B0001183202282F31288BFF36F8F0120E2E799
:1028C0004FF080430222C3F80423EFE76811002091
:1028D00058110020881100203625002010B5044C26
:1028E0002046FFF705F92046FFF748FE002010BDFF
:1028F000F528000073B50C4E8DF80700044603253B
:1029000001220DF10701002003F01AF920B1012383
:102910003370204602B070BD3378002BF9D0013DF2
:10292000EED13570F5E700BF3025002008B5074827
:1029300006F0B1F938B10648FFF720FE0448FFF76A
:10294000D7F8002008BD6FF01200FBE7288F0000C9
:10295000552900000A2838B5074D044604D1AB6854
:102960000D215B6828469847AB6803485B68E1B275
:102970009847204638BD00BF288F000000F1744002
:1029800000F5A6000A289ABF024B33F910006FF039
:102990000F00704794990000024B0B6001231360F5
:1029A000704700BF909500000048704710950000E8
:1029B00037B50D464168B1B1D1E900138468A4B1BF
:1029C000D4E9002494B18BB19C4208D10133092B86
:1029D00000780ED902465721104805F0A7FA6FF08B
:1029E000150003B030BD0B46E8E72246013323440F
:1029F000EDE78DF8013040F201138DF80000ADF8DD
:102A00000230684600238DF804308DF8055002F03E
:102A100083FE03B0BDE83040FFF7B0BFDBAE00007F
:102A20000268154BFF2A08BF4FF0FF32C3F8242578
:102A30004268FF2A08BF4FF0FF32C3F8282582689A
:102A4000FF2A08BF4FF0FF32C3F83025C268FF2AC3
:102A500008BF4FF0FF32C3F834250269FF2A08BFD0
:102A60004FF0FF32C3F838254269FF2A08BF4FF004
:102A7000FF32C3F83C2570470090024038B50F4B39
:102A8000994204460FD1EFF31180202383F312887B
:102A9000BFF36F8F1D46237833B10023237080F37B
:102AA0001188BFF36F8F38BD05F0FEFAEFF3118088
:102AB00085F31288BFF36F8FEDE700BF0000AD0B09
:102AC0002DE9F04F824685B00E46904672B1002B3C
:102AD00000F08E80002E416803DBC96AF2188A423A
:102AE00009D944483246452105F020FA6FF0150017
:102AF00005B0BDE8F08F754205F003059D4228BF83
:102B00001D46D8F1000202F0030208F0030758BF87
:102B100057427F4207F003079F4228BF1F465A1BB8
:102B2000DB1B23F0030322F003099945C8BF994634
:102B300002F0030BC8BFA2EB030BB9F1000F19D0D1
:102B400008EB0703721949461846019305F0FAFF8E
:102B500004460146DAF81000FFF790FF264A944237
:102B60003CD1BD4206D0019B4A46194608EB050000
:102B700006F042F9BDB1C5F10407F21B042102A819
:102B800005F0E0FF04460146DAF81000FFF776FF93
:102B9000194B9C4222D107F108032A460DEB030191
:102BA000404606F01BF9BBF1000F16D00821721940
:102BB0004A440DEB010005F0C5FF04460146DAF872
:102BC0001000FFF75BFF0C4B9C4207D109EB05009F
:102BD0005A4602A9404406F001F9074CDAF8100001
:102BE00005F0C1FB204605B0BDE8F04FFFF7C6BEBB
:102BF00018467DE703AF00000000AD0B2DE9F34759
:102C00000E46074641681D4690469AB193B1042B83
:102C100001D9AB070ED116F003000BD1002E03DB58
:102C2000CA6A731993420BD937482B46324645215D
:102C300005F07CF96FF01504204602B0BDE8F0877E
:102C400005F05EFB044630B1012005F059FB386900
:102C500005F089FBF0E7032D1ED8042132460DEB69
:102C6000010005F06FFF044601463869FFF706FFD3
:102C7000264B9C4235D12A46414601A806F0AEF8C3
:102C8000042132460DEB010005F059FF04460146D0
:102C90003869FFF7F3FE24E008F06043B3F1005F0A
:102CA00002D118F0030F2BD0DFF860A0042DA94645
:102CB00028BF4FF004094A46414601A806F08EF8A5
:102CC0003246494601A805F03AFF044601463869F4
:102CD000FFF7D4FE544504D1B5EB0905C8444E4472
:102CE000E4D12046FFF74AFE0446012005F008FB28
:102CF0000546386905F037FB002C08BF2C469BE7DA
:102D0000324629464046BFE751AF00000000AD0BF8
:102D10002DE9F047C1F30B03D0F8048007460E46B7
:102D2000154622B96FF015042046BDE8F087C2F3BE
:102D30000B001843F6D1002904DB8B18D8F82C209F
:102D4000934206D90A4636482B46452105F0EEF84F
:102D5000E8E705F0D5FA044600285CD1DFF8C49016
:102D6000D8F82C30AB4217D105F0EFFEAA46044646
:102D700038692146FFF782FE4C4532D15644A5EB17
:102D80000A05012005F0D1FA041E3BDB14F0010412
:102D9000F7D1002DE4D12EE0B5F5803F09D3B3B2D1
:102DA00053B93146012002F035FD4FF4803A044614
:102DB000DEE7B5F5805F09D3C6F30B0030B93146C5
:102DC00002F028FD4FF4805A0446D1E71648174C0C
:102DD0002B463246452105F0A9F814493869FFF71A
:102DE0004DFE13482B463246452105F09FF82046FC
:102DF000FFF7C4FD0446012005F082FA002C08BF4D
:102E0000044608E00B482B463246452105F08EF873
:102E1000012005F075FA386905F0A5FA84E700BFCE
:102E2000A0AF00000000AD0BEFAF00000400AD0B41
:102E300034B0000012B000002DE9F04743685D6B2C
:102E400094B007460EAA0021284605F0F7FA041EA2
:102E50006FDB0E9B2A681979186800F09FFB041E2F
:102E600067DB002201212920FFF710FBD7F804803F
:102E70003A696D49404602F02FFCFFF77FFD041EC2
:102E800052DB6A4D0FCD0EAC0FC495E8030000264F
:102E90000DF1140984E803000596AB23C9E9016626
:102EA0008DF81430624BD3F82425D2B20892D3F8AF
:102EB0002825D2B20992D3F83025D2B20A92D3F89B
:102EC0003425D2B20B92D3F83825D2B20C92D3F873
:102ED0003C350EA8DBB20D93FFF7A2FD012002F0F6
:102EE00071FC08AD01462846FFF79AFD514B994207
:102EF00023D131464846FFF75BFD041E14DB032057
:102F000005F0C4FE4FF0030A9F2331460EA8CDE919
:102F10000E66CDF82090CDF824A08DF838301095AD
:102F2000FFF746FD041E0BDA02F06AFC08B102F05E
:102F300055FC204614B0BDE8F0876FF00404F3E7B9
:102F40005246494608F1300005F0D5FEB0B198F878
:102F50003230039398F83130029398F8303001936F
:102F60009DF8163000939DF814209DF815303248D6
:102F7000452104F0DBFF6FF01204D5E77A68537F38
:102F8000023B012B10D9127F023A022A8CBF002784
:102F90000127022005F0C9F9041E07DA2748224656
:102FA000452104F0C3FFBFE70127F2E7E3B2C4F312
:102FB0004004A74201D10024B6E783F002030026B3
:102FC0000120ADF810608DF8113005F0AEF9041E47
:102FD0000FDA1B482246452104F0A8FF19491A4A76
:102FE0001A48002F08BF0A462346452104F09EFFD9
:102FF0009AE704AB0893012102230EA88DF8104034
:103000000E96099310968DF838100F95FFF7D0FCA7
:10301000041E07D1012005F088F9041EDEDBE3075A
:10302000F8D4C8E780DAD9E7F9820000B49100004B
:10303000009002400000AD0B61B0000098B00000AD
:10304000ADB000005BB0000057B00000CBB0000096
:10305000024B0B6001231360704700BFC0110020BA
:1030600000487047AC95000010B505F064FD034CB6
:10307000206005F05CFD6060002010BDC0110020E4
:1030800070B50D462846194616461C4605F070F9DF
:1030900040B9084823462A46452104F047FF6FF00F
:1030A000150070BD24B122462946304605F096FE33
:1030B0000020F6E7F6B000004FF08042D2F810157D
:1030C000D2F8103501F01E0123F01F030B4343F02B
:1030D0000103C2F81035024B00221A70704700BF7E
:1030E000332500204FF08053D3F83031082B20D106
:1030F0004FF08042D2F81015CB071AD5D2F8103510
:1031000001F01E0123F01F030B43C2F81035D2F863
:1031100008315BB1D2F8103523F01F030B4343F0A5
:103120000103C2F810356FF08B007047024B01228B
:103130001A700020704700BF332500202DE9F041B0
:103140000F46154605F0F3FC29460646384605F0BD
:103150000FF9B84660B3B7FBF6F306FB137323B958
:10316000B5FBF6F406FB145444B114482B463A461A
:10317000452104F0DBFE6FF0150413E0AE4211D8D8
:1031800005F0D5FC0E4F0646FFF7ACFF044660B9CC
:10319000404601F0A5FF3B780BB1FFF78DFFAD1B5B
:1031A000B044F1D12046BDE8F0816FF08B04F9E71F
:1031B00004482B463A464521DBE700BF18B1000022
:1031C00033250020F6B000002DE9F8430E463046C6
:1031D000194617461C4605F0CBF848B91B4823464C
:1031E0003246452104F0A2FE6FF01500BDE8F883D9
:1031F00046EA040515F0030504D015482346324677
:103200004521EFE7FCB1DFF84C902B19032BA6EB1F
:10321000050806D8104AD2F80034DB07FBD5002099
:10322000E4E7FFF75FFF58B97B1B4046196801F0E0
:1032300077FF99F800300BB1FFF73EFF043DE4E75C
:103240006FF08B00D2E72046D0E700BFF6B0000059
:103250003CB100003325002000E00140F0B540689B
:10326000057B01F01F0444EA4514056987B0002D71
:1032700064D0B2F5001F00F1100506D121462846A2
:1032800005F027FC002007B0F0BD01AE0027B2F525
:10329000800F0197776039D1B3F1007F14BF052308
:1032A00004238DF804300023CDE90463039383687D
:1032B00023FA01F111F001011AD1B2F1A07F17D167
:1032C00004F01F03620903F5E0732AD0012A3BD101
:1032D0001F4A52F82330DB070AD40DF103063246A9
:1032E0002146284601F056FD1A4B98421CD0029602
:1032F00003AA2146284601F00FFC174B984220D123
:1033000001222146284601F0A9FDBBE7B3F1C06FB9
:1033100005D0B3F1007F14BF01230223C1E70323CB
:10332000BFE74FF0A042D4E73146284601F090FDB8
:10333000094B9842DBD06FF00B00A4E76FF08500DB
:10334000A1E76FF015009EE751F82330FFDE00BFC4
:10335000000300500400AD0B0000AD0B38B545680C
:103360002B69B3B11035284601F062FD044680B9DF
:103370000146284601F028FD084B98420BD1084928
:103380002246284601F000FD224605210620FFF7CF
:103390007DF8002038BD6FF00400FBE70000AD0BA6
:1033A000A5330000420970B5034602D0012A17D0A8
:1033B00070BD0D4E326951680029F9D003F01F032A
:1033C00001250C689D400029F2D08A682A4002D06D
:1033D0004B68304698472CB1236821461C46F2E7DB
:1033E000024EE7E72346F8E7148F0000008F000045
:1033F0002DE9F043466840F20635D006337B87B0AE
:1034000002EA050554BFC2F34010032001F01F0774
:10341000B5F5837F144647EA43178DF8030045D07E
:103420000FD8062D18D007D8B5B1022D40D06FF0B7
:10343000150007B0BDE8F083B5F5807FF7D1012511
:103440000AE040F20222954234D0B5F5407F33D0F5
:10345000B5F5007FEBD102250123220303FA01F128
:103460002CD57368C3F80815326982BB07F01F03B7
:103470007F0929D0012F77D13E4A02EB830284F4E1
:103480008033D2F80017C3F30043C4F3404444EA46
:10349000430421F4E16144EA800421F0070144EA95
:1034A00005230B43C2F800370020C2E70725D3E706
:1034B0000425D1E70525CFE70325CDE7630344BF06
:1034C0007368C3F80C15CFE74FF0A042D5E710366C
:1034D0000DF102023946304601F05CFC14F4403F25
:1034E00080460CD13946304605F0CAFA224B984541
:1034F000DAD19DF80210304601F0A4FCD4E701AB0C
:103500004FF0000903AA39463046CDE90439CDE928
:103510000199CDF80C9001F0FFFA174B984286D133
:1035200014F4003315D09DF803308DF80E3084F478
:103530008034C4F300444B4603AA394630468DF824
:103540000C508DF80D4001F0A1FB0B4B9842CDD0F3
:103550006DE7CDE9043303AA0DF103033946304684
:10356000039301F0D9FAF0E703F5E07352F8233042
:10357000FFDE00BF000300500000AD0B036803F046
:103580001F025B09026004D0012B034818BF002012
:1035900070474FF0A0407047000300502DE9F04FF6
:1035A000DFF8949185B01546824600EB810140F228
:1035B000FF17514503D1002005B0BDE8F08FDAF8C0
:1035C00000305E04C3F3C322C3F3080400F1AE80ED
:1035D0005A481B0E865CBC4208BF4FF0FF34222BBA
:1035E00000F2A780DFE803F012192023A5A5A5A506
:1035F000A5A5A52654A5A5A5A5A5A5A557696C8132
:103600008487A5A5A58A9396999C9F00C5F80C452B
:10361000631C5FD10AF1040ACBE7C5F81445601CAE
:10362000F8D04FF0000B46E0C5F80845F0E7C5F8C4
:103630001045F4E7C5F80845002EF0D1621CE9D02A
:103640004FF0000BD8460626DAF80030019303F459
:103650000040002803A81CBF4FF000084FF0010BEA
:103660000394FFF78BFF039C019B00EB8400C3F3E3
:10367000412CD0F80047330243EA8C0343EA0803A5
:1036800004EA0904234343EA4B03C0F80037C1E7C7
:10369000C5F80C45D0E7631CC5F84045BAD003A86F
:1036A0000394FFF76BFF039B012202FA03F3C0F8B8
:1036B0000C354FF0010BD846C6E7C5F84445AEE7D8
:1036C000C5F86045601CDAF80030A3D0C3F30043AE
:1036D000002BE4D003A80394FFF750FF039B0122C3
:1036E00002FA03F3C0F80835E3E7C5F86445E9E7F3
:1036F000C5F86845E6E7C5F86C45E3E7C5F8244535
:10370000621C87D04FF000084FF0010B9CE7C5F812
:1037100028457DE7C5F83045F2E7C5F83445EFE7C1
:10372000C5F83845ECE7C5F83C4571E76FF0150082
:1037300042E76FF085003FE7F0F8FCFF9FB1000023
:103740002DE9F041044647680D4605F0CCFA4FF0EC
:10375000200868B9244B1B7853B16426606804F0D4
:10376000BEFED0B9012005F0FAF8013EF6D1F4E72B
:10377000EFF31186314688F31288BFF36F8F6068CC
:1037800004F0ADFEA8B986F31188BFF36F8FEFE7A1
:1037900086F31188BFF36F8FDFE7EFF311863146B1
:1037A00088F31288BFF36F8F606804F098FE0028DA
:1037B000EED0BB691D706368BA691B680020C3F84E
:1037C00044250122C3F84825C3F82001D3F820413D
:1037D000C3F85801D3F858019A6081F31188BFF3F8
:1037E0006F8FBDE8F08100BF36250020F7B5054694
:1037F000002201210220FEF749FE0220FEF716FEFC
:103800006A6811681369C1F82435137D507D927D73
:1038100003431343C1F86C356E68D6E9004313F0D7
:1038200001034FD02F6907F1080005F0A9F8324BCA
:10383000984207D03148452104F078FB6FF004002E
:1038400003B0F0BD387A04F10C0204F5907105F074
:103850008DF8387A012707FA00F000F03DFF0823C1
:10386000C4F80035B369C4F844350023C4F84835BA
:10387000A760D4F85831002BFBD00021C4F8001504
:103880006B68DC6801AA204604F0D8FD002805DB3F
:10389000019B226819791868FFF780FE6A6813682F
:1038A0000821C3F80015117A51B9D269C3F834253B
:1038B0000122C3F83825C3F81011D3F810111A608B
:1038C0000020BDE70822C4F80025B269C4F84425E9
:1038D000C4F848350123A360D4F82031002BFBD075
:1038E0000023C4F82031D4F820310123E3604FF4E1
:1038F0008073C4F80433BCE70000AD0BE7B10000EF
:1039000070B5012383400E4ABFF35B8FDC4352E85E
:10391000001F01EA040542E80056002EF7D1BFF36C
:103920005B8F4FF4803282400648C0F80823BFF313
:103930005F8FBFF36F8F0B4214BF0120002070BD5B
:10394000F01100200010014070B40E49D1E900349C
:10395000D01AC31844F1000422F07F46C1E90034B4
:10396000A6F50013B3F5400F09D2074B1B681A0ADE
:103970001B069C19054B42F10005C3E9004570BCCC
:1039800002F0F4B930110020F411002038110020A9
:1039900011B3BFF35B8F0123104A834052E800CF7D
:1039A0004CEA030C42E800C10029F7D1BFF35B8F5A
:1039B0000B4A4FF480338340C2F80433094BBFF302
:1039C0005B8F1B68BFF35B8FC340DB0742BF064BB7
:1039D0004FF40032C3F80021704700BFF0110020FF
:1039E00000100140EC11002000E100E00D4B1868D0
:1039F000010A0006BFF35F8F0B4BD3F8043518188C
:103A000041F10001B3F5801F0AD2084BD3E900232E
:103A1000904271EB030303D210F1807041F1000179
:103A2000704700BFF4110020001001403811002041
:103A30002DE9F04F85B016461F469DF840A004467C
:103A4000FFF75EFF0190FFF7D1FFB04271EB070374
:103A500054D23E4B301A67EB0101984271F10001DC
:103A60004FD23B4B03EB0413D3E902239F4208BF21
:103A700096425ED037494FF4803804F1500508FA79
:103A800004F8AD00C1F848832046ADB204F058FDFB
:103A900026F07F4B05F1804504F5A87305F58835C0
:103AA000DC464FF003090293029A2CF07F4341F861
:103AB0002230C1F84483D1F80435274A6FF0020060
:103AC000C01A604420F07F40904232D9286868B123
:103AD000D1F804350393A3EB0B0020F07F40B0F541
:103AE000000F26D9204604F02BFD039BBAF1000FEE
:103AF00007D109EB030C09F10109D5E7BAF1000F71
:103B000009D06FF0150520460199FFF741FF2846BF
:103B100005B0BDE8F08F0123104ABFF35B8FA340CF
:103B200052E8000F184342E800010029F8D1BFF322
:103B30005B8F07490E98230101EB0412C8500F9BBD
:103B40005360C2E902670025DDE700BF0100800085
:103B50002011002000100140FDFF7F00EC1100202B
:103B60007FB51C4C1C4BC4F80833C4F848331B4BBE
:103B700000254FF0FF304FF0FF31C4F80855C3E97E
:103B800002014FF48033C4F80433154B02264FF47E
:103B900000320121C4F804631120C3F880212A46B1
:103BA000FEF774FC1120FEF741FC0E4A0123A360CE
:103BB000236013600C4B0D4A0093CDE9015500239F
:103BC0002846FFF735FF3046FEF738FE284604B09A
:103BD00070BD00BF0010014003000F002011002045
:103BE00000E100E0F011002049390000FFFF7F00F4
:103BF0002DE9F7432F4CD4F8043399070BD5D4F8AB
:103C0000043143B12C4A0023C4F80431D4F8043100
:103C1000136801331360D4F80433DA0329D5BFF3F2
:103C20005B8F264B53E8002F22F0010143E8001080
:103C30000028F7D1BFF35B8FD30702D4D4F840310B
:103C4000BBB10025C4F84051D4F84031FFF7CEFE97
:103C5000EFF31182202383F31288BFF36F8F184B89
:103C6000D3E90267B042B94106D282F31188BFF3AB
:103C70006F8F03B0BDE8F0834FF0FF384FF0FF398E
:103C8000C3E90289D3E900101D604FF48033C4F802
:103C90004833C4F84051D4F8403182F31188BFF35F
:103CA0006F8F0029E5D0009032463B462846884772
:103CB000DFE700BF00100140F4110020EC110020EC
:103CC0002011002030B5431C124C85B005D0844231
:103CD000A8BF0446012CB8BF0124FFF787FE0E4B96
:103CE0000C4DD3E90013401AB0F5000F10D2221882
:103CF000AA4228BF2A4652184FF0000007490091F7
:103D0000CDE9010043F10003FFF792FE05B030BD9D
:103D10002A46F0E7FFFF7F003011002049390000FC
:103D200008B5FFF763FE024B1B68C01A08BD00BF51
:103D30003011002010B5084C012363601120FEF7FC
:103D400083FB064BC4F80833C4F84833044B4FF4E4
:103D50000032C3F8802110BD0010014003000F00A5
:103D600000E100E030B50C490C4D0B680246002420
:103D700005EB0310D0F80808C0B218B904B10B6005
:103D8000002007E00133072B4FF00104F0D90B604E
:103D90006FF01B00136030BDF811002000E00140FF
:103DA0007FB505464FF480514FF4504004F013FCAA
:103DB000044628B14C4804B0BDE8704003F0D1BFC0
:103DC000A9694A484A4E03F0CCFF4A4B4A48C3F817
:103DD0000045D3F80C250092D3F814250192D3F8AE
:103DE00008250292D3F810350393694651F8043B35
:103DF0005A1C0FD003F01F025B0969D0012B6AD156
:103E0000334603EB8203D3F80027024042F002025C
:103E1000C3F800270134042CE8D14FF080424FF062
:103E2000FF33C2F80833BFF36F8F72B6334AC2F85C
:103E30008030C2F88430C2F88830C2F88C30C2F8C2
:103E40009030C2F89430C2F89830C2F89C30C2F872
:103E50008031C2F88431C2F88831C2F88C31C2F89E
:103E60009031C2F89431C2F89831C2F89C314FF0C9
:103E7000E02300221A61D3F8042D42F00072C3F847
:103E8000042DD3F8242D22F4E02203F550635A6266
:103E9000EFF31482920707D5EFF3148222F00202A7
:103EA00082F31488BFF36F8FBFF34F8FBFF36F8F11
:103EB000AA699A6001212846AC6900F003FA80B132
:103EC000236883F30888002383F30988636898478D
:103ED0004FF0A04395E702F5E072002353F822303B
:103EE000FFDE04B070BD00BF29B2000051B2000077
:103EF0000003005000200040F0F8FCFF00E100E06B
:103F00001FB5084A044607CA01AB83E807000C2224
:103F10001946204604F0EFFE00280CBF2046002082
:103F200004B010BDCC91000070B5064E05460024CB
:103F300056F8040B2844FFF7E3FF10B90134052CB1
:103F4000F6D170BD7896000073B50B460246064662
:103F50000D461648492103F0E9FF0DF10601012045
:103F600004F0B1FC044628B102461148452103F093
:103F7000DDFF08E0BDF8063043B90E48452103F0E7
:103F8000D5FF6FF01504204602B070BDB5FA85F17B
:103F9000490941EA460189B2012004F0ADFC04461A
:103FA0000028F0D0024645210348E0E763B2000054
:103FB0009CB20000E5B2000011B300002DE9F04F03
:103FC000824689B01046D76816690D461446994650
:103FD000FFF796FF20B98248452103F0A7FF38E09C
:103FE000A369534502D07F484521F6E7B9F1000F98
:103FF00004D19D4202D07C484521EEE72846FFF7D8
:1040000093FF844202D079484521E6E7226A784B43
:104010009A4204D07748452103F088FF19E00DF15A
:104020000E0004F07AFB024650B17348452103F0BC
:104030007DFF7248492103F079FF0023ADF80E306F
:104040006269BDF80E309A4207D26D48452103F0EF
:104050006DFF002009B0BDE8F08FD4F81080B8F5EE
:10406000C83F02D8E368984502D266484521B4E7C4
:10407000E7190AD2731908D2A54206D8A34204D977
:10408000013FBD4201D8BB4202D85F484521A4E7A9
:1040900016EB0A06E3692CBF012700270CD2534513
:1040A0000AD3B34208D22B44A3EB0A035B685345FF
:1040B00005D25648452190E7554845218DE7B34242
:1040C000F7D208EB0506534B06F1050B0DF1100A6C
:1040D00093E807008AE807000C225146304604F0B6
:1040E0000AFE4C4B08B9002E6ED101365E45EFD169
:1040F0004948452171E7494845216EE704F095FBA1
:10410000044648B102464521454803F00FFF71348B
:104110009FD14448492160E7434A444BB9F1000F1D
:104120000CBF93469B4604F07CFB844202D340487C
:10413000452152E75146204604F0A0FB10280246D4
:104140000CD010F1160F06D13A482246492103F04F
:10415000EDFE0134E7E7384845215DE73748224660
:10416000492103F0E3FE9DF81F309DF810203448EC
:10417000492103F0DBFE06F17002CDF800802B46EA
:10418000514606F13000D847024690B92D4DBC4249
:1041900005D12D48492103F0C9FE01205AE73A46CE
:1041A0004921284603F0C2FE384600F079F801376D
:1041B000EDE710F1650F04D12448572103F0B6FE56
:1041C000C7E72348452127E7F268A3699A4292D1BD
:1041D00004F05CFA0246002890D01E4845211BE7F7
:1041E0004DB3000070B30000A6B30000D6B30000CA
:1041F000FFFF029102B400002CB4000056B400008E
:104200009CB40000DFB4000011B5000070B50000E0
:1042100041B50000D8910000A2B70000A0B5000091
:10422000F9B5000020B600009B86000073860000F0
:104230007FB7000058B6000084B60000AAB60000A0
:10424000D3B60000ECB6000006B7000028B70000A7
:1042500050B70000D6B500004FF450431B6B984296
:1042600016D2142343434DF23402D1580A4A0B4B61
:1042700042EA00628A4243EA006309D08B4209D0D5
:10428000002383F31188BFF36F8F0423184602DFE6
:1042900000207047012070470000FA50FFFFFA50DD
:1042A00010B50446FFF7D8FF48B114204DF234038F
:1042B00000FB04300249BDE8104000F031BF10BDE2
:1042C0000000FFFF2DE9F04F87B00646009198B33C
:1042D00004F02EFB00270446B36BBB424ED9DFF837
:1042E000B0A04FF000085AF8043BDFF8A8B04FF038
:1042F00000095BF8045B01931D44274B93E807001A
:1043000003AB83E8070019460C22284604F0F3FCAF
:10431000019B00B9A5B909F10109B9F1050FE8D16F
:104320001E4B08F101089845DDD3009B13B1636A69
:1043300000221A60236A3BB3002007B0BDE8F08F6B
:104340002B6A174A9342EBD1AE42E9D0696B05F173
:104350003C038842E4D025691A6995420AD19A69DA
:10436000A569954206D8E569954203D962695D69F8
:10437000AA4305D0DA6801301344EAE70120DCE7FC
:10438000009A0AB1626A1360E36801371C44A3E72C
:1043900038B900008C960000E49100000100000094
:1043A000FFFF02912DE9F0432248234FDFF88C9064
:1043B00085B004F0BDFA1F4BD3F8388004460026C0
:1043C000B04503D8002005B0BDE8F08397E80700AA
:1043D000636A1D6801AB83E807000C221946284672
:1043E00004F089FC78B975B122692B699A420AD127
:1043F000AB69A2699A4206D8E2699A4203D9636915
:104400006A6993430CD0256A75B10D4803F0A9FC85
:10441000002383F31188BFF36F8F0423184602DF54
:10442000E36801361C44CBE7484603F09AFC636A14
:104430001D60F5E700020000F09100000DB80000DB
:10444000E4B70000026A044B9A4203D103492030CA
:1044500000F066BE704700BFFFFF02910000FFFF43
:104460004FF08053D3F83021082A06D1D3F83431E5
:10447000052B02D8024AD05C70470020704700BF6D
:1044800046B80000024AD2F80034002BFBD0704737
:1044900000E0014010B54FF08053D3F83021082AD6
:1044A0004ED14FF080420021C2F80C11C2F8101119
:1044B000C2F8381502F54042D3F80414C2F82015AA
:1044C000D3F80814C2F82415D3F80C14C2F8281530
:1044D000D3F81014C2F82C15D3F81414C2F8301500
:1044E000D3F81814C2F83415D3F81C14C2F84015C8
:1044F000D3F82014C2F84415D3F82414C2F8481590
:10450000D3F82814C2F84C15D3F82C14C2F850155F
:10451000D3F83014C2F85415D3F83414C2F8601527
:10452000D3F83814C2F86415D3F83C14C2F86815EF
:10453000D3F84014C2F86C15D3F84434C2F870357F
:10454000FFF78EFF18B13A4B3A4AC3F88C26FFF7B3
:1045500087FF18B1384BFB22C3F81825FFF780FFFF
:1045600070B14FF080414FF08053D1F8E42ED3F872
:10457000583222F00F0203F00F031343C1F8E43E58
:10458000FFF76EFF20B12D4B4FF40072C3F84026A9
:104590004FF08053D3F83031082B1AD14FF08043BD
:1045A000D3F80024D20744BF6FF00102C3F80024FF
:1045B0004FF08053D3F83431052B02D8204AD35C16
:1045C0003BB14FF01023D3F808224FF08043C3F8DB
:1045D00058254FF01023D3F80022002A03DBD3F82C
:1045E0000432002B22DA174901234FF01020C1F8C2
:1045F00004351224FFF746FFC0F80042FFF742FFE0
:10460000C0F80442FFF73EFF0023C1F80435FFF76E
:1046100039FFBFF34F8F0C490C4BCA6802F4E062BC
:104620001343CB60BFF34F8F00BFFDE710BD00BF4A
:10463000005000404881030000F00040009002401C
:1046400040B8000000E0014000ED00E00400FA0581
:1046500030B50468CCB1BFF35B8FB4FA84F3C3F117
:104660001F03DBB201229A4024EA020250E8005FF5
:10467000A54204D140E8002CBCF1000FF6D1BFF3F5
:104680005B8FE6D102480B7030BD0248FCE700BFEB
:104690000000AD0B0200AD0B10B50368CB40DB078B
:1046A00014D401238B400268BFF35B8F43EA0201FD
:1046B00050E8004F944204D140E8001CBCF1000FC8
:1046C000F6D1BFF35B8FEED1014810BD0148FCE786
:1046D0000000AD0B0400AD0B014BC3F8040570479F
:1046E00000F00140F7B5044618B1012823D003B00B
:1046F000F0BD4FF080430222C3F808230122DA60A4
:10470000C3F80401D3F80431064601238DF80730BD
:1047100042F210754FF08047D4B1012CE7D1D7F8A1
:104720000C3403F48033AEBB83B3012004F017F9DB
:10473000013DF4D12AE04FF080430022C3F8080382
:104740005860C3F80021D3F800310DF10706DCE70B
:10475000D7F8183403F480333EB9002BC7D00120BA
:1047600004F0FDF8013DF3D1C1E7D7F8182402F0B9
:1047700003023260002BBAD09DF80700012803D154
:1047800004F0EDF8013DC7D1012CB0D1054B00225A
:104790005A71ACE7D7F80C2402F001023270002BFA
:1047A000EAD1F3E7FC110020044B1A7922B9012267
:1047B00018609A800248704702487047FC11002038
:1047C0000000AD0B0C00AD0B08B5074B1B682BB1FF
:1047D0000020FDF74DFE08B9FDF728FE4FF080439D
:1047E0000222C3F8182508BDFC11002010B510B135
:1047F000012842D010BD4FF08043D3F81814D3F8ED
:104800001824C9031FD502F00303022B02D0002095
:10481000FFF768FF4FF080430220C3F81805082215
:104820004FF4827303F180430021196002F180424A
:104830001C6801241460164A126812B34FF08043BA
:10484000C3F80403D6E7D3F81424D207E2D5D3F88B
:104850001C2402F00302022AD9D10D49096811B1C2
:10486000C3F80423C6E7D3F80421002AFBD00022B2
:10487000C3F80421D3F80431BCE700224FF480735D
:10488000D0E71A68002AFCD019601B68B2E700BFA5
:10489000FC11002010B54FF08043D3F800216AB11D
:1048A0000022C3F80021D3F800210122C3F8082315
:1048B0000C4B587910B95A711B6898474FF08043D8
:1048C000D3F804216AB10022C3F80421D3F80421EB
:1048D0000222C3F80823034BBDE810401B680120E7
:1048E000184710BDFC110020036803F01F025B098C
:1048F000026004D0012B034818BF002070474FF01E
:10490000A040704700030050034A430900F01F0015
:10491000D35C1844C0B270474CB8000070B505466F
:10492000FFF7F2FF0C4C08300E4634F81030DA0571
:1049300008D5C3F3432304EBC302284654F83330AD
:1049400052689847A3682BB1E26831462846BDE813
:104950007040184770BD00BF1810002008B5FFF761
:10496000D3FF034B083033F81000400B08BD00BFE5
:104970001810002008B5FFF7C7FF034B083033F8C5
:104980001000C0F3400008BD1810002008B5FFF764
:10499000BBFF034B083033F81000C0F3401008BDD4
:1049A00018100020034611F0010010B5CCB20DD153
:1049B000A207C4F3400012D5094AD2F82005586076
:1049C000C2F82005003818BF012008E04FF0A041D0
:1049D000D1F820251A60C1F82025002AE8D010BDA2
:1049E0000003005010B5FFF78FFF124A083032F86D
:1049F0001030D9051CD5C3F3432123F4F85322F812
:104A0000103002F10E04002034F8023F13F4807FCE
:104A100003D0C3F3432399420AD001303028F3D1A5
:104A2000002342F831300448BDE81040FFF734BE9F
:104A300010BD00BF1810002090100020F0B50546F2
:104A400000200446012607468C420BD1114BD3F8B7
:104A50007C2132B10022C3F87C21D3F87C3140F0B4
:104A60000040F0BDE3B29B0003F580729B0806FA9C
:104A700003F31D420BD002F1804202F5C042D2F88E
:104A800000C0BCF1000F02D0176012681843013457
:104A9000DAE700BF00600040F7B506460846FFF7BA
:104AA00033FF194F00F108050C4637F81530DB07C6
:104AB00027D5304603F0C0FF2046FFF767FF40B11F
:104AC0002046FFF74BFF316800F5A270002341F844
:104AD00020302046FFF786FF002301A827F8153075
:104AE0000194FFF701FF019B00EB8300074BD0F817
:104AF0000027134043F00203C0F80037044803B016
:104B0000F0BD0448FBE700BF18100020F0F8FCFFE0
:104B10000000AD0B0400AD0B2DE9FF4116468046A9
:104B20000846FFF7F1FE0D463168044609B32846F2
:104B3000FFF720FF18B12846FFF728FF10BB00231E
:104B4000CDE900338DF80E308DF80F300DF10F02E6
:104B50000B4628460DF10E0103F016FF474A04F1FB
:104B6000080132F8113023F0020343F0010322F868
:104B70001130736863B328461F785968FFF7FAFE4F
:104B800010B1D1B13E4826E03C4A04F1080032F8A9
:104B9000103023F02003DB04DB0C22F8103061B16D
:104BA000032FEFD87168496891F800C0D8F8001059
:104BB000A7B90CF5A27C41F82C70304A04F1080129
:104BC00032F8113023F01C0343EA870322F8113036
:104BD000B3684BBB2B4804B0BDE8F08101EB8C01FE
:104BE00043EA4C33D1F810E52EF0030EC1F810E57E
:104BF000D8F8001001EB8C0E43F02003DEF81015FE
:104C000022F8103021F44F3121F44071CEF8101504
:104C10002902DEF8108501F47C5141EA074141EA9E
:104C20000801CEF81015C8E7D3E900672846FFF75A
:104C3000D9FE002ECED0114DD5E90023964203D1E6
:104C40009F4201D1002209E00F480DF10F01FFF74B
:104C5000FFFC0C4B9842BED19DF80F2045F8326006
:104C600005EBC20308345F6035F8143043EA422391
:104C700043F4807325F81430ACE700BF181000200F
:104C80000400AD0B0000AD0B901000202DE9F043A7
:104C90000C4685B08046204611461E46FFF734FE7E
:104CA000054629B32046FFF765FE18B92046FFF7F1
:104CB0006DFE18BB314F05F1080937F8193013F0B4
:104CC0001C0F02D04B78012B18D001238DF80F3028
:104CD0000023CDE900134A1C8B1C20460DF10F0167
:104CE00003F052FE37F8193043F0030327F8193068
:104CF000002E41D02046FFF73DFE18B9204805B0F0
:104D0000BDE8F08396F800C0D8F800301B4F0CF5D2
:104D1000A272002143F8221005F1080237F81210A0
:104D200021F02001C904C90C27F8121075781DB3B1
:104D3000D8F80000B67800EB8C002D04D0F81035C0
:104D400023F4991323F4F853C0F81035230203F425
:104D50007C5305F440353605D0F810E52B4306F4B6
:104D6000801641EA4C31334341F0200143EA0E03FF
:104D700027F81210C0F810350248C0E718100020BC
:104D80000400AD0B0000AD0B014BC3E902127047EC
:104D90001810002010B508461446FFF7F7FD50B173
:104DA0000846FFF7B1FD054B083033F810300448D2
:104DB0005B0B237010BD0348FCE700BF18100020F8
:104DC0000000AD0B0400AD0B70B5164D95F880409A
:104DD00006462CBB2146602205F1100004F026F89F
:104DE00030682E6F21468E420ED10023C0F87C31F0
:104DF000D0F87C3140F30730FDF718FB01230A4857
:104E000085F88030AB6770BDCBB29B0003F5807234
:104E10007C2B08BF845001F1010108BF8358E2E7F1
:104E20000248F0E7181000200000AD0B0C00AD0B9D
:104E3000034B93F88000003818BF0120704700BF73
:104E4000181000200148FFF727BC00BF8C1000207D
:104E50000148FFF7FDBB00BF8C10002073B503684D
:104E60001646D3F80423002AA8BF4FF00042054697
:104E7000A8BFC3F8042308460C46FFF787FD00B31C
:104E80000846FFF777FD0146D8B92046FFF766FDD3
:104E900004B2A40004F58072034628688150296892
:104EA00082582144D1F8102542F00102C1F81025A2
:104EB0002EB12968012202FA03F3C1F8043302B0CB
:104EC00070BD2046FFF720FD0F4B083033F810303F
:104ED000C3F38203042B12D0052B12D001A8019436
:104EE000FFF702FD019AD0F81035D34003F001031B
:104EF000991C204602B0BDE8704003F08EBD03212E
:104F0000F7E70221F5E700BF181000202DE9F04F68
:104F1000694BDFF8A881D3F80403D8F87010C0B249
:104F200089B040F00040FFF789FD051E2FDAC24628
:104F300000235AF87C1F06A8CDE90633FFF732FD9F
:104F40005F4B01930DF118094FF0000B019A12F815
:104F5000013B0192DA0803F007031AF8022022FA53
:104F600003F3DA071CD409F10409BBF1000F14D0D4
:104F7000D8F870104FF00040FFF760FDD8F87C10B3
:104F800006A8FFF70FFD0028DAD125F0004501241F
:104F9000002D79D109B0BDE8F08F4FF0010BD5E7B6
:104FA000484B5B440293D9F800100029DBD0029BE8
:104FB00091FAA1F11C78B1FA81F141EA441420463A
:104FC000FFF7A2FC0830059438F81070C808BB0839
:104FD00019F80020039301F00701012303FA01F1FE
:104FE00022EA010209F8002005A8FFF77DFC059AD6
:104FF000039B02F5E072C7F3820650F822205B079C
:105000003746C2F3014224D520463946D6B2FFF7CF
:1050100085FC05A80594FFF767FC059B03F5E07385
:1050200050F82330C3F301439E4207D100212046AC
:1050300003F0F3FC3146204603F0EFFC05A805948D
:10504000FFF752FC059B012202FA03F3C0F820355A
:10505000A9E7022A0CD10321204603F0DEFC06F06A
:105060000503012BEAD139462046FFF757FCE5E757
:1050700002212046039203F0D0FC032EF3D0039AC2
:10508000032ADBD1022EEDE795FAA5F3B3FA83F3F9
:1050900004FA03F29B0003F1804303F5C04325EAC1
:1050A0000205D3F81005D3F81015C0F30520C1F39D
:1050B0000141FFF733FC6BE700600040181000204F
:1050C0005CB800005CB80000044AD2F80034DB078A
:1050D000FBD50160BFF35F8F704700BF00E0014068
:1050E0004FF080531A69B0FBF2F302FB130373B95C
:1050F000084B0222C3F80425C3F80805D3F800249E
:10510000D207FBD500220448C3F8042570470348A2
:10511000704700BF00E001400000AD0B0A00AD0B7E
:1051200010B5054C0123C4F80435FFF7CDFF00236B
:10513000C4F8043510BD00BF00E00140014601483D
:10514000FFF786BA9C10002001238340C3F31302AB
:1051500001462AB1034A0448C2F80835FFF79CBA51
:105160000248704700F001409C1000200400AD0B85
:1051700070B5044615460E46B1B1AAB1012383406D
:10518000C3F3130393B10B4B0146186803F0E9FB1B
:1051900070B1E00000F1804000F5F830C0F8106513
:1051A000C0F81455044870BD0448FCE70448FAE709
:1051B0000448F8E79C1000200000AD0B0900AD0B7F
:1051C0000400AD0B0500AD0B38B5084B04460D4689
:1051D0000146186803F0C5FB30B1054B054804F5DE
:1051E000117443F8245038BD0348FCE79C1000209C
:1051F00000F001400000AD0B0500AD0B10B501241F
:105200008440C4F31303014623B9064B0648C3F890
:10521000044510BD054B186803F0A3FB0028F4D12A
:105220000348F6E700F001400000AD0B9C100020A1
:105230000500AD0B10B501248440C4F313030146EF
:1052400023B9064B0648C3F8084510BD054B18683E
:1052500003F087FB0028F4D10348F6E700F0014093
:105260000000AD0B9C1000200500AD0B70B5104D7B
:105270006C6B9CB14FF47A735C430A23B4FBF3F478
:105280000C4ED6F8003163B995F839304BB90A2085
:1052900003F065FB013CF4D1074870BD4CF250347B
:1052A000EEE795F83930002BF6D10448F5E700BF5A
:1052B00004120020009002400700AD0B0000AD0B6F
:1052C000094B10B500220124C3F80045C3F80021A2
:1052D0001C6038B1FFF7CAFF044B984203D1044B5E
:1052E00083F83840014810BD009002400000AD0B2B
:1052F0000412002070B500F06044B4F1005F5DD18D
:1053000084075BD12F4C94F83050012D05D09D427D
:1053100056D194F83850002D52D02B4D022B0BBF94
:10532000C5F81025C5F80425C5F81405C5F8080505
:105330000CBFC5F81815C5F80C154FF0000684F819
:10534000396026680CBF08250425BEB994F83830AA
:105350006BB11D4B05F1804505F524350022C3F8DE
:10536000002101232B60BDE87040FFF77FBF0120C3
:10537000FFF7A6FF154B9842EBD170BDA66826B18A
:10538000E0606161E2611248F7E7A2610E4A84F8C9
:1053900030300123A0602161C2F80061C2F80433FB
:1053A00094F8382002F0FF0012B9FFF789FFEAE70E
:1053B00005F1804505F524352B60E4E70548DCE779
:1053C0000548DAE704120020009002400700AD0B08
:1053D0000000AD0B0A00AD0B0B00AD0B084B9A683B
:1053E0005A621A699A629A69DA62DA689A6032B124
:1053F0005A691A61DA699A610022DA607047704767
:105400000412002000F01F0340090FD0012810D122
:105410000B4A02EB83020B4BD2F80007034043EA2E
:10542000012343F00203C2F8003770474FF0A04257
:10543000EFE7002203F5E07352F82330FFDE00BFF0
:1054400000030050F0F8FCFF10B50E4B0238D3F803
:105450003C26D3F83836072813D8DFE800F0110FC0
:105460000D0B0A080604100EC871100C8871100A82
:1054700048710A711A0ECA701A0C8A701A0A4A7098
:105480000B7010BD00900240023807281FD8DFE8DB
:1054900000F02927251123211F04CB791B068A79C7
:1054A00043EA02434A7943EA02230A7913430E4A44
:1054B000C2F83C36CB781B068A7843EA02434A7826
:1054C00043EA02230A781343074AC2F83836704782
:1054D0000023E4E70023E5E70023E6E70023EBE70A
:1054E0000023ECE70023EDE7009002400268154B33
:1054F000FF2A08BF4FF0FF32C3F824254268FF2A75
:1055000008BF4FF0FF32C3F828258268FF2A08BF82
:105510004FF0FF32C3F83025C268FF2A08BF4FF0B2
:10552000FF32C3F834250269FF2A08BF4FF0FF326B
:10553000C3F838254269FF2A08BF4FF0FF32C3F88D
:105540003C257047009002400A4B002283F8382027
:10555000094B01214FF08050C3F808131961D0F8AE
:105560003001082808BF5965C3F80025C3F8002199
:10557000704700BF041200200090024030B5194D62
:105580000FCD8DB006AC0FC495E8030084E803008E
:105590001549D1F82435DBB20093D1F82835DBB2B8
:1055A0000193D1F83035DBB20293D1F83435DBB258
:1055B0000393D1F83835DBB20493D1F83C3506A813
:1055C000DBB20593FFF792FF0023C1F800310123FE
:1055D0000B60D1F80031002BFBD06846FFF786FF47
:1055E0000DB030BDFC9100000090024070B590F805
:1055F0002930044613B190F82A204ABB6068FF287E
:1056000060D0A268FF2A5DD0E268FF2A5AD02269E2
:10561000FF2A57D0B3B90321FFF7F4FEA068FFF7C4
:10562000F1FEE068FFF7EEFE2069FFF7EBFE606930
:10563000FF2801D0FFF7E6FEA069FF2802D0032172
:10564000FFF7E0FE94F82A3013B9201DFFF74EFF54
:105650001D4E636A73631D4D94F8293086F83A3005
:105660000123C5F80833FFF789FF2368C5F84035E3
:10567000A37F617F227F9B0143EAC1031343E27F43
:1056800043EAC213C5F84435D5F8002694F8203013
:1056900022F07F4222F0FF02134394F8212043EAD4
:1056A000026394F8222043EA426394F8232043EAF9
:1056B0000273C5F80036336813B12920FCF7B6FE33
:1056C000034870BD0348FCE704120020009002402C
:1056D0000000AD0B0400AD0B38B50C4C94F8305005
:1056E00095B9C4E9001248B90023C4E90233012284
:1056F000074884F8302084F8383038BDFFF776FF4B
:10570000034B9842F9D1EFE70248F6E70412002074
:105710000000AD0B0C00AD0B2DE9F843DFF89090C5
:10572000074699F830000128884614463DD199F87B
:105730003830204E6BB3204D0123C5F80833FFF7F6
:105740001DFFB8F1000F2BD14FF0000889F8398008
:10575000C5F80081BB787A781B0343EA02233A78C4
:105760001343FA7843EA42333A7943EA82337A7947
:1057700043EAC233C5F83436FFF778FDB0420CD0A7
:10578000C5F800811CB178782146FFF75DFE0B4813
:1057900004E0FFF795FDB042CDD10648BDE8F8839F
:1057A00078784146FFF770FECEE70548F6E700BF80
:1057B000041200200700AD0B009002400000AD0B6A
:1057C0000B00AD0B034B93F838300BB9FFF778BDE6
:1057D00001487047041200200C00AD0B08B5054BC2
:1057E00093F83030012B03D1FFF7AEFE024808BD1D
:1057F0000248FCE7041200200000AD0B0B00AD0BCB
:10580000034B93F83000003818BF0120704700BFE9
:105810000412002038B511F0030539D11E4B1A6867
:10582000D2B193F83040012C34D11C4AC2F81C1577
:105830000421C2F8200583F8395083F83010C2F8EB
:105840000051C2F8044393F8383003F0FF00EBB97D
:10585000FFF736FD124818E0104CC4F81C15C4F8C8
:10586000200583F8392093F8383043B10023C4F879
:1058700000310123E360BDE83840FFF7F7BC0120A9
:10588000FFF71EFD074B9842F0D138BDD460E1E729
:105890000548FAE70548F8E70412002000900240A6
:1058A0000000AD0B0700AD0B0A00AD0B0B00AD0BFC
:1058B00010B5224BD3F8002192B1214C0022C3F83D
:1058C000002194F8381094F8302071B90121032A8E
:1058D00084F8381005D0042A05D0022A00D1996036
:1058E00010BD5960FCE7D960FAE7032A19D0042AF1
:1058F00019D0022A04D1012384F82030FFF76EFD6D
:10590000A36813B9012384F8303094F8393003F0D8
:10591000FF0013B9D4E900319847002384F8203000
:10592000DEE70223E8E7032284F82020D3F81C25D1
:105930006262D3F8203584F82830E1E70090024015
:105940000412002070B51D4A0C68B2FBF4F304FB8E
:1059500013258DBB94422FD85C1E1C402CD1B3F56F
:10596000007F29D802684D79D2F80465097926F0BC
:10597000030601F003013143C2F80415D2F80815FB
:1059800093FAA3F321F0030105F00305B3FA83F3BF
:105990002943C2F80815C2F810350068402300F505
:1059A0008072D450D1580433582BFAD140F30730C9
:1059B000FCF73CFD024870BD0248FCE70024F400FF
:1059C0000000AD0B0400AD0BF8B506790D4C0C25AD
:1059D0007543671997F808C0BCF1000F10D16251E8
:1059E00061B18B687B60FFF7ADFF0C2303FB0644BE
:1059F000054BC21A534253412372F8BD0248F4E7E3
:105A00000248FAE7401200200000AD0B0C00AD0B7D
:105A1000036801221A600279034B0C2101FB023357
:105A200002221A72704700BF401200200368012250
:105A30001A610179024B0C2000FB01331A72704786
:105A40004012002038B50446006840F30730FCF7E8
:105A5000FBFC23680025D3F80022C3F8005223681A
:105A60004FF0FF32C3F808232046FFF7DFFF22790B
:105A7000024B0C2101FB02331D7238BD4012002085
:105A800008B5144BA8220021184603F0CFF90322D1
:105A9000026111494261114A8161C26140F6487256
:105AA0000262002282624262C26201660C49416661
:105AB0001021816603460267C2664267BFF35F8FAB
:105AC000084911F8010D98540132102AF9D1BFF399
:105AD0005F8F08BD580F00205EB800001000002046
