:020000041200E8
:20D0280000E000000070020001000000FFFFFA50C94608C3474B715C416EE76DB3414B765C
:20D048000100010001001400FFFFFFFFFFFFFFFFFFFFFFFFFFFFFFFFFFFFFFFFFFFFFFFFC9
:10D06800FFFFFFFFFFFFFFFFFFFFFFFFFFFFFFFFC8
:20E000003DB8F3960000000000020000D8670100000000000100000011000000000000002E
:20E02000FFFFFFFFFFFFFFFFFFFFFFFFFFFFFFFFFFFFFFFFFFFFFFFFFFFFFFFFFFFFFFFF00
:20E04000FFFFFFFFFFFFFFFFFFFFFFFFFFFFFFFFFFFFFFFFFFFFFFFFFFFFFFFFFFFFFFFFE0
:20E06000FFFFFFFFFFFFFFFFFFFFFFFFFFFFFFFFFFFFFFFFFFFFFFFFFFFFFFFFFFFFFFFFC0
:20E08000FFFFFFFFFFFFFFFFFFFFFFFFFFFFFFFFFFFFFFFFFFFFFFFFFFFFFFFFFFFFFFFFA0
:20E0A000FFFFFFFFFFFFFFFFFFFFFFFFFFFFFFFFFFFFFFFFFFFFFFFFFFFFFFFFFFFFFFFF80
:20E0C000FFFFFFFFFFFFFFFFFFFFFFFFFFFFFFFFFFFFFFFFFFFFFFFFFFFFFFFFFFFFFFFF60
:20E0E000FFFFFFFFFFFFFFFFFFFFFFFFFFFFFFFFFFFFFFFFFFFFFFFFFFFFFFFFFFFFFFFF40
:20E10000FFFFFFFFFFFFFFFFFFFFFFFFFFFFFFFFFFFFFFFFFFFFFFFFFFFFFFFFFFFFFFFF1F
:20E12000FFFFFFFFFFFFFFFFFFFFFFFFFFFFFFFFFFFFFFFFFFFFFFFFFFFFFFFFFFFFFFFFFF
:20E14000FFFFFFFFFFFFFFFFFFFFFFFFFFFFFFFFFFFFFFFFFFFFFFFFFFFFFFFFFFFFFFFFDF
:20E16000FFFFFFFFFFFFFFFFFFFFFFFFFFFFFFFFFFFFFFFFFFFFFFFFFFFFFFFFFFFFFFFFBF
:20E18000FFFFFFFFFFFFFFFFFFFFFFFFFFFFFFFFFFFFFFFFFFFFFFFFFFFFFFFFFFFFFFFF9F
:20E1A000FFFFFFFFFFFFFFFFFFFFFFFFFFFFFFFFFFFFFFFFFFFFFFFFFFFFFFFFFFFFFFFF7F
:20E1C000FFFFFFFFFFFFFFFFFFFFFFFFFFFFFFFFFFFFFFFFFFFFFFFFFFFFFFFFFFFFFFFF5F
:20E1E000FFFFFFFFFFFFFFFFFFFFFFFFFFFFFFFFFFFFFFFFFFFFFFFFFFFFFFFFFFFFFFFF3F
:20E20000C05700206919010065BC01004D1901004D1901004D1901004D1901000000000086
:20E22000000000000000000000000000491B01004D19010000000000151B01004D1901007A
:20E240003D1D01003D1D01003D1D01003D1D01003D1D01003D1D01003D1D01003D1D0100E6
:20E260003D1D01003D1D01003D1D01003D1D01003D1D01003D1D01003D1D01003D1D0100C6
:20E280003D1D01003D1D01003D1D01003D1D01003D1D01003D1D01003D1D01003D1D0100A6
:20E2A0003D1D01003D1D01003D1D01003D1D01003D1D01003D1D01003D1D01003D1D010086
:20E2C0003D1D01003D1D01003D1D01003D1D01003D1D01003D1D01003D1D01003D1D010066
:20E2E0003D1D01003D1D01003D1D01003D1D01003D1D01003D1D01003D1D01003D1D010046
:20E300000000000000000000000000000000000000000000000000000000000000000000FD
:20E320000000000000000000000000000000000000000000000000000000000000000000DD
:20E340000000000000000000000000000000000000000000000000000000000000000000BD
:20E3600000000000000000000000000000000000000000000000000000000000000000009D
:20E3800000000000000000000000000000000000000000000000000000000000000000007D
:20E3A00000000000000000000000000000000000000000000000000000000000000000005D
:20E3C00000000000000000000000000000000000000000000000000000000000000000003D
:20E3E00000000000000000000000000000000000000000000000000000000000000000001D
:20E40000DEE61E284CBBCE8F023400008C000000286701000100000000E2000000E2000077
:20E42000FFFF0291000000000000000000000000000000000000000002000000DEE61E283F
:20E44000EAAC45B80234000028000000031000000100000001000000FF00000001000000B6
:20E46000E05B0020DEE61E28EAAC45B8023400002800000002100000000000000100000033
:20E48000FF00000001000000E45B002053B94AB9002908BF00281CBF4FF0FF314FF0FF303E
:20E4A00000F00CB8ADF1080C6DE904CE00F049F8DDF804E0DDE9022304B07047704700BF18
:20E4C00030B44FF0000310F8014B11F8015B013A84EA050443EA0403F5D1A3F101034FEAE0
:20E4E000D37030BC704700BF4FF0000310F8012B013943EA0203F9D1A3F101034FEAD370B7
:20E50000704700BF30B411F8014B12F8015B6C4000F8014B013BF6D130BC7047430803F012
:20E520005533C01A00F03333800800F03330184400EB10104FF0013300F00F305843000E96
:20E5400070472DE9F04786468C460846089E154674461946002B40F0C2808542B2FA82F22D
:20E5600045D94AB1C2F1200300FA02FC2EFA03F3954043EA0C0C94404FEA154EA8B2BCFBFB
:20E58000FEF8230C0EFB18CC08FB00F943EA0C43994528D9EB1808F1FF3704D2994502D951
:20E5A000A8F102072B44A3EB0903A4B2B3FBFEFC0EFB1C330CFB00F044EA0344A04214D91F
:20E5C0002C190CF1FF3304D2A04202D9ACF102032C44241A43EA07401EB1D44000233460D6
:20E5E0007360BDE8F0874746DDE76346F1E792BB431B01214FEA154EAFB2B3FBFEFC200CBC
:20E600000EFB1C330CFB07F840EA0343984562D9EB180CF1FF3004D2984502D9ACF10200B8
:20E620002B44A3EB0803A4B2B3FBFEFC0EFB1C330CFB07F744EA0344A7424ED92C190CF1B0
:20E64000FF3304D2A74202D9ACF102032C44E41B43EA0040C0E7C2F1200320FA03F1954010
:20E6600090402EFA03F303434FEA154EAFB2B1FBFEFC0EFB1C10190C0CFB07F841EA0041F7
:20E68000884504FA02F422D969180CF1FF3004D2884502D9ACF102002944A1EB08019BB2A5
:20E6A000B1FBFEFC0EFB1C110CFB07F743EA01439F420ED9EB180CF1FF3104D29F4202D97E
:20E6C000ACF102012B44DB1B41EA004192E76046E3E76146F7E76046A3E76346B7E783421F
:20E6E00006D916B9002108467BE7C6E900E0F9E7B3FA83F78FB9834201D3724508D8BEEBE4
:20E70000020460EB030301209C461EB9002168E73846FAE7C6E9004CF8E7C7F1200CBB4040
:20E7200022FA0CF41C432EFA0CF120FA0CF3B84001434FEA14490EFA07F5B3FBF9F81FFA92
:20E7400084FE09FB18300B0C08FB0EFA43EA00439A4502FA07F240D9E31808F1FF3004D273
:20E760009A4502D9A8F102002344A3EB0A0389B2B3FBF9F809FB183308FB0EFE41EA03419B
:20E780008E452CD9611808F1FF3304D28E4502D9A8F10203214443EA0040A0FB0298A1EB48
:20E7A0000E014145CE46434602D306D14D4504D2B9EB020E68EB04030138002EA6D0B5EB88
:20E7C0000E0261EB030101FA0CFC22FA07F34CEA0303F940C6E9003198E74046C5E7434631
:20E7E000D9E70000043816281FD8DFE800F00C201E0E101E1E1E1E12141E1E1E16181E1E67
:20E800001E1E1E1A1C000B4870470B4870470B4870470B4870470B4870470B4870470B48D9
:20E8200070470B4870470B4870470B4870470B48704700BF7806020094060200980602007E
:20E84000A0060200A4060200AC060200BC060200D0060200E4060200FC0602008406020098
:20E8600070B582B004460E4615460023019301A9C0B202F0FDFB48B90198436833608368C8
:20E880002B600DF057F9012002B070BD03462246452102480DF037F90020F5E70407020009
:20E8A00010B584B00346094A0DF1040C07CA8CE807001C460C22614618460DF08AFB10B989
:20E8C000204604B010BD0024FAE700BFE005020038B505460024042C09D8064B53F8240079
:20E8E0002844FFF7DDFF034610B90134F3E70023184638BD7417020030B591B00446002323
:20E900000F930E930EAA0FA9FFF7AAFF30B30F98FFF7DEFF054658B32022002106A80DF0E4
:20E92000ACFB06A920460BF0F9FD58B32046FFF759FF03469DF82C209DF82D10BDF82E008C
:20E940006D6904950C9D03950290019100922246492111480DF0D7F811B030BD2046FFF750
:20E9600041FF0346224645210C480DF0CCF8F3E72046FFF737FF03462246452108480DF05B
:20E98000C2F8E9E72046FFF72DFF03462246452104480DF0B8F8DFE7D80702003007020075
:20E9A0006C070200A007020030B585B00446FFF719FF054603462246492115480DF0A3F86C
:20E9C0000023039303A9E0B202F052FB60B9039B5868FFF77DFF80B106F014F903980DF04C
:20E9E000A9F8012005B030BD00902B462246452108480DF088F80020F4E72B4622464521DD
:20EA000005480DF080F803980DF094F80020E9E7200802004C0802006C07020070B586B0D0
:20EA2000B2F5C83F0CD013464FF4C83200923C4A45213C480DF067F80024204606B070BDEB
:20EA400006460D46014603A801F052F9039B002B64D003A801F092F90446B0F5C83F13D8E4
:20EA60000246314903A803F0F9FB031E1ADBA34222D000942A4A45212C480DF044F803A88F
:20EA800003F0D0FB0024D8E74FF4C83300930346234A452126480DF036F803A803F0C2FBF4
:20EAA0000024CAE71E4A452122480DF02CF803A803F0B8FB0024C0E71B48FFF709FF70B18A
:20EAC0008069431BB3F5C83F14D2174919440EF0C3FE0446C0B103A803F0A4FBADE73346D9
:20EAE0000F4A452114480DF00EF803A803F09AFB0024A2E70A4A452110480DF004F803A862
:20EB000003F090FB002498E73346054A45210C480CF0F9FF03A803F085FB8EE700248CE734
:20EB2000541702007C080200006E022014090200B0080200EC080200540902008009020099
:20EB4000A809020070B505460E461446002203F09FFB78B93C222146284603F07FFB021E44
:20EB600010DB3C2A14D03C2345210E480CF0CBFF002006E00346324645210B480CF0C3FF41
:20EB8000002070BD452109480CF0BDFF0020F8E70C22074920460DF01CFA08B10020F0E713
:20EBA0000120EEE7300A0200D80902000C0A02004817020070B584B00D46014601A801F03A
:20EBC00097F8019BA3B10024042C0AD82A46094B53F8241001A8FFF7B5FF064610B90134A0
:20EBE000F2E7002601A803F01DFB304604B070BD0026FAE774170200F0B587B004460E46FD
:20EC000015461F4603A801F073F8039AE2B12022294603A803F022FB031E1BDB202B1FD13F
:20EC20002B68274A93422FD12B6913F0100F31D1EB682A89D1438B4232D9009232464521E1
:20EC400020480CF060FF12E006AB13E9070084E8070016E0324645211B480CF054FF06E06C
:20EC6000202200923246452118480CF04CFF03A80BF07AFD0023039306AB13E9070084E845
:20EC80000700204607B0F0BD3246452110480CF03AFFECE7324645210E480CF034FFE6E735
:20ECA00013443B6003A801F069F83B688342E3D9009303463246452107480CF024FFD6E75C
:20ECC0003DB8F396380B0200680A0200A00A0200EC0A0200140B02007C0B02002DE9F04168
:20ECE00092B005460E4690461C4600F0D7FF074618B9384612B0BDE8F0812A46492145485A
:20ED00000CF001FF202200210AA80DF0B6F90023099309AB0AAA294606A8FFF76DFF069BEF
:20ED20004BB3099A42452DD26CB10DF1280CBCE80F0020606160A260E360BCE80F002061F0
:20ED40006161A261E36100230393029301934FF480730093304B424606A90AA801F060F852
:20ED60002E4B1B68834214D02A4645212C480CF0CAFE0027BDE72A4645212A480CF0C3FE10
:20ED80000027B6E74346452127480CF0BCFE0027AFE7BDF830100022043106A803F078FA7F
:20EDA0000346D8B900230593042205A906A803F055FA031E19DB042B1ED1059AB24203D35E
:20EDC00006EB08039A4220D306EB080000903346452116480CF097FE00278AE72A464521A3
:20EDE00013480CF090FE002783E72A46452111480CF089FE00277CE7042200922A464521D3
:20EE00000D480CF080FE002773E706A803F00AFA6FE700BFCC0B0200D01600207C1B002052
:20EE2000580C0200EC0B02001C0C0200540D02007C0C0200C80C0200000D020070B584B01E
:20EE400004460D4600F02AFF064610B9304604B070BD00230393029302AA03A92846FFF786
:20EE6000FFFC064618B3029B0093039B2246492117480CF048FE029A03992046FFF7CEFDE0
:20EE80000546D0B12246492112480CF03CFE0023029A03992046FFF721FF06460028D5D153
:20EEA000224657210C480CF02EFE2E46CEE72A4645210A480CF027FEC8E7224645210848B7
:20EEC0000CF021FE204600F039FF2E46BEE700BFD00D0200480E0200800E0200940D020047
:20EEE000140E0200F0B5A7B004460F46154600F0D5FE064610B9304627B0F0BD002325934B
:20EF0000249324AA25A93846FFF7AAFC064618B3202200211CA80DF0B0F865B322464921B7
:20EF200082480CF0F0FD249A25992046FFF776FD0646B8B1224649217D480CF0E4FD1CABE3
:20EF4000249A25992046FFF7C9FE10BB2246572178480CF0D8FD1CE03A46452176480CF03A
:20EF6000D2FDC8E72246452174480CF0CCFD204600F0E4FEBFE71CAB249A25992046FFF747
:20EF8000ADFE0646002874D0224649216C480CF0BAFD3C2200210DA80DF06FF80DA9204621
:20EFA000FFF708FE064600286CD02598FFF790FC054600286FD04269492162480CF0A3FD59
:20EFC000129A492160480CF09EFD6B69129A93426FD82022002105A80DF04FF805A93846C0
:20EFE0000BF09CFA064600286CD0BDF82A300B9A019200939DF829309DF828204921534826
:20F000000CF081FDBDF88630229A019200939DF885309DF8842049214D480CF074FD0AA987
:20F0200021A80BF040FA051E66DB072F53D00D2F51D0002D60DB214602A800F059FE029B5B
:20F04000002B62D03846FFF7CDFB00903B462246492140480CF057FD02A9384600F0E2FB66
:20F0600000285CD102A80BF07FFB204600F066FE41E72246452138480CF045FD204600F058
:20F080005DFE38E72246452134480CF03CFD204600F054FE2FE73846FFF7A4FB03463A46DD
:20F0A00045212F480CF02FFD204600F047FE002621E745212B480CF026FD204600F03EFEF8
:20F0C000002618E73A46452127480CF01CFD204600F034FE0FE71123019300230093012282
:20F0E000492122480CF00FFD214921A80BF0DBF9A8429EDA05469CE745211E480CF003FD3A
:20F10000204600F01BFE0026F5E6224645211A480CF0F9FC204600F011FE0026EBE622469A
:20F12000492116480CF0EFFC9CE700BFCC0E0200F40E0200800E0200940D0200140E0200A7
:20F140004C0F0200980F0200C00F020078100200A01002005C110200280F0200700F020073
:20F160006C070200E40F020044100200C41002006C170200E810020040110200981102007C
:20F1800038B520BB01220D211A48FFF7ABFE054607211948FFF752FE044678B90022192164
:20F1A0001648FFF79FFE2843C4B2002212211448FFF798FE0443E4B2204638BD0E4A492146
:20F1C00010480CF0A0FC0720FFF7EEFBF4E7012207210948FFF786FE05460D210548FFF78C
:20F1E0002DFE04460028D9D0024A492106480CF08AFCE1E7B4110200DC110200941202001D
:20F20000B4120200041202004C120200F0B58DB007460C4615462022002104A80CF02DFF9B
:20F2200004A920460BF07AF90646C0B101248DF80040192112200BF056F901908DF8084092
:20F240000D2108460BF04FF903906B46FAB2294604A801F0B7F940B930460DB0F0BD224602
:20F26000452105480CF04FFCF6E7452103480CF04AFC0026F0E700BFCC120200081302000B
:20F2800030B585B005460C460023039303A9E0B201F0EEFE78B92A4649210E480CF033FC57
:20F2A000039A21462846FFF7B1FF60B103980CF041FC05B030BD00902346074A45210748B0
:20F2C0000CF021FCF5E72A46452105480CF01BFCECE700BF6813020024170200381302006A
:20F2E0009C13020008B5492104480CF00CFC4FF4FA700BF02DF9012001F0D0FDD81302004C
:20F3000010B584B001220292112301930023009349212B480CF0F7FB2A4B2B4A49212B482D
:20F320000CF0F1FB2A4B00932A4B2B4A49212B480CF0E9FB2A4B00932A4B2B4A49212B4867
:20F340000CF0E1FB2A4B00932A4B2B4A49212B480CF0D9FB00F03AFB07240094284B294A6C
:20F36000492129480CF0CFFB1222492127480CF0CAFB1922492126480CF0C5FB2046FFF7F3
:20F38000BBFA0D20FFF7B8FA1220FFF7B5FA1920FFF7B2FA00F024FC28B10020FFF7F0FE44
:20F3A00058B900F061FC07210020FFF769FF4FF4FA700BF0CDF804B010BDFFF793FF00BF14
:20F3C000F413020038140200702D020058140200E01402008814020094140200A0140200D5
:20F3E0003C150200F0140200F814020000150200A41502004C1502005C150200681502007F
:20F4000094060200B4060200B4150200E41502000C16020008B5084A492108480CF073FB77
:20F420004FF448334FF46042492105480CF06BFBC8200BF08DF808BD341602004C16020033
:20F440006816020008B504281CD8DFE800F003060C0F1500FFF754FF08BD0D4A49210D483B
:20F460000CF051FBF8E7FFF7D5FFF5E70A4A452108480CF048FBEFE7084A452105480CF09F
:20F4800042FBE9E70246452105480CF03CFBE3E7A81602004C160200B4160200CC16020093
:20F4A000D816020008B5572101480CF02CFB08BDF416020000B583B00022009213461021C4
:20F4C000024800F08BF803B05DF804FBAC17020008B5072107480BF05DF8021E03DB101EF3
:20F4E00018BF012008BD452103480CF00CFB0020F8E700BFC80202008817020008B5064964
:20F5000006480CF066F900F0B9F9FFF7D3FF00F025F8002008BD00BFB4170200C41702007D
:20F5200008B50246452106480CF0EDFAEFF31183202383F31288BFF36F8F032000F0DAF9D0
:20F54000D417020008B504460246452102480CF0DAFA2046FFF7E4FF0018020008B549216F
:20F560000C480CF0D0FA0C4810F091FA38B14FF4C0210A480BF048F8021E05DB08BD4521CD
:20F5800007480CF0C0FAF9E7452106480CF0BBFAF4E700BF2C180200C8020200C818020093
:20F5A0005C1802008418020038B5836805699C697CB112F4000F06D02D6801238B401D42F1
:20F5C00001D082F0C062044B134002F0B072A04738BD6FF05700FBE740000006F0B583B07E
:20F5E00004460D4617461E4600682379026849212A480CF088FA206810F049FA10B345F41E
:20F60000803120460BF033F820BB089B13F4800F32D020682179089AFFF7C6FF18BBBEB1D6
:20F62000B7B122682379126849211D480CF06BFA2279012393407E60BB60394620680BF005
:20F6400021F805E023681A68452116480CF05BFA03B0F0BD2268126800902379452112483A
:20F660000CF051FAF4E7226812680090237945210E480CF048FAEBE7206821794FF40012F5
:20F68000FFF792FF0028E3D02268126800902379452107480CF037FADAE700BFD01802008C
:20F6A00078190200F81802001419020040190200A019020038B505460C460CF057FA08B9C8
:20F6C000012038BD03466A682244452102480CF01AFA0020F5E700BFD81902002DE9F047D8
:20F6E00084B004460F46924698460023039303A9C0B201F0BDFC0646002830D10222002146
:20F70000384602F0C5FD384602F0DCFD814600221146384602F0BCFD4D46039A1378526890
:20F7200000924A46492138480CF0EDF90398826891451DD8BAF1000F40D000210CF031FA79
:20F7400000283BD003994B68896801900091224645212E480CF0D7F94FF000094FE0034644
:20F76000224645212A480CF0CEF94FF0000946E013464A46452127480CF0C5F94FF0000958
:20F780003DE003463246452123480CF0BCF94FF0000931E000940346324645211F480CF092
:20F7A000B2F94FF0000927E004EB09031C4A31460398C0478146F8B126442D1BD5B12C46BB
:20F7C000B5F5807F28BF4FF4807422461449384602F044FD0028D4DB8442DBD114F0030993
:20F7E000E2D0C9F104094A46FF210D4820440CF044FCD9E74FF0010903980CF09BF9484629
:20F8000004B0BDE8F08700BF081A0200841A020004070200501A0200D01A0200041B02000F
:20F82000D017002008B5024B0122FFF757FF08BDB5F6000010B582B00446006810F027F90F
:20F8400038B14FF4B01120460AF04EFF48B902B010BD226823791268452106480CF053F9F2
:20F86000F5E72268126800902379452102480CF04AF9ECE7541B0200701B020008B50248B5
:20F88000FFF7D8FF08BD00BF9C1B020008B50246092102480AF043FF08BD00BFB40202006D
:20F8A00070B5057885B90446FFF712FE064678B90123237049210B480CF025F949210A4851
:20F8C0000CF021F9354603E0FFF702FE054608B9284670BD492105480CF015F9044810F00A
:20F8E000D0F8F5E7A41B0200C81B0200001C0200A086010000B583B00546FFF7E9FD80F0FA
:20F900000100C0B28DF80700E8B900200AF014FF0120FFF7BBFF2B4810F0B3F80DF1070026
:20F92000FFF7BEFFA0B90020FFF7B0FF0024042C14D8244810F0A5F80DF10700FFF7B0FF03
:20F9400048B90134F3E749211F480CF0DCF8DCE7012001F0A3FA012001F0A0FA002403E0D1
:20F96000012001F09BFA0134A5421AD90120FFF78DFF144810F085F80DF10700FFF790FFCB
:20F980000028EDD10020FFF781FF0E4810F079F80DF10700FFF784FF0028E4D0012001F0B8
:20F9A0007DFA0024082CB3DC064810F06AF80DF10700FFF775FF08B90134F3E7012001F0E8
:20F9C0006DFA00BFA0860100C81B020038B52A4D2A4C641B2A46492129480CF094F8224661
:20F9E000492128480CF08FF8B5F1005F06D1C4F30B03C3B9B4F5805F28D138BD2522224965
:20FA000022480BF0E6FE4FF00052294620480BF0E0FEEFF31183202383F31288BFF36F8FE3
:20FA20000420FFF767FF2A22174918480BF0D1FE214618480BF0CDFEEFF31183202383F3B4
:20FA40001288BFF36F8F0420FFF754FF39220E490E480BF0BEFE4FF4805221460E480BF063
:20FA6000B8FEEFF31183202383F31288BFF36F8F0420FFF73FFF00BF0000002000100020F0
:20FA80002C1C0200501C0200741C0200D01C0200F41C0200381D02006C1D020000B5B3B022
:20FAA00002460B46C02102A802F076FA011E06DBBF2907D8002902DD02A80AF041FE33B02B
:20FAC0005DF804FB084B93E803000090ADF80410052269460DF1C2000CF0A0FA00238DF8E4
:20FAE000C730BF21E8E700BFAC1D020030B583B004464FF0FF324FF0FF33084809F014FC3A
:20FB0000074D0094074BDB68074A4FF48071284602F026FA284603B030BD00BF181400204A
:20FB2000781A002000100020B41D020008B5024809F07AFC08BD00BF1814002000B585B0E0
:20FB4000002303931F4A5369D26849211E480BF0DAFF03A91E2001F08BFA031E22DB039ACE
:20FB60005368D16809689268019200911E22492116480BF0C8FF1E22492115480BF0C3FF74
:20FB80000398826800210CF023F8021E11DB492110480BF0B8FF03980BF0CCFF012005B0F1
:20FBA0005DF804FB1E2245210B480BF0ACFF0020F5E7452109480BF0A6FF03980BF0BAFFB0
:20FBC0000020ECE700100020BC1D0200081E0200341E0200941E0200DC1D02006C1E020070
:20FBE00010B588B01B4802F03FFC00BB194CE268492119480BF087FF0023049305930693D7
:20FC0000079304A9E06802F0F5FB021E1BDB079B0293069B0193059B0093049B0D4AD2688E
:20FC200049210E480BF06FFF012008B010BD094A0090D3685269452109480BF064FFFFF711
:20FC40007DFF0020F1E7452106480BF05CFF0020EBE700BF00100020E81E0200201F0200FC
:20FC6000C41E0200081F020008B5094802F09EFC38B10346064AD268452106480BF043FF30
:20FC800008BD034BDA68492103480BF03CFFF7E700100020641F0200841F020010B50446DD
:20FCA000FFF724FF0F4902F067FB10F1020F14D020B90C4B1B784BB901240FE003462246FD
:20FCC000452109480BF01FFF002407E02246452106480BF018FF002400E00024FFF726FFD8
:20FCE000204610BD70190020A41F0200C81F020030B585B004460D460846FFF7F7FE014643
:20FD00000023019302930393012201A802F0FEF9031E09DBFFF70AFF04AB13E9070084E82A
:20FD20000700204605B030BD2A46452102480BF0EAFE00230193EDE7E41F020038B50446EA
:20FD4000FFF7D4FE0546224649210A480BF0DBFE284602F0D1FA031E04DB0124FFF7E6FE6E
:20FD6000204638BD2246452103480BF0CCFE0024F4E700BF082002002020020070B50446B1
:20FD800002F0A0FA054602220021204602F080FA50B9204602F096FA064600222946204641
:20FDA00002F076FA304670BD0246452102480BF0AAFE0026F6E700BF4820020070B5C8B0DA
:20FDC000202926D806460D46002400E00134124B1B68A34218DD08A804F0D6FC0F4B03EB8C
:20FDE000C4025268126853F8341008A804F0DCFC694608A804F0E0FC2A46314668460CF03E
:20FE0000E8F80028E2D101E04FF0FF34204648B070BD4FF0FF34F9E70C2302001023020091
:20FE20002DE9F043B5B004460E4615461A466C4BD3F800803E9B02933D9B019304AB00939D
:20FE40003C9B0AF0AAFC002840F0C3803F9B23B1202204A918460CF0E1F8002300934FF6C5
:20FE6000FF73324621462CA80AF0E6FC8146002840F0AF80319BAB4200F2AB8047464FF091
:20FE8000FF353AE04FF0FF3537E04FF0FF3534E0544A13884FF6FF718B4205D0BDF8C810E6
:20FEA000994207D00232F4E70023002B35D14C4B1F688DE00123F8E749214B480BF023FE86
:20FEC000BDF8CA30202B40F084800CAA339930460AF04EFC044600287AD120220CA904A858
:20FEE0000AF0A4FF0746414B1B68834239D149213F480BF008FE4FF0010932AB0DF1CA0258
:20FF000033A92CA80AF0FDFC041E61DB59DC33992CA80AF052FD0028BAD0BDF8C830102B28
:20FF2000CAD0222B20D0012BE7D1492131480BF0EAFDBDF8CA30202B4BD80CAA339930462C
:20FF40000AF016FC0446002842D19DF8CA100CA8FFF734FF05460246492127480BF0D3FD8D
:20FF6000CBE71F4B1F6833E0492124480BF0CBFD002D87DB224B1B68AB4286DDBDF8CA30B4
:20FF8000802B26D80CAA339930460AF0F1FB0446F0B9EDB20095BDF8CA300CAA202104A861
:20FFA00000F0D0FA8046114B1B68834207D0154A492115480BF0A7FD4FF0FF359DE7134A2D
:20FFC000F6E7B9F1000F0CBF0124002400D047460CB1034B1F68384635B0BDE8F08300BF4E
:20FFE000381100208C2102008C2002007C1B0020B4200200DC20020004210200282102003E
:020000041201E7
:200000000C23020084200200502102008020020000B587B0264B019300238DF8083007E03C
:2000200003F5C071224A234842F821000133DBB2072BF5D9492120480BF065FD00F04AF843
:200040000AF06CFD0020FFF7FDF903A800F068FB1A4B1B68834207D0452119480BF053FD9D
:200060000320FFF7EFF9FEE7059A492115480BF04AFD492114480BF046FD0220FFF7E2F9FB
:200080004FF448314FF460400DF00BFB20B145210E480BF038FDFEE703A80AF0A2FC0420B5
:2000A000FFF7D0F945210A480BF02DFDFEE700BF000001403546526EAC2102007C1B0020FE
:2000C000C8210200EC2102001C220200442202007822020008B50A480FF0D9FC50B14FF4BB
:2000E000003108480AF0C8FC0022082104480AF0FAFC08BD452104480BF005FDF9E700BF27
:20010000B4020200DC2202009C22020008B50246082102480AF0E7FC08BD00BFB4020200D6
:2001200008B509480FF0B3FC00B908BD4FF4803106480AF0A1FC072103480AF0B4FC003857
:2001400018BF0120F1E700BFC8020200D422020010B900200860704708B5024600234521B6
:2001600002480BF0D0FC6FF0150008BDE42202002DE9F04782B090464FF0000942F2160244
:20018000ADF80420464A1288ADF80620CDF80090002B7CD005460F469A46424B1B781BB169
:2001A0003F4B1E88042410E03F4C20460CF0D4FB20460CF050FA3D4B18603A4B01221A705D
:2001C000EEE7BDF802301C440434A64212D904236A46214634480CF020FB002859D1BDF820
:2001E0000030B5EB133FECD1C3F30B03BB42E8D102204FE0C7F30B0747EA0537ADF8007007
:200200001FFA88F4ADF80240254B1D88231D9BB25A19B2F5803F0AD21FFA82F90123002B28
:200220003BD0224B1B68994503DD012032E00023F5E704236A4629461B480CF015FB0246D6
:20024000C8B943465246291D17480CF00DFB0246B8B9134A1388234404339BB21380ADF87F
:20026000063004230DEB030200210F480CF0FCFA80B104200EE045210D480BF044FC04205D
:2002800008E045210B480BF03EFC042002E0032000E0052002B0BDE8F0870320FAE700BFC9
:2002A000A0130020F025002054030200781B0020182302004823020070B5C8B0202926D89C
:2002C00006460D46002400E00134124B1B68A34218DD08A804F058FA0F4B03EBC4025268CE
:2002E000126853F8341008A804F05EFA694608A804F062FA2A46314668460BF06AFE00282A
:20030000E2D101E04FF0FF34204648B070BD4FF0FF34F9E70C230200102302002DE9F0434B
:20032000B7B014461D465D4ED6F80080419E0496409E039606AE02963F9E01963E9E00967E
:200340000AF0EDFB88B9429B23B1202206A918460BF064FE002300934FF6FF732A462146D9
:200360002EA80AF017FC814628B14C4B1F68384637B0BDE8F083339C28460AF06DFD8442F8
:20038000F3D847464FF0FF3631E04FF0FF362EE04FF0FF362BE0424A11884FF6FF739942C8
:2003A00005D0BDF8D0308B4207D00232F4E70023002B2CD1394B1F686CE00123F8E7BDF8A6
:2003C000D230202BD1D10EAA359928460BF0B3FB044600285ED120220EA906A80AF026FD2C
:2003E0000746304B1B6883422CD14FF0010934AB0DF1D20235A92EA80AF031FC041E49DBD5
:2004000041DC35992EA80AF086FC0028C3D0BDF8D030102BD3D0222B17D0012BE7D1BDF884
:20042000D230202BA1D80EAA359928460BF083FB044600282ED19DF8D2100EA8FFF73CFFBA
:200440000646D4E7154B1F6824E0002E9DDB164B1B68B3429CDDBDF8D230802B85D80EAA3B
:20046000359928460BF067FB044698B9F6B20096BDF8D2300EAA202106A800F063F880469B
:200480004FF0FF36B3E7B9F1000F0CBF0124002400D04746002C3FF46AAF66E738110020F6
:2004A000842302007C1B00200C23020030B589B00446302307AA0AF044FD80BB2568079B9A
:2004C0001D4401AB04AA294620460AF067FD48BB059B072B1DD10722184906980BF079FDD2
:2004E000B8B9029B082B17D10822154903980BF070FD88B907AA294620460AF038FDA0B9F9
:200500002368079A1344AB4212D1412A13D109B030BD6FF00200FAE76FF00300F7E74FF0D2
:20052000FF30F4E76FF00100F1E76FF00500EEE76FF00600EBE76FF00700E8E7B0230200FF
:20054000A42302002DE9F04786B006460F46904699469DF83830184AD2F800A0174D55F87F
:200560003340049405EBC3056B681B681C44214604A8FFF79BFF18B1504606B0BDE8F0872E
:200580000499CDF80890CDF8048000973346621A05A80AF02FFC50B1074BD3F800A0084BA9
:2005A0001B685345E8D0044BD3F800A0E4E7044BD3F800A0F3E700BF3811002010230200F2
:2005C0007C1B002030B587B01D468DF8072007238DF8173002248DF816404FF0000C8DF872
:2005E00015C0264A03AB92E8030083E803000DF11703012261462046FFF7BAFD024610B11F
:20060000A2B1002426E00DF11603012211462046FFF7AEFD02460028F3D10DF11503012258
:2006200021462046FFF7A4FD0246E9E70DF10703012203210220FFF79BFD02460028E0D11E
:2006400003AB082204210220FFF792FD0246D8E70134E4B2012C0ED86AB905EBC40315F82A
:2006600034100029F4D004330422611D0220FFF77FFD0246ECE7104607B030BDEC050200D2
:2006800000B587B003460A46096911F0040F02D111F0080F02D021F00C011161002004904E
:2006A000039002904FF480710191044900910146FFF734FE07B05DF804FB00BF801B00207D
:2006C00070B50E46124B1C68124D2946C0B200F0CFFC1149286804F0A5FA28B10D4B186897
:2006E0000BF028FA204670BD0B492868FFF7C8FF04460A4B1B688342F0D128680AF00CFA71
:2007000030712B685B68B360034B3360E6E700BF38110020A01C0020801C00207C1B0020AA
:2007200038B50446FFF7FCFC054660B14FF08043D3F8003423B113F0010F19D0002300E064
:20074000002303B100250AF0DBF900B93DB121461920FFF7B5FF0A4B1B68834207D0214603
:200760001220FFF7ADFF064B1B68834202D138BD0123E6E721461920FFF7A2FFF7E700BF7F
:200780007C1B002031B108B50A46034B1B680021984708BD704700BF3C110020BFF36F8F8A
:2007A00072B6002308E003F120010B4A4FF0FF3042F821000133DBB2072BF4D9002308E008
:2007C00003F16001044A4FF0FF3042F821000133DBB2072BF4D9704700E100E038B5204A1E
:2007E000012151604FF0FF33C2F84833C2F8083302F5C0425160C2F84833C2F8083302F5C0
:2008000098325160C2F84833C2F8083300251CE0144B53F825404FF0FF33C4F8083344F364
:2008200007300BF054FA012363600023C4F84C31D4F84C21C4F81031D4F81021C4F8443191
:20084000D4F84421C4F800350135012DE0D9064B4FF0FF32C3F808250AF0EBFB38BD00BF1C
:2008600000B000401824020000F00140C0434FF0000C944519D230B511F80C3083EA000E62
:200880000EF00F0E0A4C54F82E5085EA101080EA131303F00F0354F8233083EA10100CF1D0
:2008A000010C9445E8D3C04330BDC043704700BF2024020008B5024B1B68984708BD00BFF8
:2008C00040110020014B1860704700BF4011002000B583B002460B4600210091024800F08F
:2008E00005F803B05DF804FBB50801002DE9F04F8DB006460F46059302F1FF384FF00009F9
:20090000B3E248460DB0BDE8F08F08F102080020044603904FF0FF330193029398F8003079
:200920001A467A2B00F23F82DFE813F07B003D023D023D023D023D023D023D023D023D0283
:200940003D023D023D023D023D023D023D023D023D023D023D023D023D023D023D023D02A7
:200960003D023D023D023D023D023D02B2023D023D02B2023D027D003D023D023D023D025F
:20098000B100B2023D02AF0283003D028A0094009400940094009400940094009400940082
:2009A0003D023D023D023D023D023D023D023D023D023D023D023D023D023D023D023D0247
:2009C0003D023D023D023D023D023D023D023D023D023D023D023D023D023D02BE013D02A7
:2009E0003D023D023D023D023D023D023D023D023D022F02DE003D023D023D02C600DE0050
:200A00003D023D02C6003D023D023D02BE013D023D021D023D02DE003D023D02BE013D02E0
:200A2000C60048466EE739462520B04709F101091BE2039B03F0FE0303930023019314E07E
:200A4000029B002B06DA019B002B06DA039B002B00F02082019B002B0ADB019B03EB830330
:200A600002EB4302A2F13003019308F1010855E7029B002B08DB029B03EB830302EB4302BE
:200A8000A2F130030293F0E700230293F3E7019B002B05DB059B1A1D05921B680193E4E79B
:200AA000059B1A1D05921B680293002BDDDA5B42029302230393D8E7682B0CD06C2B0FD03D
:200AC00064B139462520B047394698F80000B04709F10209C9E1682CF0D148231C46C4E7C4
:200AE0006C2CEDD14C23F9E77A2C0FD06C2C00F097804C2C00F0A380752B00F0B680059B3C
:200B00001A1D059219680B46C91708E0752B00F08180059B1A1D059219680B46C91798F82C
:200B20000020752A02D00029C0F2A580202800F0AB802B2800F0AE80AA4A04924FF0000A7D
:200B400000205A1880F0AC800244A74CA4FB020525F0030000EB9500121A9A1A61F10005B9
:200B60004FF0CC3002FB00F004FB0500A2FB04242044520842EAC07202EB8202A3EB420225
:200B8000D3460AF1FF3A30320BA800F80B201C46084600255A1880F085802A44924DA5FB27
:200BA00002CE2EF0030C0CEB9E0CA2EB0C029B1A61F100014FF0CC3203FB02F205FB0122A2
:200BC000A3FB05352A445B0843EAC27351080A2C70F10000B4D2CBF1010A0BF1140B06AB01
:200BE00003EB0B04019B002BC0F2F380029BA3EB0A05019AA2EB0A0BBBF1000F00DD9D1A46
:200C0000039B13F0020F00F00281CDF80480DDF8108009E1059B1A1D05921B6800217EE7A0
:200C2000752B06D0059B1A1D059219680B46C91775E7059B1A1D05921B6800216FE7752BBA
:200C400009D0059B073323F0070202F1080305931368516863E7059B073323F0070202F1C8
:200C6000080305931368516859E7059B1A1D05921B68002153E75B4261EB4101029A013A0F
:200C800002925A4A049259E7029A013A0292584A049253E7029A013A0292564A04924DE794
:200CA000012051E7012578E7702B0ED1059B1A1D05921B68194600222BBB4FF0050A002313
:200CC00001934D4C474B04938CE76C2C0BD04C2C0FD0059B1A1D059219680022232812D043
:200CE000404B049319E0059B1A1D059219680022F4E7059B073323F0070303F10802059261
:200D000019685A68EAE798F8003013F0200F0BD03A4B0493029B023B029398F8005005F092
:200D20006005393D002012E0354B0493F2E700F1FF3C30330BAC23540B0943EA0273140946
:200D4000102972F1000208D360461946224601F00F03092BEBD92B44E9E7C0F1010A143073
:200D600006AB1C183EE7059B1A1D05921C6820460BF013F98246019B002B1EDB834221DBC1
:200D800000230193174B04932CE7059B1A1D05921B688DF818304FF0010A0023019306AC1F
:200DA000104B04931EE739462520B047394698F80000B04709F1020957E000230193094B34
:200DC00004930FE7DDF804A000230193054B049308E7039B13F0010F3FF408AF029B0193B4
:200DE00004E700BF702D0200CDCCCCCC74240200782402007C24020088240200802402004B
:200E00008424020039462020B04709F10109013DF8D5CDF80480DDF8108005E008F10108CE
:200E20003946B04709F1010998F800000028F5D1DDF8048004E039463020B04709F10109B3
:200E4000BBF1010BF7D505E0394614F8010BB04709F10109BAF1010AF6D504E03946202073
:200E6000B04709F10109013DF8D508F1010498F8010025283FF449AD00283FF442AD39469E
:200E8000B04709F10109A046EFE702230393ECE51846EAE501230393E7E500BF08B5044696
:200EA000EFF31183202383F31288BFF36F8F03F0DBFB20460AF003FF02480AF08AFC0AF0CA
:200EC0001EFFFCE7902402002DE9F04383B0044608461546238B13F0080F05D103F007064F
:200EE00000230093019354E0012909D043F02003238385F31188BFF36F8F03B0BDE8F083E9
:200F000043F010032383F4E720460AF0A4FC42E0D4F814904A46694620460AF0B5FC4FF0E9
:200F20000008238B03F00707B74269D0A268002A66D0012243F00803238385F31188BFF394
:200F40006F8F002A64D1009B2BB14B463A46694620460AF012FDB8F1000F02D03449204621
:200F6000C047EFF31185202383F31288BFF36F8F238B23F008032383238B13F0100F4DD090
:200F800023F0100323830120268B06F007060028AFD00228B8D00028ABD0013804282BD84C
:200FA00001A353F820F000BF110F0100F90F0100BD0F0100D10F0100E50F01002369D3F84F
:200FC0000080062120460AF01CFC4FF00009A8E72369D3F80480042120460AF012FC4FF06E
:200FE00000099EE72369D3F80880052120460AF008FC4FF0000994E74FF00008C14690E772
:20100000009A0AB1002295E7B8F1000F92D1B3E74A46394620460AF0FCFB94E713F0200F15
:2010200004D023F0200323830220ADE70020ABE7A9B90100014B036000207047BC240200CD
:201040008446002300E00133074A12689A4208DD1A010649096801EB03108A5C6245F2D1D9
:2010600000E00020704700BF602502004411002038B50C4B1B687BB10C46FFF7E1FF054698
:2010800068B1C06828B10EF002FD10B12560002038BD6FF01200FBE76FF00C00F8E76FF0E2
:2010A0000100F5E74411002008B54FF01023D3F8103213F47F4F01D1002008BD0E4B01229A
:2010C000C3F80425BFF34F8FBFF36F8F4FF010236FF47F42C3F81022074BD3F80034002BED
:2010E000FAD00020044BC3F80405BFF34F8FBFF36F8FFFF7D3FE00BF00E0014008B5054802
:201100000AF067FB04480AF064FB04480AF061FB08BD00BFC4240200FC2402003025020045
:2011200008B5024809F016F808BD00BF84270200B0F5680F17D00CD840F6BA63984214D078
:20114000B0F5683F13D03A2801D00120704700207047094B98420CD0084B984201D0012055
:201160007047002070470020704700207047002070470020704700BF3A00003A2C5F5CA9C2
:20118000E8B108B54268B2F5683F07D00F498A421AD0006808F048F9002008BD0368002209
:2011A000BFF35B8F53E8001F012903D143E800200028F7D1BFF35B8F04D11046EDE76FF402
:2011C000E04070470248E8E70248E6E72C5F5CA9E98FFFFFEA8FFFFF30B308B54268B2F59A
:2011E000683F0CD012498A421CD000684FF0FF324FF0FF3308F098F888B10E480FE003689F
:201200000122BFF35B8F53E8001F002903D143E800200028F7D1BFF35B8F01D1002008BD2A
:201220000448FCE70448FAE76FF4E040704700BF2C5F5CA9E98FFFFFEA8FFFFF10B50446CD
:20124000A8B16368B3F5683F10D0B3F5680F0DD00C4A93420AD013F4686F0DD021680A48A4
:201260000EF0EDFC00232360064B636010BD074B5B6807489847E4E71422002120680AF019
:20128000FCFEF1E72C5F5CA9A4210020401300208C27020010B5044658B36068B0F5683FB1
:2012A00026D0B0F5680F23D0164B984226D0FFF73FFFB0B14FF0FF324FF0FF3321461248C1
:2012C00008F000F808B923681BB9104B5B68104898471422002120680AF0CFFE4FF46863F5
:2012E000636020680EF0F6FC636843F03A03636010BD064B5B6807489847CEE72368002B3B
:20130000D5D1D7E72C5F5CA9A421002040130020B42702008C27020008B54023142204494C
:2013200004480EF07EFC0449044808F085FF08BDA41C0020A4210020E4270200F82702001C
:2013400030B583B00446836800934368026845211A480AF0D8FB636900932369E268452168
:2013600017480AF0D0FBE269452116480AF0CBFB256ABDB12A686B68A968009145211248B6
:201380000AF0C1FBEA682B696969009145210F480AF0B9FBAA69EB69296A009145210C489E
:2013A0000AF0B1FBA26A45210A480AF0ACFBA269452109480AF0A7FB03B030BD08280200F2
:2013C0003C2802007028020084280200B8280200EC280200202902003829020038B5044682
:2013E0000D4611B10846FFF7ABFF012C04D02946204607F0A5FD38BDEFF30582103A45216D
:2014000001480AF080FBF2E76C29020030BFFFF7FDBF00BF074B9B6893F90E20002A08DB22
:20142000044A5269934204D0034A536843F0805353607047E023002000ED00E081690D4B50
:201440005A6942F480725A61BFF34F8FBFF36F8F31F8021C5A6922F480725A61BFF34F8F49
:20146000BFF36F8F4DF60273994201D0002070470120704700ED00E04FF0000C83F800C056
:2014800002F07F4CBCF17F4F13D102F00C0CBCF1080F04D012F0080F08D00846704708B5DB
:2014A000452105480AF02FFB002008BD01221A7070470020704700BF84290200F8B50546CF
:2014C0000F461446452133480AF01DFB324B9B6A13F4805F25D116262F4B9B6A13F4006FDB
:2014E00025D12D4B9B6A13F4007F26D12A4B9B6A13F4806F3BD1284B9B6A13F4807F3CD1F5
:20150000254B9B6A13F4005F3DD1234A936A43F47F439362012128460AF0AAFB2070304655
:20152000F8BD45211D480AF0EEFA1726D4E745211B480AF0E8FA1826D3E7452119480AF0F3
:20154000E2FA154B9A6B9B6A13F4004F01D11926CCE7452114480AF0D6FA37B10E4A936A62
:2015600023F4004393621926C0E71926BEE745210E480AF0C8FA1A26BDE745210C480AF042
:20158000C2FA1B26C1E745210A480AF0BCFA1C26BBE700BFB429020000ED00E0D0290200F4
:2015A000E8290200002A0200202A02003C2A02005C2A02007C2A020008B5452126480AF07D
:2015C000A2FA264B9B6A13F0007F21D11D20234B9B6A13F0807F21D1204B9B6A13F4002F3B
:2015E00022D11E4B9B6A13F4802F23D11B4B9B6A13F4003F24D1194B9B6A13F4803F25D115
:20160000164A936A6FEA03436FEA1343936208BD452113480AF077FA1E20D8E7452111487D
:201620000AF071FA1F20D7E745210F480AF06BFA2120D6E745210D480AF065FA2220D5E71C
:2016400045210B480AF05FFA2320D4E7452109480AF059FA2420D3E7B02A020000ED00E0D5
:20166000D02A0200E82A0200082B02002C2B0200582B0200782B020008B500230B704521E1
:2016800001480AF040FA08BDA82B020008B50F2907DC054AA1F11003452104480AF033FA8E
:2016A00008BD034AF6E700BFD42B0200082C0200EC2B02002DE9F04104460F461546452185
:2016C00042480AF020FA424B9B6A13F0100F3CD110263F4B9B6A13F0080F3CD13C4B9B6A33
:2016E00013F0020F3DD16FF01508394B9B6A13F0010F54D1364B9B6A13F0200F55D1344B2E
:201700009B6A13F0100F04D1314B9B6A13F0020F04D02F4B5B6813F4006F4CD12C4B9B6A18
:2017200013F0200F04D02A4A536A23F400535362274A936A43F0FF039362012120460AF039
:2017400097FA28703046BDE8F081452121480AF0DAF91126BDE745211F480AF0D4F9122691
:20176000BCE745211D480AF0CEF9194BD3F834809B6A13F0800F03D16FF015081326B4E79C
:201780004246452116480AF0BEF937B1104A936A23F0800393621326A7E71326A5E7452190
:2017A00010480AF0B0F91426A4E745210E480AF0AAF91526A3E72146404600F05DFA0028EF
:2017C000ACD080F309880226A8E700BF202C020000ED00E03C2C0200E8290200742C0200D9
:2017E000942C0200B02C02007C2A020070B506460D46452128480AF086F900232B70274B5E
:20180000DC6A14F002040AD1244BDB6A002B0CDB224BDC6A14F080440CD1204670BD452186
:201820001F480AF070F90024F7E745211D480AF06AF9F2E745211C480AF065F93046FFF74D
:20184000FDFD98B9154B9B6A13F0FF0F15D1134B9C6A14F47F4417D1104B9B6AB3F5803F03
:20186000DBD33046FFF7A8FE0446D6E7326845210E480AF048F93468CFE72A4601213046B6
:20188000FFF718FF0446C8E72A4601213046FFF715FE0446C1E700BFD42C020000ED00E0B1
:2018A000F02C0200182D02002C2D0200502D02002DE9F0418CB0064615461F461C4B5C682F
:2018C000C4F30804002383F31188BFF36F8F0DF12E03FFF7D1FD80460DF12F0221460AF01A
:2018E000C9F99DF82F3013B10CB0BDE8F08104462022414668460AF091FB089709960A9578
:201900009DF82E304BB1079BC3F308025AB96FEA53236FEA4323079305E0079B23F4FF732B
:2019200023F00103079369462046FFF757FDDBE700ED00E0044B5A6942F010025A615A6934
:2019400022F008025A61704700ED00E0EFF30880EFF3098101B506B42DE9F00F6B46724668
:20196000FFF7A6FF0AB001BD002013490870002080F31488BFF36F8F03F0B6F900200F4967
:201980000860BFF34F8F0E4880F3088800F042F8202080F311880B484FF40461401880F3BA
:2019A0000988EFF314800221084380F31488BFF36F8F00F023F90000F725002094ED00E04A
:2019C000C057002000260020BFF34F8F0549CA6802F4E062044B1343CB60BFF34F8F00BF23
:2019E000FDE700BF00ED00E00400FA05084BD3F89000C0F30720002306E0054AC2F8983012
:201A00000021C2F8A01001338342F6DB704700BF00ED00E010B572B6002484F31388FFF715
:201A2000E5FF234608E003F120010E4A4FF0FF3042F821000133DBB2072BF4D9002308E070
:201A400003F16001074A4FF0FF3042F821000133DBB2072BF4D962B6BFF34F8FBFF36F8FFF
:201A600010BD00BF00E100E008B50A4B9B68834202D00EF0CDFA08BDEFF30583002BF8D086
:201A8000054B5A6842F080525A605A6A22F400425A62EEE7E023002000ED00E00A4A93688A
:201AA000C3F8A8006FF00A01C3F8AC1007494B6843F080534B60002383F31188BFF36F8F4C
:201AC0009368D3F8AC007047E023002000ED00E010B50446EFF31183202383F31288BFF363
:201AE0006F8F0A4B58699860094B4FF000625A60D0F8A8300022C0F8A82083F31188BFF328
:201B00006F8F00F039F9204610BD00BFE023002000ED00E00B498A684FF030001044EFF3D8
:201B2000098C80E8F01F74467046FFF7D1FFA64604498A6802F1300090E8F01F8CF309887E
:201B400070470000E02300201EF0040F0CBFEFF30880EFF30980816911F8021C0229FFD0DF
:201B600001B5EFF3098106B42DE9F00F69460AF065F80AB001BD00BF002807DB00F01F021C
:201B8000400901239340024A42F82030704700BF00E100E000280CDB00F01F02400901236B
:201BA00093402030034A42F82030BFF34F8FBFF36F8F704700E100E0002808DB4901C9B2A3
:201BC00000F1604000F5614080F80013704700F00F004901C9B2014B1954704714ED00E087
:201BE0004209054B53F8222000F01F00012303FA00F01040704700BF00E100E008B50B4B03
:201C00000B4A22F07F029A60BFF34F8FBFF36F8FD3F8882022F47002C3F8882007F088FACB
:201C200008F00CF900F070F807F0E0FA00ED00E000E2000010B4A2F120040E4942F8081C9F
:201C400021F0010142F8081C42F8203C019B42F81C3C029B42F8183C039B42F8143C4FF0BD
:201C6000807342F8043C04650023C0F8A83010BC704700BFEFB70100104B9B68BBB110F127
:201C8000160F0BD0D3F89820A2F1400C844510D8824210D98A4207D800207047D3F898207F
:201CA0008A4201D800207047D3F89800704700207047002070470020704700BFE023002027
:201CC00008B50E4615460A4B986000F055F82C4686F309884FF00000064B984720464FF07E
:201CE00000014FF000024FF00003034C204700BFE0230020F1BC0100EFB70100014B1022F5
:201D00001A61704700ED00E0002206E003F00F030949194420230B7601322F2A0ADC53B2CD
:201D2000002BF3DB03F1604303F56143202183F80013F1E7704700BFFCEC00E008B5EFF3F3
:201D40000583103B044A02EBC301496852F833008847FFF75FFB08BD7C03020008B5034B13
:201D6000034A012103480AF0DFF808BD00FE032000000020742D020008B5D0F89830403B67
:201D80000448036040234360034B836001210AF0CFF808BDC021002000000B15084AC2F888
:201DA00098000B6823F01F03034343F01003C2F89C308B6843F00103C2F8A030704700BFA7
:201DC00000ED00E010B50446094BD3F89030C3F30723013B984203D8FFF7E0FF204610BD6F
:201DE00002464521034809F08EFE6FF01500F6E700ED00E0842D02002DE9F84380460F4628
:201E000099461646002509E02146F0B209F095FF064610F1160F19D001360135BD4215DA2D
:201E200005EB450408EB84046268002AF5D0B9F1000FE9D0204609F06FFF0028E4D12A46A9
:201E40004521044809F05FFE6FF015063046BDE8F88300BFB02D020010B5034C01232278FA
:201E6000FFF7CAFF207010BDF125002008B500230B4A1278FFF7C0FF10F1160F0FD002464F
:201E800006E0084BC3F898200021C3F8A0100132044BD3F89030C3F307239342F1DC08BDB6
:201EA000F125002000ED00E0044B0522C3F89420BFF34F8FBFF36F8F704700BF00ED00E0B7
:201EC000BFF35F8F024B0022C3F89420704700BF00ED00E038B51C4B1D681C4BD3F8903076
:201EE000C3F307239D422BD8FFF7EAFF002409E0154B5B6804EB440103EB81012046FFF711
:201F00004DFF0134A542F3D81148057009F034FF10F1160F13D00E4B1A780C4BD3F89030BE
:201F2000C3F307239A4207DA084BC3F898200021C3F8A0100132F0E7FFF7B6FF002038BDE8
:201F40004FF0FF30FBE700BFD82D020000ED00E0F1250020014B1860704700BF6811002095
:201F60000CB410B586B00B4609B90DF10B000390049309AB059300240094089A03A90548C1
:201F8000FEF7B4FC039B1C7006B0BDE8104002B0704700BFF9C0010010B586B00C4609B9D6
:201FA0000DF10F00049005940024009404A90348FEF79CFC049B1C7006B010BDF9C0010042
:201FC00008B54521044809F09EFD06F083FF0C230360002008BD00BF082E02000123044AA6
:201FE000C2F840354FF08042C2F878350020704700E0014030B108B5034B800143F00103AE
:20200000984708BD704700BF700602000023012B0ED8094A02EBC30252680AB10133F6E76E
:20202000054A42F8330002EBC3025160002070476FF01B00704700BFCC2100200146002343
:2020400000E00133012B0BD8064800EBC3004268002AF6D0034A52F833208A42F1D100E06F
:2020600000207047CC2100202DE9F84F83460F469246084609F091FF80464FF0FF324FF0DD
:20208000FF33204807F050F91F4B1C689C421DD00026B1460CE02A46E168384609F086FFEF
:2020A00008B92E46A146184B5B689C4210D0246884B1A569AE42F6D8A845F4D3012DEAD9EE
:2020C0007B5D2F2BE7D0002BE5D0ECE70024DFE70024EDE70B4807F0A7F9B9F1000F0BD004
:2020E000CBF80090BAF1000F09D0D9F81830CAF800300020BDE8F88F6FF00100FAE7002042
:20210000F8E700BF2C1400206C1100202DE9F04182B061B3054616460F46084609F03DFF18
:20212000012824D93B782F2B21D16B68002B63D10022394601A8FFF797FF041E1EDB019BBB
:2021400093F8202012F0020F02D016F0120F56D1DA691168002955D016F0400F21D016F02B
:20216000020F10D05269AAB14FF001081BE04521264809F0C8FC6FF0150429E04521244831
:2021800009F0C1FC24E04521224809F0BCFC6FF00C041DE04521204809F0B5FC6FF0850438
:2021A00016E04FF000086B60DB691B683246394628469847041E0FDB2E72B8F1000F07D0D1
:2021C000019BDB695B69002128469847041E0BDB204602B0BDE8F081224645210F4809F099
:2021E00092FC00236B60F3E7224645210C4809F08AFC00236B60EBE76FF00F04E8E76FF088
:202200001D04E5E76FF08504E2E700BF3C2E0200582E0200782E0200AC2E0200D42E0200E5
:20222000F02E020038B5436883B10446DB69DB6973B19847051E03DB00236360284638BD93
:202240002A464521044809F05EFCF7E70025F5E76FF08505F2E700BF142F020010B54368F4
:202260006BB1DB695B686BB19847041E01DB204610BD22464521054809F045FCF7E76FF07D
:202280000804F4E76FF08504F1E700BF302F020010B543686BB1DB69DB686BB19847041E47
:2022A00001DB204610BD22464521054809F02BFCF7E76FF00804F4E76FF08504F1E700BF31
:2022C0004C2F020010B543686BB1DB691B696BB19847041E01DB204610BD224645210548E6
:2022E00009F011FCF7E76FF00804F4E76FF08504F1E700BF682F020030B583B0F0B1054698
:2023000009F04BFE012819D92B782F2B16D10022294601A8FFF7A8FE041E16DB019890F872
:20232000203013F0020F1BD1C3695B6BDBB129469847041E0EDB204603B030BD45210B48B7
:2023400009F0E1FB6FF01504F5E74521084809F0DAFBF0E722464521064809F0D4FBEAE744
:202360006FF01D04E7E76FF08504E4E73C2E0200582E0200842F020070B582B0F8B10E465F
:20238000054609F00AFE012819D92B782F2B16D10022294601A8FFF767FE041E16DB0198B1
:2023A000C3691B6CEBB1324629469847044610F1020F01D000280EDB204602B070BD45211F
:2023C000094809F0A0FB6FF01504F5E74521074809F099FBF0E702464521054809F093FB29
:2023E000EAE76FF08504E7E7A42F0200582E0200C42F020070B582B0D8B10E46054609F08C
:20240000CCFD012815D92B782F2B12D10022294601A8FFF729FE041E12DB0198C3695B6C0A
:20242000CBB1324629469847041E0EDB204602B070BD4521094809F066FB6FF01504F5E7A5
:202440004521074809F05FFBF0E722464521054809F059FBEAE76FF08504E7E7A42F0200D9
:20246000582E0200C42F0200F8B5D0B10646C068B8B13768E7B909F090FD054601281ED9A4
:20248000F3681B782F2B1AD14FF0FF324FF0FF333C4806F049FF3C4B1C689C4222D13C4608
:2024A00020E04521394809F02EFB6FF015044BE04521374809F027FB6FF00F0444E0452174
:2024C000344809F020FB6FF015043DE04521304809F019FB6FF00F0433E02B4B5B68A34249
:2024E00016D02468B4B1A369AB42F6D1326923699A42EBD02A46E168F06809F057FD002801
:20250000EBD14521244809F0FEFA6FF00F0418E03C46E7E7B468204609F0FCFD0746A8B168
:20252000C36AD3B1036B03B3FB6A30469847041E21DBB561F761144B5A6833607260166084
:202540005E60104806F070FF2046F8BD4521134809F0D9FA6FF00104F3E7224645211048F4
:2025600009F0D1FA6FF08504EBE7F26857210D4809F0C9FAD8E7224645210B4809F0C3FA64
:20258000DFE700BF2C1400206C110020EC2F020010300200343002005030020074300200CC
:2025A000A8300200D4300200FC30020038B5002832D004464FF0FF324FF0FF33184806F075
:2025C000B3FE23689BB1E3691B6BC3B120469847051E1BDB0023E361616822680A605160FA
:2025E000236063600E4806F01FFF284638BD224645210C4809F087FA6FF01505F2E7452174
:20260000094809F080FA6FF08505EBE72A464521064809F078FAE5E76FF01505E5E700BFDC
:202620002C14002018310200383102005831020038B504460D464FF0FF324FF0FF330A483C
:2026400006F072FE204609F065FD48B929462046FFF7DCFC0446044806F0E6FE204638BDE4
:202660006FF07704F7E700BF2C140020034628B129B18A6910449B5C13B170477047704760
:20268000004870477831020008B502490120FFF7CFFF08BD9433020038B504460D4600F19A
:2026A000FC01E8B2FEF7E4FC002807DBD4F8FC0020B109F0ACFA48B1002038BD2A46452188
:2026C000084809F020FA6FF01200F6E7D4F8FC30DB681A684521044809F015FA6FF0120061
:2026E000EBE700BF7C3102009C31020008B512F0080F05D1FFF7D0FF002800DB002008BD72
:202700004521034809F0FFF96FF08500F7E700BFBC31020000B583B000900023019309F07F
:2027200076FA6A4603490AF004FC019803B05DF804FB00BF23C201002DE9F04F85B004461A
:20274000D0F81490B9F1000F01D14FF01009D4F81880B8F1000F01D14FF01008E56911F096
:20276000080F07D175B1666AB6B1002E16DC4FF0FF3613E00A4645212A4809F0C4F96FF049
:2027800085004CE0D4F8FC00FFF7C4FF05460028E9D16FF0150042E04FF40076D4F828B0E7
:2027A000BBF1000F01D14FF0400BD4F82CA0BAF1000F01D14FF0200AD4F8FC008768B7FB0C
:2027C000F5F709F024FA0268D4F8FC305B680296019500974921144809F095F9CDF804A056
:2027E000CDF800B043464A464921104809F08BF9D4F8FC3023600E4B63600E4BA3600E4BC0
:20280000E360C4F81490C4F81880C4F828B0C4F82CA00A4B2361E56127626662002005B060
:20282000BDE8F08F00320200443202007C3202009DC2010081C201006DC2010003C201007E
:2028400070B582B004460E4615460123019302220092092349210C4809F055F9D4F8FC3091
:202860007BB92A4631462046FFF740FF002806DB29462046FFF760FF002800DB002002B09A
:2028800070BD6FF00F00FAE7A8320200F8B5044616460D4601B30023C5F8FC3005F5807789
:2028A00038460DF017FA284609F0D6FC324621462846FFF7C5FF041E06DB294605F17C0068
:2028C0000DF020F8041E09DB0023C5F8FC30384606F0AAFD2046F8BD054DDCE722464521B8
:2028E000044809F010F9204609F01CFC0446EBE774110020D832020070B505460469204603
:2029000009F0AAFC04F17C000DF004F895F8203013F0080F0DD00026C4F8FC6004F58070B3
:2029200006F082FDEA684921044809F0ECF8304670BDD4F8FC0009F0FDF8ECE7F4320200E9
:202940002DE9F0410746056905F5807630460DF0C1F9284609F080FC97F820207969284656
:20296000FFF76EFF041E47DB05F17C04294620460CF0CCFF00283ADA97F8203013F0010F70
:2029800035D113F0020F21D1024657211F4809F0BAF8294620460CF0B5FFB0F100080BDB45
:2029A000294620460CF0B2FF041E16DBFA684921174809F0A8F81DE042464521154809F07D
:2029C000A2F8404609F0AEFB044613E04521124809F099F86FF01D040EE0224645210F481B
:2029E00009F091F8204609F09DFB044602E009F099FB0446002C02DA0023C5F8FC303046D1
:202A000006F012FD2046BDE8F08100BF0833020084330200D8320200303302005833020082
:202A200070B5044643681D69284609F015FC216805F17C000CF0ADFF064605F5807006F0AF
:202A4000F3FC216803480DF0FAF8304609F06AFB70BD00BFD413002070B504460E4643688F
:202A60001D69002200230146144806F02BFCE8B934220021206809F000FB61683046FFF702
:202A8000F5FD0646284609F0E7FB3246216805F17C000CF07AFF064605F5807006F0C4FCDB
:202AA000002E06DB304609F03DFB70BD6FF00B00FBE7216801480DF0C2F8F3E7D41300207D
:202AC00010B5044603685A6D1AB1196E04480DF071F8216803480DF0B2F80023236010BDC3
:202AE000F0130020B813002008B501460022002301480DF054F808BDF01300202DE9F043BC
:202B000083B004460E4643681F69104609F07BFB05460022002321461E4806F0D3FB024683
:202B200018B1104603B0BDE8F083D4F8008064220021404609F0A1FAD7F8E430986AFFF7C3
:202B4000D3FFC8F86000D8B1C14649F8540F61683046FFF78BFD0646384609F07DFBCDF892
:202B600000902B463246414607F17C000CF0E2FE054607F5807006F057FC002D05DA01E098
:202B80006FF00B052046FFF79BFF284609F0CAFA0246C6E7B813002070B5456806692868F4
:202BA0000CF075FF80B1286883681B689847041E11DB6A68AB681A44A24212D8301D0DF02E
:202BC00089F80024204670BD45210A4808F09BFF6FF01204F6E722464521074808F093FF7A
:202BE000F0E723464521054808F08DFF6FF01504E8E700BFEC3302000C340200343402008B
:202C000010B582B004460C4809F087FD012804D010F1860F01D002B010BD01230DF1070294
:202C20000021054809F0F9FD0028F4D19DF80730A342F0D10120EEE76803020008B502486E
:202C400009F08AFE08BD00BF680302000048704700230020034BC01A8010034B03FB00F0CC
:202C6000704700BFC0220020B76DDBB638B505460C46FFF7EFFF01464022034809F02CFFA1
:202C800001462846A04738BDA002020030B583B005460C46FFF7DEFF0146402300932346D1
:202CA000054A064809F032FF011E01DB03B030BD2846A047FAE700BF55CB0100A0020200F8
:202CC00008B510B101280DD008BD0021084809F08FFE836813F0070FF6D10021044809F083
:202CE000E9FEF1E70121024809F0E4FEECE700BFA002020010B582B0EFF31184202383F371
:202D00001288BFF36F8F154A136843F00201116013F0010F09D1002384F31188BFF36F8F18
:202D2000B3B909F01FFF02B010BD0DF1070201214FF0804009F040FE9DF80730012B01D069
:202D40000023E9E7FFF782FF09F0A2FE0123E3E70021034809F0AEFEE5E700BF1023002093
:202D6000A002020010B5EFF31184202383F31288BFF36F8F074A136823F00201116013F01A
:202D8000010F04D084F31188BFF36F8F10BD09F0F3FEF7E71023002070B582B004460CF00A
:202DA000CFFF18B90546174B1B7813BBEFF31183202282F31288BFF36F8F1E46012525B987
:202DC0004FF080430222C3F8082301AA00214FF0804009F0F1FD0028F7D0019B022B01D0AC
:202DE000012CF2D13DB186F31188BFF36F8F02B070BD0026E3E74FF080430222C3F804235C
:202E0000F5E700BFF725002000B585B0CDF800D0CDF804D000230293012303936B46074A4F
:202E200009F090FE002805DB4FF480420023684606F05EFB05B05DF804FB00BF8DCB0100BD
:202E400070B5064600220121104608F045FF114802F0D0F8104B984219D102F0DFF800240C
:202E6000012C12D82146304609F0C2FD05462146304609F0CAFD094908F0A4FD002805DBCB
:202E80000123AB601C44E4B2EAE7002070BD6FF00400FBE7C12C01000000AD0BF0340200DE
:202EA00010B50446104B0121BFF35B8F53E8002F43E800100028F9D1BFF35B8F1AB1631E6B
:202EC000012B0DD910BD094809F09FFD084900234B608B60CB6001238B6008F090FDEEE78F
:202EE0002046FFF759FFEDE7BC220020A0020200AC22002010B5044C2046FDF7E3FC204606
:202F0000FFF728F8002010BD0D2F010030B583B005468DF80700022401220DF10701002013
:202F200005F0B2FF38B9094B1B785BB13CB109F048FE013CF0E7054B01221A7002E0034B9A
:202F400000221A70284603B030BD00BFF225002010B504460A2806D0E1B2064883685B681B
:202F60009847204610BD034883685B680D219847F2E700BFDC02020010B5044C2046FEF751
:202F8000E9FF2046FDF79EFC10BD00BF512F010008B505480CF07BFD18B1FFF7EDFF0020FF
:202FA00008BD6FF01200FBE7DC020200024B0B6001231360704700BF10380200004870470B
:202FC0007837020008B50069054B994200D008BD10304FF0FF324FF0FF3306F089FAF6E7E3
:202FE0000000AD0B00293BD010B582B010468C464B6863B119685C68DCF8083053B11A6828
:203000005B684BB144B1A3422DD1631C06E019460024F1E71A46002323440133092B16D819
:203020009CF800408DF800408DF8013001238DF802308DF8033000238DF804308DF8050048
:20304000684602F0A3FE09F00FFE02B010BD9CF800205721054808F056FD6FF01500F4E797
:203060006FF0150070476FF01500EEE7603502002DE9F84307460E461446D0F8048000218C
:2030800009F06EFE054640B32846BDE8F8830BF03BFA0546A1460EE0B4F5805F02D3C6F399
:2030A0000B036BB3234632464521284808F02BFD4FF00009264D29463846FFF783FF254B7D
:2030C0009D422DD14E44A4EB09044FF4A4720023384609F02CFE051E1ADB64B3D8F82C306D
:2030E000A342D4D0B4F5803FD6D3B3B2002BD3D13146012002F0C4FE05464FF48039DAE7AE
:203100003146002002F0BCFE05464FF48059D2E7234632464521104808F0F5FC2C460BE067
:203120002346324645210D4808F0EDFC284609F09BFD044600E02C460121384609F010FED0
:203140000546002CA0D025469EE700BF883502000400AD0B0000AD0BAC350200D0350200BC
:2031600030B587B00023ADF81430531EDBB2012B3ED80546012A1ED08DF81510012109F0BE
:20318000AEFD041E27DB8DF8144005AB039302230493002300930193029301228DF80020DE
:2031A00003AB019369462846FFF71CFF0446C0B1204607B030BD8DF81410022109F08FFD89
:2031C000041E02DB8DF81540DFE7224645210A4808F099FCECE722464521074808F093FC2C
:2031E000E6E700220023284609F0A1FD0446DFE76FF01504DCE700BFF435020070B5054613
:203200004268537F023BDBB2012B0AD9137F042B17D0032B17D0022B01D0002302E0012375
:2032200000E001231E460221284609F058FD041E0BDBE1B2C4F34004B4420CD10024204654
:2032400070BD0123EEE70123ECE7224645210A4808F059FCF3E7022251402846FFF780FF72
:20326000041EECDA36B1054A23464521044808F04AFCE4E7034AF7E720360200143602003D
:2032800038360200183602002DE9F04182B005460E46174698460A4604210DEB01000BF0B2
:2032A0002EF9044601462846FFF78CFE0B4B9C4203D0204602B0BDE8F0814246394601A883
:2032C00008F0ACFE324604210DEB01000BF012F9044601462846FFF775FEEAE70000AD0BBF
:2032E0002DE9F04383B08146884617461E46114CE6B1104B9C4219D13546042E28BF042528
:203300002A46394601A808F089FE4246294601A80BF0F0F8044601464846FFF753FE054B5D
:203320009C42E5D1761B2F44A844E1E7204603B0BDE8F0830000AD0B2DE9F04F87B0824604
:203340000E4617464A4201F0030402F0030258BF5442C4F10404624204F0030402F0030241
:2033600058BF54429C4200D91C467A4207F0030502F0030258BF5542C5F104056A4205F0C7
:20338000030502F0030258BF55429D4200D91D4601941A1B02F0030B22F0030929465B1B98
:2033A00023F00303994502DDA2EB030B9946B9F1000F09D1DFF8A08004BBBBF1000F35D1B3
:2033C000404607B0BDE8F08F7B18CDF80C90A2194946029318460BF092F880460146504633
:2033E000FFF7F0FD1C4B9845EAD1AC42E4D0039A0299019BF81808F0FEFDDDE7C4F10402F3
:20340000B21A042104A80BF07AF8804601465046FFF7D8FD104B9845D2D1019AC2F1040106
:2034200004AB1944384608F0F9FDC6E7A2194A44082104A80BF063F8804601465046FFF75A
:20344000C1FD054B9845BBD1019848445A4604A9384408F0E3FDB3E70000AD0B70B590B078
:2034600006460DF1280C194C0FCCACE80F0094E803008CE803000023019302930393AB2345
:203480008DF80430124D04A9284609F0D4FB0AA9284609F09FFB012002F0C8FC044604A9AF
:2034A000284609F097FB0B4B9C4203D06FF0040010B070BD002201A93046FFF793FD0028CC
:2034C000F6DB03200CF0DDFA0020F1E7F4050200009002400000AD0B30B587B00446456895
:2034E00002691B49284602F02FFC09F0BDFB002814DB2046FFF7B2FF00280FDB05A9204677
:2035000009F045FC002809DB032205A905F1300008F05FFD20B92046FFF770FE07B030BDD1
:203520009DF8163095F8302095F8311095F8320003900291019200939DF815309DF8142057
:203540004521044808F0DFFA6FF01200E6E700BFCFCC01005036020070B515464268C1F3E9
:203560000B030BBB06460C460DB3C5F30B030BBB002910DB4B19D26A93420CD809F096FB96
:203580002A4621463046FFF773FD0446304609F03CFC204670BD2B4622464521074808F06E
:2035A000B2FA6FF01504F4E76FF01504F1E76FF01504EEE76FF01504EBE700BF88360200A6
:2035C0002DE9F0410E464168002A59D004461D469046002B57D0042B02D913F0030F55D13A
:2035E00016F0030F55D1002E2EDB7319CA6A93422AD8204609F05AFB0021204609F0B0FBE0
:203600000746A0B9032D28D908F06043B3F1005F02D118F0030F28D02B464246314620467A
:20362000FFF75EFE0546284609F01EFB07460121204609F095FB0546204609F0E6FB07B1CC
:203640003D462846BDE8F0812B4632464521124808F059FA6FF01505F3E72B4642463146AC
:203660002046FFF711FE0546DDE73246294640460AF040FF054601462046FFF7A3FCD2E7E4
:203680006FF01505DDE76FF01505DAE76FF01505D7E76FF01505D4E7D8360200F8B50E4637
:2036A000416812B304461D4617460BB3002E13DBF318CA6A93420FD809F0F8FA2B463A46E1
:2036C00031462046FFF738FE0546204609F09DFB284609F0C9FAF8BD2B4632464521054824
:2036E00008F011FA6FF01500F5E76FF01500F2E70020F0E728370200034BD3F8003413F082
:20370000010FF9D0704700BF00E00140024B0B6001231360704700BF14230020004870471E
:20372000C038020008B509F08BFB48B34FF08043D3F8103513F00102D2B2C3F3430321D0CF
:203740004FF08040D0F8101521F01F014FEA430C41EA4303C0F81035D0F808311BB90A4B2C
:203760001A7000200DE0D0F8103523F01F034CF0010C43EA0C03C0F810356FF08B0000E024
:20378000002008BD0020FCE7F32500200A4B1B788BB14FF08041D1F81025D1F8103523F0C6
:2037A0001F0302F01E0242F001021343C1F81035014B00221A707047F3250020F8B50E4664
:2037C00015460AF0AEFD04462946304609F04CFB40B3B6FBF4F304FB13634BB9B5FBF4F3DF
:2037E00004FB135323B9AC420BD900242046F8BD2B4632464521104808F085F96FF01504E2
:20380000F4E70E4F4FF0FF324FF0FF33384605F06FFE2946304609F057FB0446384605F0C2
:2038200041FEE3E72B4632464521054808F06BF96FF01504DAE700BF183802001C230020DE
:203840003C3802002DE9F0410C4616461D461946204609F009FB48B114F003070FD115F0EC
:20386000030F0CD1A5B93846BDE8F0812B4622464521114808F047F96FF01507F3E72B46D1
:20388000224645210D4808F03EF96FF01507EAE7DFF82C804FF0FF324FF0FF33404605F0AB
:2038A00027FE2A463146204609F038FB0746404605F0F8FDD7E700BF3C3802006038020020
:2038C0001C23002070B50D4616461C461946284609F0CAFA10B154B9002070BD23462A46D5
:2038E0004521064808F00FF96FF01500F5E722462946304608F092FB0020EEE73C38020087
:2039000010B50122114606480CF0EBF90AF00DFD044C20600AF005FD6060002010BD00BFFE
:203920001C23002014230020F0B51C46059F069E00F01F0C400936D0012837D1284D0CF571
:20394000E07355F8233099B301209AB34FF0020E40EA0E008CB34FF00C0E40EA0E007FB331
:203960004FF4E06E40EA0E006EB34FF4403E40EA0E0023EA000049B30B784AB312785200FF
:2039800013433CB32278920013432FB33A78120213431EB332781204134303430CF5E07CD8
:2039A00045F82C30F0BD4FF0A045C8E70025C6E70020CAE74FF0000ECAE74FF0000ECCE74D
:2039C0004FF0000ECEE74FF0000ED0E70023D4E70022D5E70022D7E70022D9E70022DBE77F
:2039E0000003005000F01F03400909D001280AD1064A03F5E07352F8230000F0010070478C
:203A00004FF0A042F5E70022F3E700BF0003005028B1012801D103487047002070470248A4
:203A2000704700BFB4020200C80202002DE9F04786B0884615469946446801F01F07237BA0
:203A400047EA4317204609F001FB002853D0B5F5001F2AD00DF10C0A002603960496494676
:203A6000284609F068FB8DF80C00009601960296CDF804A0A36823FA08F313F0010F02D1B4
:203A8000B5F1A07F18D010346A46394620460AF0E5FB1C4B984231D10122394620460AF081
:203AA00001FC002006B0BDE8F087394604F110000AF0FCFB0020F5E73846FFF793FF002878
:203AC000E1D104F110050DF11702394628460AF0D1FB0D4B984203D00DF117030493D2E7F3
:203AE0000DF1170128460AF0D9FB064B9842F3D06FF00B00D6E76FF08500D3E76FF015004D
:203B0000D0E700BF0000AD0B0400AD0B2DE9F04389B0074689461446456801F01F082B7B58
:203B200048EA4318104609F096FA8DF81E0040F206332340B3F5837F5ED016D8062B57D08A
:203B400006D9B3F5807F0DD101238DF81D3024E003B3022B03D104238DF81D301DE06FF0FB
:203B600015076FE06FF015076CE040F20222934246D0B3F5407F03D103238DF81D300CE0B3
:203B8000B3F5007F03D102238DF81D3005E06FF0150757E000238DF81D30012606FA09F681
:203BA0003146384609F065FA071E4BDB14F4002F2AD06B68C3F80865284609F047FA50B396
:203BC00010350DF11F02414628460AF053FB064614F4403F3AD1414628460AF057FB3A4BA0
:203BE0009E422FD19DF81F1028460AF053FB29E006238DF81D30D0E707238DF81D30CCE701
:203C000005238DF81D30C8E714F4802FD4D06B68C3F80C65D0E7C4F340438DF8083014F4EB
:203C2000803F0CBF012300238DF81030002301930DF11D0300930DF11E0304AA02A9404688
:203C4000FFF772FE384609B0BDE8F08302AA002302930393049305930693059204AA414621
:203C600028460AF0FBFA184B984202D06FF01507E8E714F4003F1AD09DF81D308DF81030B6
:203C800014F4803F0CBF012300238DF811309DF81E308DF81230002304AA414628460AF01B
:203CA000E1FA094B98429AD06FF01507CAE700230493059306930DF11E03049304AA41468F
:203CC00028460AF0CBFAECE70000AD0B10B54468204609F0BBF908B9002010BD1034204650
:203CE0000AF0D0FA08B10020F7E7002120460AF0C5FA094B98420BD10022084920460AF02C
:203D0000B5FA00220521062007F0E6FF0020E4E76FF00400E1E700BF0000AD0B6FD10100DC
:203D200070B400F01F0C400919D001281AD10E4D0CF5E07055F820600C4C344041EA42014B
:203D400041EA83039DF80C2043EA02239DF8102043EA0243234345F8203070BC70474FF053
:203D6000A045E5E70025E3E700030050F0F8FCFF00F01F01400907D0012808D1054A0123C8
:203D80008B40C2F8083570474FF0A042F7E70022F5E700BF0003005000F01F01400907D06B
:203DA000012808D1054A01238B40C2F80C3570474FF0A042F7E70022F5E700BF0003005002
:203DC0002DE9F04F85B080468B460392002423E04FF0FF3638E0039BC3F80C6501270297EF
:203DE0003946B6F1FF3F15D0B1F1FF3F40F01C8158F80A3013F4004F40F01A81029D002261
:203E00000192CDF80090C3F341233A4629463046FFF786FF0134E4B25C4580F00B814FEA1F
:203E2000840A58F82430C3F3C725C3F3C322C3F3080615F0080540F0FF80834911F8029027
:203E400040F2FF129642C3D01B0E222B00F2F78001A252F823F000BFD73D0100E53E0100DD
:203E6000F53E0100033F01003F4001003F4001003F4001003F4001003F4001003F400100CB
:203E80003F400100133F0100293F01003F4001003F4001003F4001003F4001003F40010066
:203EA0003F4001003F4001003F3F01004D3F01005D3F0100713F0100853F0100993F01000A
:203EC0003F4001003F4001003F400100AD3F0100BD3F0100CB3F0100DB3F0100EB3F010027
:203EE000FB3F0100039BC3F814652F4602954FF0FF3176E7039BC3F80865012702973946D7
:203F00006FE7039BC3F810652F4602954FF0FF3167E7039BC3F80865B9F1000F74D02F467C
:203F200002954FF0FF315CE7039BC3F80C65B9F1000F71D02F4602954FF0FF3151E7039B23
:203F4000C3F840650127029700214AE7039BC3F844652F4602954FF0FF3142E7039BC3F8EF
:203F6000606558F80A10C1F300410127029738E7039BC3F8646558F80A10C1F30041012794
:203F800002972EE7039BC3F8686558F80A10C1F300410127029724E7039BC3F86C6558F8A8
:203FA0000A10C1F30041012702971AE7039BC3F82465029501274FF0FF3112E7039BC3F8CE
:203FC00028650127029739460BE7039BC3F83065029501274FF0FF3103E7039BC3F834652A
:203FE000029501274FF0FF31FBE6039BC3F83865029501274FF0FF31F3E6039BC3F83C65BB
:20400000012702973946ECE64F46CDF808904FF0FF314FF00609E4E64F46CDF808904FF0E4
:20402000FF314FF00609DCE6304609F0C8F8DFE60127E4E6002004E06FF0150001E06FF0A2
:20404000850005B0BDE8F08F3C39020010B500240CB1002010BD01224FF40071034B53F888
:20406000340000F069FF0134F2E700BFA8390200F8B505460E4647680BF062FE20B9154B75
:204080001B7843B1002300E0012353B9284609F0E0F9044611E00123F7E784F31188BFF327
:2040A0006F8FEFF31184202383F31288BFF36F8F284609F06CF90028EFD0BB691E70012200
:2040C000B969284609F08AF984F31188BFF36F8FF8BD00BFF725002038B505460C4601F1E8
:2040E000080009F097FD0C4B98420DD105F10C0205F59071207A00F02DFF237A01209840D1
:2041000000F022FF002038BD4521044807F0FBFC6FF00400F7E700BF0000AD0BEC390200FA
:2041200010B50446436819681A69C1F824255A7D93F816C01B7D42EA0C021343C1F86C3505
:2041400009F0D1F900B110BD0249204609F0DDF8F9E700BFD3D4010021F07F4100F5A8707A
:20416000014B43F820107047001001404FF480338340024AC2F84433704700BF0010014083
:204180004FF480338340024AC2F84833704700BF00100140014BD3F80405704700100140F6
:2041A0002DE9F843054689469046FFF7E9FF284609F03FFA4E46032710E0FFF7EBFF044668
:2041C000494609F025FAB0F5000F26D9284609F030FAB8F1000F22D13E19013731462846D5
:2041E000FFF7BAFF2846FFF7C1FFFFF7D3FF0446C11C304609F00CFA0A4B98420AD9284608
:2042000009F00AFA0028D8D1B8F1000FE4D06FF0150000E00020BDE8F8830020FBE76FF06F
:204220001500F8E7FDFF7F00034B044AC3F80823C3F84823704700BF0010014003000F008E
:2042400010B5012383406FEA030C0E4ABFF35B8F52E8001F01EA0C0E42E800E4002CF7D1F6
:20426000BFF35B8F4FF4803282400748C0F80823BFF35F8FBFF36F8F0B4214BF0120002008
:2042800010BD00BF90230020001001404FF480338340144AD2F80423134201D10020704768
:2042A00010B5044601238340DB430F49BFF35B8F51E8002F02EA030041E8000CBCF1000FAE
:2042C000F6D1BFF35B8F22FA04F313F0010F03D1204609F0A1F918B1204609F0AAF901209C
:2042E00010BD00BF001001408C23002001B9704701238340114ABFF35B8F52E800CF4CEA84
:20430000030C42E800C10029F7D1BFF35B8F4FF4803383400A4AC2F80433BFF35B8F094B28
:204320001B68BFF35B8FC34013F0010FDFD0064B4FF40032C3F80021D9E700BF90230020A5
:20434000001001408C23002000E100E038B514461046194609F079F902460D490B68E01A0A
:204360001B184C6844F100040B604C60A2F50013B3F5400F09D2074B1B68190A1B06D41885
:2043800041F10005044BC3E9004505F019FE38BD90140020942300209814002038B50D4BF9
:2043A0001C68250A2406BFF35F8FFFF7F3FE0346001945F10001B3F5801F0AD2064BD3E9D0
:2043C0000023904271EB030303D210F1807041F1000138BD94230020981400202DE9F041AE
:2043E000064614461D469DF820801046194609F02CF90746FFF7D2FFA04271EB050319D267
:20440000201A65EB01011D4B984271F100012FD21B4B03EB0613D3E90223AB4208BFA24284
:2044200001D1002018E0424639463046FFF7B8FE90B11BE0B8F1000F1DD10123B340114A15
:20444000BFF35B8F52E8000F184342E800010029F8D1BFF35B8F0020094B320103EB0616B2
:20446000C6E9024506999950079B7360BDE8F0816FF01500FAE76FF01500F7E7010080000B
:20448000801400208C23002030B585B0FFF7CCFE00231E4AC2F80835002B25DD1B4C022582
:2044A000C4F804531A4B4FF40032C3F8802100220121112007F010FC112007F003FC0123F0
:2044C000A3602360134A1360002402940194124B0093124A0023204609F0C7F82846FEF747
:2044E000DFFC204605B030BD0D4A02EB03124FF0FF304FF0FF31C2E902014FF480329A4026
:204500000249C1F804230133C6E700BF0010014000E100E0902300204D430100FFFF7F00DD
:20452000801400202DE9F04782B00446FFF7AEFE10B902B0BDE8F087FFF730FF82460D4685
:2045400009F086F80646154B03EB0413D3E90289C24575EB09050BD20025304609F080F88E
:20456000002DE6D0009742464B462046A847E0E70A4A230102EB0411D5584F680020D050EE
:204580004FF0FF324FF0FF33C1E902232046FFF7F7FD204609F04DF8DFE700BF801400203E
:2045A00010B50D4BD3F8043313F0020F03D10024002C0BDD10BD0221074808F0F3FF00286B
:2045C000F5D0064A136801331360F0E72046FFF7A9FF0134ECE700BF0010014094230020DA
:2045E00010B584B0B0F1FF3F18D001281BDD154B9842A8BF18460446134B01221A70FFF790
:20460000CDFE124B1A685B68801AB0F5000F0CD20444B4F5000F09D30A4C07E00A4B002271
:204620001A70084CEBE70124E6E7064C00201219029001900649009143F1000309F015F8FB
:2046400004B010BDFFFF7F00F6250020901400204D43010008B5FFF7A1FE024B1B68C01AD0
:2046600008BD00BF9014002008B5074B01225A60112007F02CFBFFF7D7FD044B4FF4003229
:20468000C3F8802108BD00BF0010014000E100E00B4B1A68130103F1804303F5F033D3F89F
:2046A000083813F0FF0F08D00132054B1A60072AEED902606FF01B00704702600020704710
:2046C0009823002070B582B005460C46164601A8FFF7DEFF00283ED14FF080531A69B5FBB7
:2046E000F2F302FB1353002B37D14FF080531A69B4FBF2F302FB134393BB4FF080531A69E0
:204700005B6902FB03F3A3422DD37CB3019B1D4A03F180014FEA011C02EB011142F80C506B
:204720004C60F1B202EB031ECEF8081852F80C2095421ED10CF1804101F5F0314A6894429D
:204740001AD11B0103F1804303F5F033D3F80838DBB2B34213D102B070BD6FF01500FAE7DB
:204760006FF01500F7E76FF01500F4E76FF01500F1E76FF00D00EEE76FF00D00EBE76FF06E
:204780000D00E8E700E0014008B5064B1B68DA6AB2F5807F02D8DB69984708BD6FF00D0073
:2047A000FBE700BFE45B002008B5024B1B681B6A984708BDE45B002008B5024B1B685B6A92
:2047C000984708BDE45B002010B5024C2468E469A04710BDE05B002010B584B00346094A46
:2047E0000DF1040C07CA8CE807001C460C226146184607F0EEFB10B9204604B010BD002416
:20480000FAE700BF0C06020038B505460024042C09D8064B53F824002844FFF7DDFF034630
:2048200010B90134F3E70023184638BD503F020010B584B0044601AB084A07CA83E8070015
:204840000C221946204607F0C4FB10B1002004B010BD201E18BF0120F9E700BF1806020058
:204860002DE9F04186B006460F4615461C4608F076FFE8B909F0AFF8804600BB74B3DFF830
:20488000EC80002409F00EF8A04269D902A9204609F0CEF8024610282AD010F1160F20D005
:2048A0004521334807F02FF9002006B0BDE8F081024645212F4807F026F90020F5E702468D
:2048C00045212D4807F01FF918F1710F01D00020EBE74921294807F016F9F8E7DFF8A080EB
