:020000040000FA
:10000000303D0020C51900009D820000A9190000A4
:10001000A9190000A9190000A9190000000000009A
:100020000000000000000000000000009D1A000019
:10003000A919000000000000A9190000A91900007A
:10004000151C0000151C0000151C0000151C0000EC
:10005000151C0000151C0000151C0000151C0000DC
:10006000151C0000151C0000151C0000151C0000CC
:10007000151C0000151C0000151C0000151C0000BC
:10008000151C0000151C0000151C0000151C0000AC
:10009000151C0000151C0000151C0000151C00009C
:1000A000151C0000151C0000151C0000151C00008C
:1000B000151C0000151C0000151C0000151C00007C
:1000C000151C0000151C0000151C0000151C00006C
:1000D000151C0000151C0000151C0000151C00005C
:1000E000151C0000151C0000151C0000151C00004C
:1000F000151C0000151C0000151C0000151C00003C
:1001000000000000000000000000000000000000EF
:1001100000000000000000000000000000000000DF
:1001200000000000000000000000000000000000CF
:1001300000000000000000000000000000000000BF
:1001400000000000000000000000000000000000AF
:10015000000000000000000000000000000000009F
:10016000000000000000000000000000000000008F
:10017000000000000000000000000000000000007F
:10018000000000000000000000000000000000006F
:10019000000000000000000000000000000000005F
:1001A000000000000000000000000000000000004F
:1001B000000000000000000000000000000000003F
:1001C000000000000000000000000000000000002F
:1001D000000000000000000000000000000000001F
:1001E000000000000000000000000000000000000F
:1001F00000000000000000000000000000000000FF
:10020000DEE61E284CBBCE8F02340000EC0000005E
:10021000C2BF00000100000000000000000000005C
:10022000FFFF02910000000000000000000000003D
:10023000000000000500000000000000DEE61E28AF
:10024000EAAC45B8023400002000000003100000B2
:100250000100000001000000EF880000DEE61E281B
:10026000EAAC45B802340000300000000210000083
:10027000000000000100000045360000AB890000CE
:10028000B18900002388000074000000DEE61E280B
:10029000EAAC45B802340000200000000110000064
:1002A0000200000001000000B9880000DEE61E2800
:1002B000EAAC45B802340000200000000111000043
:1002C00003000000010000003B8A0000DEE61E285B
:1002D000EAAC45B802340000200000000012000023
:1002E0000000000001000000213A000053B94AB9A3
:1002F000002908BF00281CBF4FF0FF314FF0FF302E
:1003000000F00CB8ADF1080C6DE904CE00F036F841
:10031000DDF804E0DDE9022304B07047704700BF58
:1003200030B44FF0000310F8014B11F8015B013AB3
:1003300084EA050443EA0403F5D1A3F101034FEA7B
:10034000D37030BC704700BF4FF0000310F8012B92
:10035000013943EA0203F9D1A3F101034FEAD37053
:10036000704700BF30B411F8014B12F8015B6C40CC
:1003700000F8014B013BF6D130BC70472DE9F04746
:1003800086468C460846089E154674461946002B3C
:1003900040F0C2808542B2FA82F245D94AB1C2F138
:1003A000200300FA02FC2EFA03F3954043EA0C0CFA
:1003B00094404FEA154EA8B2BCFBFEF8230C0EFB8E
:1003C00018CC08FB00F943EA0C43994528D9EB18EF
:1003D00008F1FF3704D2994502D9A8F102072B444E
:1003E000A3EB0903A4B2B3FBFEFC0EFB1C330CFB16
:1003F00000F044EA0344A04214D92C190CF1FF3355
:1004000004D2A04202D9ACF102032C44241A43EADC
:1004100007401EB1D440002334607360BDE8F0870C
:100420004746DDE76346F1E792BB431B01214FEAF4
:10043000154EAFB2B3FBFEFC200C0EFB1C330CFBC5
:1004400007F840EA0343984562D9EB180CF1FF30F6
:1004500004D2984502D9ACF102002B44A3EB080367
:10046000A4B2B3FBFEFC0EFB1C330CFB07F744EA03
:100470000344A7424ED92C190CF1FF3304D2A742F2
:1004800002D9ACF102032C44E41B43EA0040C0E76C
:10049000C2F1200320FA03F1954090402EFA03F3B5
:1004A00003434FEA154EAFB2B1FBFEFC0EFB1C102E
:1004B000190C0CFB07F841EA0041884504FA02F4E4
:1004C00022D969180CF1FF3004D2884502D9ACF169
:1004D00002002944A1EB08019BB2B1FBFEFC0EFB1C
:1004E0001C110CFB07F743EA01439F420ED9EB189E
:1004F0000CF1FF3104D29F4202D9ACF102012B442E
:10050000DB1B41EA004192E76046E3E76146F7E71B
:100510006046A3E76346B7E7834206D916B90021D0
:1005200008467BE7C6E900E0F9E7B3FA83F78FB93D
:10053000834201D3724508D8BEEB020460EB03038B
:1005400001209C461EB9002168E73846FAE7C6E953
:10055000004CF8E7C7F1200CBB4022FA0CF41C4316
:100560002EFA0CF120FA0CF3B84001434FEA14497B
:100570000EFA07F5B3FBF9F81FFA84FE09FB1830F1
:100580000B0C08FB0EFA43EA00439A4502FA07F205
:1005900040D9E31808F1FF3004D29A4502D9A8F1F6
:1005A00002002344A3EB0A0389B2B3FBF9F809FB69
:1005B000183308FB0EFE41EA03418E452CD9611821
:1005C00008F1FF3304D28E4502D9A8F10203214479
:1005D00043EA0040A0FB0298A1EB0E014145CE4644
:1005E000434602D306D14D4504D2B9EB020E68EB67
:1005F00004030138002EA6D0B5EB0E0261EB030117
:1006000001FA0CFC22FA07F34CEA0303F940C6E9AD
:10061000003198E74046C5E74346D9E707B50023D0
:10062000044800931A46102100F09CF803B05DF8CE
:1006300004FB00BF589A000013B50C480469836896
:1006400001A95B689847021E07D00BDA08484521CC
:1006500007F08AFD002002B010BD2368019A5A40BD
:10066000C2F3C012101E18BF0120F4E7A4940000CA
:10067000FEA0000008B5044807F090FC00F00CFB59
:1006800000F022F8002008BD22A10000024608B5B3
:100690000648452107F068FDEFF31183202383F31B
:1006A0001288BFF36F8F032000F038FB3CA10000DD
:1006B0000446024608B50348452107F055FD20468B
:1006C000FFF7E4FF61A1000010B51248492107F0CF
:1006D0004BFD114C204608F0EDFB28B9BDE8104059
:1006E0000E48452107F040BD2269A168136823F434
:1006F000807313600B684FF4C0220821204698478E
:10070000021E05DABDE810400548452107F02CBD62
:1007100010BD00BF88A10000A4940000ACA100009F
:10072000D2A1000030B403460A46006819798368F4
:1007300005699C697CB1130206D52D6801238B40A5
:100740002B4218BF82F0C062054BA446134030BC58
:1007500002F0B07260476FF0570030BC704700BFC6
:10076000400000062DE9F04715460268DDF82080BC
:10077000126804460E461F4649210379384807F09F
:10078000F3FC206808F096FB236830B9BDE8F04719
:100790001A683448452107F0E7BCE28821793243E2
:1007A00042F4803CD002D3F80890D3F810E006D58C
:1007B00012F4402F03D0D20748BF8CF4402CDEF84F
:1007C0000060012088401CF0010F14BF06438643DF
:1007D000CEF80060D9F800602CF480121846B047BB
:1007E00048B122680890237912681F484521BDE866
:1007F000F04707F0B9BC18F4800F22D041462046DC
:10080000FFF790FF30B122680890237912681748EB
:100810004521ECE717B30DB3226823791268144819
:10082000492107F0A1FC2379012202FA03F3C5E96B
:10083000017320688368DB6983B12946BDE8F0470E
:1008400018474FF400112046FFF76CFF30B12268C3
:1008500008902379126807484521C8E7BDE8F0876A
:1008600014A2000033A200004DA2000078A20000F4
:10087000B0A20000D7A200002DE9F04F89B00023FC
:1008800005460E46C0B204A9049300F0B7FD014628
:1008900050B10090334624482A46452107F064FCB5
:1008A000002009B0BDE8F08FDFF88C80049841F299
:1008B0003C03424607F066FC044668B141F23C0343
:1008C0000193049B02905B680093184833462A46C4
:1008D000452107F049FCE3E7DFF860A0DFF860B0EE
:1008E00005AF9BE807005AF8043B08EB030987E8CB
:1008F00007000C223946484608F038FB10B9B9F118
:10090000000F09D10134052CEBD1094833462A46A2
:10091000452107F029FCC3E7064833462A4649210A
:1009200007F022FC0120BCE70DA300003BA3000060
:10093000B1A3000082A30000E4120020609A00002E
:100940003097000073B51446CDE9002305460246F2
:100950001E460B480B46492107F006FC2046294657
:1009600000F052FB2046294600F054FB044620B913
:1009700004483246452107F0F7FB204602B070BD1F
:10098000EDA300003BA4000008B50948452107F08D
:10099000EBFB0848492107F0E7FBEFF31183202325
:1009A00083F31288BFF36F8F022000F0B7F900BF06
:1009B00099A40000BDA4000030B5012285B089488B
:1009C000492107F0D1FB8848492107F0CDFBFFF70B
:1009D00025FE00F0E1F9FFF72FFE78B383480A22E5
:1009E000492107F0C1FB08F093FA4FF47A72A0FB9B
:1009F000020302FB0133C00940EA4364002000F017
:100A000059F9012000F05CF9FA2007F0DBF9002029
:100A100000F056F9012000F04DF9FA2007F0D2F964
:100A2000FFF70AFE0546F8B97148492107F09CFB1B
:100A3000284600F03FF9284600F042F96D484FF48F
:100A400050430022492107F08FFB4FF480534FF4AD
:100A500050424921684807F087FB4FF4FA7007F0CD
:100A6000B1F9002005B030BD08F052FA4FF47A72A7
:100A7000A0FB020302FB0131C30943EA41631B1BD4
:100A800042F20F729342B9D949215C4807F06CFBDE
:100A9000012000F00FF9012000F012F95849072059
:100AA000FFF7EAFEA8B157490C20FFF7E5FE80B139
:100AB00055491120FFF7E0FE58B154491820FFF7BF
:100AC000DBFE30B1524B534904220520FFF73AFFB9
:100AD00008B9FFF759FF504B494906220720FFF795
:100AE00031FF0028F5D04D4B46490B220C20FFF773
:100AF00029FF0028EDD04A4B434910221120FFF76F
:100B000021FF0028E5D0474B404917221820FFF766
:100B100019FF0028DDD0444B44481B22492107F02F
:100B200023FB002403A91B20039400F067FC031E91
:100B300005DA3F481B22452107F016FBC9E7039B56
:100B40003C489A680192DA68126800925B681B223E
:100B5000492107F009FB03982146826807F056FBFC
:100B6000031E4FF01B0207DA3348452107F0FCFA59
:100B7000039807F006FBACE74921304807F0F4FA88
:100B8000039807F0FEFA2E48492107F0EDFA2046B7
:100B900001F0BEF8044628B102464521294807F075
:100BA000E3FA96E700F086F8204600F089F8FFF7B0
:100BB00043FD50B92448492107F0D6FA4FF4FA70A2
:100BC00007F000F9012000F0F5FA2048492107F06C
:100BD000CBFAFFF731FD0028ECD00A2007F0F2F83D
:100BE000F7E700BFE4A40000FFA400002DA500006B
:100BF00080A50000C5A7000002A8000099A500007C
:100C0000C4A50000CBA50000D2A50000E6A5000009
:100C1000FCA5000006A6000014A6000017A6000010
:100C20001AA600002AA600003CA6000050A600005C
:100C30006FA600009BA60000D3A60000FCA6000043
:100C40002DA700005EA700007EA7000094A700006B
:100C500013B50446006808F02DF948B922682379D5
:100C600012680B48452102B0BDE8104007F07CBA7D
:100C70004FF4B011204607F072F838B122680090A6
:100C8000237912680348452107F06EFA02B010BDBF
:100C900048A8000064A8000008B50448FFF7D8FF82
:100CA000BDE808400248FFF7D3BF00BF7C9A0000B0
:100CB000749A00000146014807F070B87C9A000061
:100CC0000146014807F06AB8749A000010B503782D
:100CD00004467BB9FFF7B0FC48B901230C482370E8
:100CE000492107F041FA0B48492107F03DFA002459
:100CF000204610BDFFF7A0FC04460028F7D00648A8
:100D0000492107F031FA642007F05CF8F0E700BFF2
:100D10008EA80000AAA80000DAA8000007B50446C3
:100D2000FFF78AFC80F00103DBB28DF807301BB1BE
:100D30001848492107F018FA0020FFF7C1FF0025E5
:100D4000AC420BD10925642007F03CF80DF10700F7
:100D5000FFF7BCFF68B9013DF5D1F0E70120FFF7CF
:100D6000A9FF642007F02EF80DF10700FFF7AEFF92
:100D700010B1012000F01EFAFFF79CFF642007F07D
:100D800021F80DF10700FFF7A1FF0028F1D101358F
:100D9000D6E700BFAAA8000038B5204D204C214856
:100DA0002A464921641B07F0DFF91F4822464921E2
:100DB00007F0DAF9B5F1005F0BD01C491C4823227B
:100DC00007F0ECF81B484FF00052294607F0E6F810
:100DD0000BE0C4F30B0393B114491548282207F024
:100DE000DDF81548214607F0D9F8EFF311832023E9
:100DF00083F31288BFF36F8F0420FFF78FFFB4F5E2
:100E0000805F09D009490A48332207F0C7F80B4828
:100E10004FF480522146D9E738BD00BF00000020C2
:100E200000100020FEA800001EA900003CA9000040
:100E300070A900008CA90000D0A9000004AA00003D
:100E400030B5B5B00B460191024605460C4604A8E4
:100E5000C02106F0D5FB011E05DA2146284600F028
:100E600091F935B030BDBF2913DD0B4B18689B8855
:100E7000ADF80C309DF80C308DF8CE300023029088
:100E8000CDF8CA008DF8CF30BF2104A806F09FFF2F
:100E9000E3E70029E1D0F8E744AA000038B50546A9
:100EA0000C4607F084F9034638B16A6804482244C6
:100EB000452107F059F9FFF767FD012038BD00BF54
:100EC0004AAA00002DE9FF4705460E46994602A9A9
:100ED0000023C0B2CDE90233174600F08FFA034673
:100EE00030B12A462D48452107F03EF9FFF74CFD69
:100EF00003A9F0B200F082FA044610B1034632466C
:100F0000F0E70298039B82689B689A4202D02448CB
:100F10004521E9E777B1214607F05EF950B1029B20
:100F200001909A6800925B681E482A46452107F0A6
:100F30001BF9DBE7039BDFF874A09F68039857B9A0
:100F40000125039807F01DF9029807F01AF92846C1
:100F500004B0BDE8F087B7F5807FB84628BF4FF4EE
:100F6000807843465246214607F00CF948B1039B6E
:100F70005B68009023440C483246452107F0F4F8A2
:100F8000B4E70298434652462146C8470546002822
:100F9000D7D04444A7EB0807D0E700BF78AA0000E9
:100FA000A1AA0000C4AA00000CAB0000202400206D
:100FB0002DE9F0411746114A06460D46984607F0BE
:100FC000E1F8044640B1726803462A440C484521C2
:100FD00007F0CAF8FFF7D8FC08494246384607F040
:100FE000C5FF40B1726807482A44492107F0BCF8A0
:100FF0002046BDE8F0810120FBE700BF2023002050
:1010000045AB000078AB0000014B0122FFF75ABF4F
:101010009D0E0000014B0022FFF754BFB10F0000EE
:101020002DE9F043DFF83890DFF8388085B00746C7
:10103000002601AD98E8070059F8044B3C4485E8C8
:1010400007000C222946204607F090FF00B91CB982
:101050000136052EEED10024204605B0BDE8F08310
:10106000849A00003C97000037B504461E480D46A0
:1010700006F094FF2CB91D4803B0BDE8304006F0DF
:101080008DBFA1691A4806F089FFA069214607F0C3
:10109000E2FC40B9174806F081FF204603B0BDE8E6
:1010A000304002F07DBD1448616906F077FF0DF114
:1010B000060007F0B0FC40B1104806F06FFF104882
:1010C00006F06CFF0023ADF806306069BDF806300D
:1010D000984203D9294680B202F0E4FA204602F091
:1010E000A1F903B030BD00BF9DAB0000BBAB000059
:1010F000D6AB0000FEAB00002EAC000044AC0000FC
:101100006CAC000070B54FF45041002002F078F94B
:10111000064620B1134806F041FF002070BD07F0DD
:10112000F6FC044607F0F7FC05462046FFF778FF7B
:1011300004462846FFF774FF054618B16269436903
:101140009A4209D300212046FFF78EFF012128464D
:10115000FFF78AFF0448DEE70121FFF785FF3146EC
:101160002046F5E7AFAC0000DDAC0000014B1B688A
:10117000184700BF00100020014B1860704700BFE7
:101180000010002030B585B004460D461022002125
:10119000684608F04EF802238DF802302A46044BC8
:1011A00001932146684605F031FD05B030BD00BF12
:1011B0006D11000008B50446EFF31183202383F37B
:1011C0001288BFF36F8F02F0E5F8204600F024FC90
:1011D000024806F0E3FE07F07CF8FCE71BAD0000D8
:1011E0002DE9F047058B04462807904611D40229C3
:1011F00005F0070540F0CC80204606F0DCFE78B113
:101200000138218B042811D8DFE800F0C2106D8569
:10121000950001290CBF45F0100545F020052583F8
:1012200088F31188BFF36F8FBDE8F08701F0070ADC
:10123000AA4500F0A5800027B9463E46A368002BCA
:1012400000F0BC8041F00801218388F31188BFF3CE
:101250006F8FA168002900F0BA800D68002900F0A6
:10126000B680D1F80480334652462046C047002D50
:1012700076D02B6829461D46F0E701F007035A1F78
:10128000012A1BD8002221F00701062B276889B20A
:10129000C4E9002209D13B4603E0628B013262833C
:1012A0001B68002BF9D141F002012183204606F092
:1012B00082FE00287AD041F0200176E0042B0AD18A
:1012C00021F0070189B22183204606F074FE10B197
:1012D00041F020012183218B01F0070AAA454FD05C
:1012E0000027B946AAE7236921F0070141F006016A
:1012F000062DD3F8009021832DD1B9F1000F3FD0F6
:1013000041F00801218388F31188BFF36F8F3A49B8
:101310002046C84729E021F00701236941F0040174
:1013200089B2042DD3F804902183E6D000273E46ED
:101330004FF0040A82E721F00701236941F005011B
:1013400089B2052DD3F808902183D6D000273E46D8
:101350004FF0050A72E700273E464FF0060A6DE798
:101360002B4687E7B9F1000FD1D1EFF31188202385
:1013700083F31288BFF36F8F238B23F0080323833B
:10138000258BEA062ED525F01003238305F00705EB
:101390006669218B002EBFF670AF00232768C4E971
:1013A000003321F0070141F001012183218B01F07D
:1013B000070AAA454FF000097FF440AF002F9CD0E8
:1013C00041F00801218388F31188BFF36F8F002F4C
:1013D000C8D03D68394633465246204606F017FECF
:1013E0002F46F4E7AB067FF51BAF25F020032383E0
:1013F00005F0070500E700BF3B80000073B5154A04
:10140000126803460D46DAB113490868002181428B
:1014100009DB0022114800924521114A06F0A4FE82
:101420006FF0010014E0144610322678B3420AD05F
:101430000131ECE707F03EFD40B12C60002007E0F1
:101440006FF00C0004E0E0680028F3D16FF01200A8
:1014500002B070BD04100020989A000044AD000056
:1014600066AD000008B54FF01022D2F8100210F45B
:101470007F4018D00C4B0121C3F80415BFF34F8FE8
:10148000BFF36F8F6FF47F41C2F81012D3F80024BE
:10149000002AFBD00020C3F80405BFF34F8FBFF331
:1014A0006F8FFFF787FE08BD00E0014008B50448D4
:1014B00006F074FDBDE80840024806F06FBD00BFAD
:1014C00086AD0000BBAD0000014805F095B900BF36
:1014D0009C9C000073B506460C46002938D08B68EA
:1014E0000093D1E900232248452106F03DFE6369BF
:1014F0000093D4E903231F48452106F035FEE26935
:101500001D48452106F030FE256ABDB1AB68009349
:10151000D5E900231948452106F026FE6B690093A2
:10152000D5E903231648452106F01EFE2B6A0093D9
:10153000D5E906231348452106F016FEA26A124893
:10154000452106F011FEA2691048452106F00CFE67
:10155000012E06D1EFF305820D48103A452106F021
:1015600003FE2146304602B0BDE8704003F08EBD58
:10157000E9AD00001DAE000051AE000065AE0000F8
:1015800099AE0000CDAE000001AF000018AF000022
:101590004BAF000030BFFFF7FDBF00BF10B5204CC0
:1015A0002048452106F0E0FDA36A990136D51E4882
:1015B000452106F0D9FD1E20A36ADA0104D51B4897
:1015C000452106F0D1FD1F20154CA36A1B0304D54D
:1015D0001748452106F0C8FD2120A36A590304D508
:1015E0001448452106F0C0FD22200D4CA36A9A0341
:1015F00004D51148452106F0B7FD2320A36ADB037B
:1016000004D50E48452106F0AFFD2420044A936A14
:101610006FEA03436FEA1343936210BD1D20CBE7CB
:1016200000ED00E063AF000080AF000098AF000065
:10163000B7AF0000DAAF000004B0000023B0000034
:1016400070B5284C06460D462748452106F08CFD0E
:10165000A36AD9043BD52548452106F085FD17200E
:10166000A36A1A0504D52248452106F07DFD1820FD
:101670001C4CA36A9B0511D51E48452106F074FD3C
:10168000A26BA36A180408D51B48452106F06CFD1F
:101690001EB1A36A23F40043A3621920114CA36A6C
:1016A000590504D51548452106F05EFD1A20A36AA8
:1016B000DA050ED51248452106F056FD1B20094AD1
:1016C000936A43F47F43936200232B7070BD16200E
:1016D000C6E7A36A9B04F2D50A48452106F044FDFB
:1016E0001C20ECE700ED00E053B000006EB00000FD
:1016F00084B000009CB00000BAB00000D4B000007C
:10170000F4B0000011B1000070B5294C06460D463A
:101710002848452106F028FDA36AD80646D5264864
:10172000452106F021FD1120A36A190704D523489D
:10173000452106F019FD12201D4CA36A9A0711D508
:101740001F48452106F010FD626BA36A1B0608D5F1
:101750001C48452106F008FD1EB1A36A23F0800352
:10176000A3621320124CA36ADE0704D51648452154
:1017700006F0FAFC1420A36A9C0604D51348452100
:1017800006F0F2FC15200A4B9A6AD10658BF9A6AF5
:101790009A6A920642BF5A6A22F400525A629A6AC0
:1017A00042F0FF029A6200232B7070BD1020BBE74D
:1017B00000ED00E045B1000060B1000084B0000021
:1017C00098B10000B5B10000D0B1000011B1000027
:1017D0002DE9F04F9946634BD3F804A08DB08046B5
:1017E0000D461746CAF30804002686F31188BFF396
:1017F0006F8F02F07F43B3F17F4F07D102F00C03EC
:10180000082B14D15848452106F0AEFC0026354679
:101810004FF0000BE31E8DF803B0092B00F28F8010
:10182000DFE803F00A82867E8D8D8D8D8D8A11070B
:101830005CBF05460126EBE74C484A4C452106F0C3
:1018400093FC8DF803B0E36A9A0705D54848452113
:1018500006F08AFC002432E0E36A002B02DA4548F5
:101860004521F5E7E36A5B00F4D54348452106F0DE
:101870007BFC6369AA6943F480736361BFF34F8F94
:10188000BFF36F8F636932F8022C23F480736361B6
:10189000BFF34F8FBFF36F8F4DF602739A4208D09C
:1018A000A36ADBB273B30DF103010120FFF72CFF34
:1018B00038E02A683148452106F056FC2C689DF82E
:1018C0000330E3B901AA05F1200C286869681346C2
:1018D00003C3083565451A46F7D1CDE90998089B39
:1018E0000B97002E38D0C3F3080222B96FEA5323B6
:1018F0006FEA4323089301A92046FFF7EBFD0DB0E3
:10190000BDE8F08FA36A13F47F4F05D00DF10301FA
:101910000120FFF795FE05E0A36AB3F5803F99D358
:10192000FFF73CFE0446CAE70DF103010020BDE7C6
:101930000DF103010020ECE71148452188E711492A
:10194000114A12481AF4F87F08BF0A46A4F110039E
:10195000452106F009FC7DE723F4FF7323F0010322
:10196000C8E700BF00ED00E022B2000052B2000064
:101970006EB2000094B20000A7B20000CBB200002B
:10198000ECB20000F4B1000009B2000015B3000091
:10199000044B5A6942F010025A615A6922F0080257
:1019A0005A61704700ED00E0EFF30880EFF3098122
:1019B00001B506B42DE9F00F6B467246FFF708FF3C
:1019C0000AB001BD002080F31488BFF36F8F02F0CE
:1019D0000FF900200D490860BFF34F8F0C4880F3CA
:1019E000088800F02BF8202080F3118809484FF474
:1019F0000061401880F30988EFF314800221084346
:101A000080F31488BFF36F8F00F0A8F894ED00E026
:101A1000303D002030250020BFF34F8F0549064B95
:101A2000CA6802F4E0621343CB60BFF34F8F00BF7C
:101A3000FDE700BF00ED00E00400FA0572B60023E8
:101A400083F31388144B4FF0FF32C3F88020C3F8A0
:101A50008420C3F88820C3F88C20C3F89020C3F8F2
:101A60009420C3F89820C3F89C20C3F88021C3F8C1
:101A70008421C3F88821C3F88C21C3F89021C3F8CE
:101A80009421C3F89821C3F89C2162B6BFF34F8F0D
:101A9000BFF36F8F704700BF00E100E01EF0040F3E
:101AA0000CBFEFF30880EFF30980816911F8021C85
:101AB0000229FFD001B5EFF3098106B42DE9F00F3B
:101AC000694606F0D1FB0AB001BD00BF40B2002854
:101AD00007DB044A4109012300F01F00834042F85C
:101AE0002130704700E100E040B200280CDB4309E0
:101AF000064900F01F0020330122824041F82320D4
:101B0000BFF34F8FBFF36F8F704700BF00E100E05E
:101B1000054B420900F01F0053F82220012303FA6D
:101B200000F01040704700BF00E100E040B2002824
:101B3000A8BF00F1604001F10101B8BF064B4FEAB8
:101B40004111ACBF00F5614000F00F00C9B2B4BF55
:101B5000195480F80013704714ED00E0144A08B5DA
:101B6000144B22F07F029A60BFF34F8FBFF36F8F49
:101B7000D3F8882022F47002C3F88820D3F8882094
:101B800042F4A002C3F888204FF04042C3F8342248
:101B9000BFF34F8FBFF36F8F0023E1EE103A03F0D6
:101BA000DDFA03F01FFB00F029F803F0E3FA00BFB1
:101BB0000000000000ED00E080B5154606460C462A
:101BC0000022E1EE102A074F87F309884FF000004A
:101BD00005498847204629461A46B04703488047AA
:101BE000FEE700BF303D0020B5820000C382000048
:101BF000014B10221A61704700ED00E004480023F9
:101C00002021C2180133302B82F80013F9D170471C
:101C100000E100E008B5EFF30583064A103B02EB54
:101C2000C30152F8330049688847BDE8084006F010
:101C30003CBB00BF3095000008B5024B1B689847BD
:101C4000002008BD48110020034B044A1860937817
:101C500043F00203937070474811002008100020E1
:101C600008B50549054A064821F00701521A06F051
:101C70003BF9002008BD00BF37BD002000FE032057
:101C80004C110020044A0123C2F840354FF0804235
:101C90000020C2F87835704700E0014020B1034BC6
:101CA000800143F001031847704700BFC097000050
:101CB00038B54568286807F0FDF838B9114845215E
:101CC00006F052FA6FF01204204638BD2868836887
:101CD0001B689847041E05DA0B482246452106F08A
:101CE00043FAF1E7D5E901231A44A24207D9234672
:101CF0000648452106F038FA6FF01504E4E70024A1
:101D0000E2E700BF31B3000051B3000078B3000038
:101D100007B501238DF807000DF1070200210348E4
:101D200006F058FB03B05DF804FB00BF1C950000F3
:101D3000084B70B5C31A0D4607499B10044659431A
:101D40000648402206F089FB2B4601462046BDE8A6
:101D5000704018476C110020B76DDBB67C94000012
:101D600073B50C4C0C4A4023041B00930D460B46E4
:101D70000A49A41061430646094806F099FB011E72
:101D800005DA30462B4602B0BDE87040184702B075
:101D900070BD00BF6C1100201F850000B76DDBB661
:101DA0007C94000010B5EFF31184202383F3128894
:101DB000BFF36F8F074A136823F00201DB0711603E
:101DC00002D4012006F057FF84F31188BFF36F8F10
:101DD00010BD00BFBC110020002270B501210446D7
:101DE0001046FFF7A3FE0F4802F09AF80E4B9842F8
:101DF00015D102F0A5F826690C49304606F02BF9FA
:101E000000280BDB012535642469084904F11C0016
:101E100006F021F9002801DBE564002070BD6FF0B9
:101E20000400FBE7F91E00000000AD0BD09C000091
:101E300030B4104B0C2202FB003301460020D3E9E2
:101E40000E529863EFF31180202484F31288BFF3BD
:101E50006F8F1C6C04F0C00444F002041C6480F317
:101E60001188BFF36F8F1DB12B46034830BC184754
:101E700030BC70476C1100207C94000010B4EFF36C
:101E80001182202383F31288BFF36F8F18480168F3
:101E900041F002040460C80708D482F31188BFF33C
:101EA0006F8F01205DF8044B02F05CB84FF0804169
:101EB000D1F80C04D1F80C14C907EED5EFF311805A
:101EC00083F31288BFF36F8F0A490B6C03F0C003D2
:101ED00043F002030B6480F31188BFF36F8F82F32A
:101EE0001188BFF36F8F00205DF8044BFFF7A0BF90
:101EF000BC1100206C11002010B1012804D07047E3
:101F0000034B1B6C5B0701D1FFF792BF704700BF0B
:101F10006C11002038B52349BFF35B8F04460122C2
:101F200051E8003F41E800200028F9D1BFF35B8F62
:101F300033B91D491D484B60CB608A6006F09EF89E
:101F4000631E012B1ED806F0DDFFE0B9184B1B788D
:101F5000CBB14FF080430222C3F8082303464FF071
:101F60008041D1F81854D1F81824ED03F9D502F0C6
:101F70000302022A01D0012CF3D168B183F3118846
:101F8000BFF36F8F38BDEFF31183202282F31288E5
:101F9000BFF36F8F0120E2E74FF080430222C3F8C6
:101FA0000423EFE768110020581100208811002059
:101FB0002825002010B5044C2046FFF7DDF8204608
:101FC000FFF742FE002010BDCD1F000073B50C4E80
:101FD0008DF807000446032501220DF107010020BA
:101FE00003F03AF820B101233370204602B070BDEF
:101FF0003378002BF9D0013DEED13570F5E700BF05
:102000002125002008B5074806F054FF38B10648DE
:10201000FFF71AFE0448FFF7AFF8002008BD6FF085
:102020001200FBE7B89400002D2000000A2838B504
:10203000074D044604D1AB680D215B6828469847DC
:10204000AB6803485B68E1B29847204638BD00BFE3
:10205000B894000000F1744000F5A6000A289ABF69
:10206000024B33F910006FF00F007047E8A000003A
:10207000024B0B6001231360704700BF909D00006E
:1020800000487047109D000037B50D464168B1B15A
:10209000D1E900138468A4B1D4E9002494B18BB1D0
:1020A0009C4208D10133092B00780ED902465721F2
:1020B000104806F059F86FF0150003B030BD0B461C
:1020C000E8E7224601332344EDE78DF8013040F282
:1020D00001138DF80000ADF80230684600238DF83A
:1020E00004308DF8055002F041FE03B0BDE83040E9
:1020F000FFF7B0BF05B400000268154BFF2A08BF08
:102100004FF0FF32C3F824254268FF2A08BF4FF082
:10211000FF32C3F828258268FF2A08BF4FF0FF323C
:10212000C3F83025C268FF2A08BF4FF0FF32C3F85A
:1021300034250269FF2A08BF4FF0FF32C3F8382563
:102140004269FF2A08BF4FF0FF32C3F83C257047B1
:102150000090024038B50F4B994204460FD1EFF37F
:102160001180202383F31288BFF36F8F1D462378DD
:1021700033B10023237080F31188BFF36F8F38BD14
:1021800006F0B4F8EFF3118085F31288BFF36F8F78
:10219000EDE700BF0000AD0B2DE9F04F824685B0A2
:1021A0000E46904672B1002B00F08E80002E4168E2
:1021B00003DBC96AF2188A4209D9444832464521EC
:1021C00005F0D2FF6FF0150005B0BDE8F08F754245
:1021D00005F003059D4228BF1D46D8F1000202F01C
:1021E000030208F0030758BF57427F4207F0030776
:1021F0009F4228BF1F465A1BDB1B23F0030322F01C
:1022000003099945C8BF994602F0030BC8BFA2EB6A
:10221000030BB9F1000F19D008EB070372194946F7
:102220001846019306F0E0FD04460146DAF8100076
:10223000FFF790FF264A94423CD1BD4206D0019B55
:102240004A46194608EB050006F0D9FFBDB1C5F1B5
:102250000407F21B042102A806F0C6FD044601464D
:10226000DAF81000FFF776FF194B9C4222D107F1F4
:1022700008032A460DEB0301404606F0B2FFBBF10E
:10228000000F16D0082172194A440DEB010006F028
:10229000ABFD04460146DAF81000FFF75BFF0C4B7C
:1022A0009C4207D109EB05005A4602A9404406F0BA
:1022B00098FF074CDAF8100006F078F9204605B0D0
:1022C000BDE8F04FFFF7C6BE18467DE72DB400000D
:1022D0000000AD0B2DE9F3470E46074641681D4649
:1022E00090469AB193B1042B01D9AB070ED116F0E9
:1022F00003000BD1002E03DBCA6A731993420BD97A
:1023000037482B463246452105F02EFF6FF0150465
:10231000204602B0BDE8F08706F015F9044630B15A
:10232000012006F010F9386906F040F9F0E7032DB6
:102330001ED8042132460DEB010006F055FD04467F
:1023400001463869FFF706FF264B9C4235D12A46E5
:10235000414601A806F045FF042132460DEB01007D
:1023600006F03FFD044601463869FFF7F3FE24E01E
:1023700008F06043B3F1005F02D118F0030F2BD0D7
:10238000DFF860A0042DA94628BF4FF004094A4693
:10239000414601A806F025FF3246494601A806F04D
:1023A00020FD044601463869FFF7D4FE544504D1A8
:1023B000B5EB0905C8444E44E4D12046FFF74AFE78
:1023C0000446012006F0BFF80546386906F0EEF82D
:1023D000002C08BF2C469BE7324629464046BFE703
:1023E0007BB400000000AD0B2DE9F047C1F30B03F7
:1023F000D0F8048007460E46154622B96FF0150442
:102400002046BDE8F087C2F30B001843F6D100293F
:1024100004DB8B18D8F82C20934206D90A4636489C
:102420002B46452105F0A0FEE8E706F08CF80446AF
:1024300000285CD1DFF8D490D8F82C30AB4217D10B
:1024400006F0D5FCAA46044638692146FFF782FE0D
:102450004C4532D15644A5EB0A05012006F088F818
:10246000041E3BDB14F00104F7D1002DE4D12EE073
:10247000B5F5803F09D3B3B253B93146012002F01C
:10248000F3FC4FF4803A0446DEE7B5F5805F09D3EC
:10249000C6F30B0030B9314602F0E6FC4FF4805A27
:1024A0000446D1E71548164C2B463246452105F027
:1024B0005BFE13493869FFF74DFE12482B46324642
:1024C000452105F051FE2046FFF7C4FD04460120DA
:1024D00006F039F8002C08BF044608E00A482B46ED
:1024E0003246452105F040FE012006F02CF83869FF
:1024F00006F05CF884E700BFCAB4000019B500001C
:102500000400AD0B5EB500003CB500000000AD0B53
:102510002DE9F04743685D6B94B007460EAA002191
:10252000284606F0AEF8041E6FDB0E9B2A68197968
:10253000186800F09FFB041E67DB002201212920A0
:10254000FFF7F4FAD7F804803A696D49404602F083
:10255000EDFBFFF77FFD041E52DB6A4D0FCD0EAC85
:102560000FC495E8030000260DF1140984E8030068
:102570000596AB23C9E901668DF81430624BD3F898
:102580002425D2B20892D3F82825D2B20992D3F8E2
:102590003025D2B20A92D3F83425D2B20B92D3F8B6
:1025A0003825D2B20C92D3F83C350EA8DBB20D938D
:1025B000FFF7A2FD012002F02FFC08AD01462846DE
:1025C000FFF79AFD514B994223D131464846FFF718
:1025D0005BFD041E14DB032006F067FC4FF0030ACA
:1025E0009F2331460EA8CDE90E66CDF82090CDF898
:1025F00024A08DF838301095FFF746FD041E0BDA45
:1026000002F028FC08B102F013FC204614B0BDE82B
:10261000F0876FF00404F3E75246494608F13000B2
:1026200006F0A4FCB0B198F83230039398F831303A
:10263000029398F8303001939DF8163000939DF87E
:1026400014209DF815303248452105F08DFD6FF0BE
:102650001204D5E77A68537F023B012B10D9127F11
:10266000023A022A8CBF00270127022005F080FFD2
:10267000041E07DA27482246452105F075FDBFE70D
:102680000127F2E7E3B2C4F34004A74201D10024DA
:10269000B6E783F0020300260120ADF810608DF844
:1026A000113005F065FF041E0FDA1B482246452154
:1026B00005F05AFD19491A4A1A48002F08BF0A4660
:1026C0002346452105F050FD9AE704AB089301210C
:1026D00002230EA88DF810400E96099310968DF8DF
:1026E00038100F95FFF7D0FC041E07D1012005F02C
:1026F0003FFF041EDEDBE307F8D4C8E780DAD9E742
:102700003F85000048970000009002400000AD0B9C
:102710008BB50000C2B50000D7B5000085B500003C
:1027200081B50000F5B50000024B0B60012313607A
:10273000704700BFC011002000487047AC9D0000EA
:1027400010B506F04AFB034C206006F042FB6060C7
:10275000002010BDC011002070B50D462846194656
:1027600016461C4605F027FF40B9084823462A466E
:10277000452105F0F9FC6FF0150070BD24B122462B
:102780002946304606F02DFD0020F6E720B6000071
:102790004FF08042D2F81015D2F8103501F01E012A
:1027A00023F01F030B4343F00103C2F81035024B23
:1027B00000221A70704700BF242500204FF080537C
:1027C000D3F83031082B20D14FF08042D2F81015C9
:1027D000CB071AD5D2F8103501F01E0123F01F03E4
:1027E0000B43C2F81035D2F808315BB1D2F810357E
:1027F00023F01F030B4343F00103C2F810356FF0C1
:102800008B007047024B01221A700020704700BFF6
:10281000242500202DE9F0410F46154606F0D9FA8F
:1028200029460646384605F0C6FEB84660B3B7FBF3
:10283000F6F306FB137323B9B5FBF6F406FB145449
:1028400044B114482B463A46452105F08DFC6FF003
:10285000150413E0AE4211D806F0BBFA0E4F06463F
:10286000FFF7ACFF044660B9404601F0F5FF3B7846
:102870000BB1FFF78DFFAD1BB044F1D12046BDE891
:10288000F0816FF08B04F9E704482B463A46452166
:10289000DBE700BF42B600002425002020B6000080
:1028A0002DE9F8430E463046194617461C4605F0FA
:1028B00082FE48B91B4823463246452105F054FCA8
:1028C0006FF01500BDE8F88346EA040515F003052E
:1028D00004D01548234632464521EFE7FCB1DFF826
:1028E00050902B19032BA6EB050806D80F4AD2F8F7
:1028F0000034DB07FBD50020E4E7FFF75FFF58B9A2
:102900007B1B4046196801F0C7FF99F800300BB1F6
:10291000FFF73EFF043DE4E76FF08B00D2E720466F
:10292000D0E700BF20B6000066B6000000E001401E
:1029300024250020F0B54068057B01F01F0444EA1F
:102940004514056987B0002D64D0B2F5001F00F171
:10295000100506D12146284606F00DFA002007B0E2
:10296000F0BD01AE0027B2F5800F0197776039D135
:10297000B3F1007F14BF052304238DF80430002336
:10298000CDE904630393836823FA01F111F0010197
:102990001AD1B2F1A07F17D104F01F03620903F529
:1029A000E0732AD0012A3BD11F4A52F82330DB07BB
:1029B0000AD40DF1030632462146284601F0A6FD51
:1029C0001A4B98421CD0029603AA2146284601F0D1
:1029D0005FFC174B984220D101222146284601F086
:1029E000F9FDBBE7B3F1C06F05D0B3F1007F14BFB1
:1029F00001230223C1E70323BFE74FF0A042D4E73E
:102A00003146284601F0E0FD094B9842DBD06FF0DB
:102A10000B00A4E76FF08500A1E76FF015009EE7BB
:102A200051F82330FFDE00BF000300500400AD0B5F
:102A30000000AD0B38B545682B69B3B11035284699
:102A400001F0B2FD044680B90146284601F078FD48
:102A5000084B98420BD108492246284601F050FD08
:102A6000224605210620FFF761F8002038BD6FF0EF
:102A70000400FBE70000AD0B7D2A0000420970B5A1
:102A8000034602D0012A17D070BD0D4E326951683D
:102A90000029F9D003F01F0301250C689D4000298F
:102AA000F2D08A682A4002D04B68304698472CB151
:102AB000236821461C46F2E7024EE7E72346F8E783
:102AC000A4940000909400002DE9F043466840F281
:102AD0000635D006337B87B002EA050554BFC2F342
:102AE0004010032001F01F07B5F5837F144647EA25
:102AF00043178DF8030045D00FD8062D18D007D8FE
:102B0000B5B1022D40D06FF0150007B0BDE8F083DD
:102B1000B5F5807FF7D101250AE040F20222954207
:102B200034D0B5F5407F33D0B5F5007FEBD1022529
:102B30000123220303FA01F12CD57368C3F80815A9
:102B4000326982BB07F01F037F0929D0012F77D19B
:102B50003E4A02EB830284F48033D2F80017C3F3B9
:102B60000043C4F3404444EA430421F4E16144EAED
:102B7000800421F0070144EA05230B43C2F8003723
:102B80000020C2E70725D3E70425D1E70525CFE7D5
:102B90000325CDE7630344BF7368C3F80C15CFE783
:102BA0004FF0A042D5E710360DF10202394630460B
:102BB00001F0ACFC14F4403F80460CD1394630465D
:102BC00006F0D7F8224B9845DAD19DF8021030462E
:102BD00001F0F4FCD4E701AB4FF0000903AA394639
:102BE0003046CDE90439CDE90199CDF80C9001F0DA
:102BF0004FFB174B984286D114F4003315D09DF843
:102C000003308DF80E3084F48034C4F300444B4616
:102C100003AA394630468DF80C508DF80D4001F06E
:102C2000F1FB0B4B9842CDD06DE7CDE9043303AAFD
:102C30000DF1030339463046039301F029FBF0E719
:102C400003F5E07352F82330FFDE00BF00030050AD
:102C50000000AD0B036803F01F025B09026004D0A3
:102C6000012B034818BF002070474FF0A040704769
:102C7000000300502DE9F04FDFF868A185B015463C
:102C8000834600EB810140F2FF18594503D1002033
:102C900005B0BDE8F08FDBF800305804C3F3C32261
:102CA000C3F3080400F196804D481B0E875C444531
:102CB00008BF4FF0FF34222B00F28F80DFE803F0D3
:102CC00012191F228D8D8D8D8D8D8D25518D8D8DA0
:102CD0008D8D8D8D54658D8D8D8D8D8D8D687073E1
:102CE00076797C00C5F80C45631C68D10BF1040BA8
:102CF000CBE7C5F81445661CF8D0002643E0C5F8BC
:102D00000845F1E7C5F81045F5E7C5F80845002F77
:102D1000F1D1601CEAD00026B1460627DBF800306E
:102D2000019303F40040002803A81CBF4FF00009E2
:102D300001260394FFF78EFF039C019B00EB8400A8
:102D4000C3F3412CD0F800473B0243EA8C0343EA2B
:102D5000090304EA0A04234343EA4603C0F80037A0
:102D6000C4E7C5F80C45D2E7621CC5F84045BDD0A4
:102D700003A80394FFF76EFF039B012202FA03F3FB
:102D8000C0F80C350126B146C8E7C5F84445B2E79E
:102D9000C5F82445631CA9D04FF000090126BDE702
:102DA000C5F82845A0E7C5F83045F3E7C5F8344530
:102DB000F0E7C5F83845EDE7C5F83C4594E703A8CA
:102DC0000394FFF747FF039B012202FA03F3C0F8C5
:102DD0000835D7E76FF015005AE76FF0850057E721
:102DE000C9B60000F0F8FCFF2DE9F0410446476841
:102DF0000D4606F087F84FF0200868B9244B1B7881
:102E000053B16426606805F08DFCD0B9012005F04F
:102E100024FF013EF6D1F4E7EFF31186314688F343
:102E20001288BFF36F8F606805F07CFCA8B986F349
:102E30001188BFF36F8FEFE786F31188BFF36F8FB1
:102E4000DFE7EFF31186314688F31288BFF36F8F07
:102E5000606805F067FC0028EED0BB691D706368F0
:102E6000BA691B680020C3F844250122C3F848252D
:102E7000C3F82001D3F82041C3F85801D3F8580112
:102E80009A6081F31188BFF36F8FBDE8F08100BFB6
:102E900028250020F7B50546002201210220FEF773
:102EA00045FE0220FEF712FE6A6811681369C1F838
:102EB0002435137D507D927D03431343C1F86C3557
:102EC0006E68D6E9004313F001034FD02F6907F174
:102ED000080005F0CEFE324B984207D0314845211C
:102EE00005F042F96FF0040003B0F0BD387A04F148
:102EF0000C0204F5907105F0B2FE387A012707FA4A
:102F000000F000F0A5FF0823C4F80035B369C4F849
:102F100044350023C4F84835A760D4F85831002B55
:102F2000FBD00021C4F800156B68DC6801AA2046BC
:102F300005F0A7FB002805DB019B226819791868BA
:102F4000FFF798FE6A6813680821C3F80015117A24
:102F500051B9D269C3F834250122C3F83825C3F822
:102F60001011D3F810111A600020BDE70822C4F830
:102F70000025B269C4F84425C4F848350123A3608C
:102F8000D4F82031002BFBD00023C4F82031D4F832
:102F900020310123E3604FF48073C4F80433BCE7AD
:102FA0000000AD0B11B7000070B5012383400E4A3D
:102FB000BFF35B8FDC4352E8001F01EA040542E8DF
:102FC0000056002EF7D1BFF35B8F4FF48032824062
:102FD0000648C0F80823BFF35F8FBFF36F8F0B4223
:102FE00014BF0120002070BDF0110020001001402E
:102FF00011B3BFF35B8F0123104A834052E800CF27
:103000004CEA030C42E800C10029F7D1BFF35B8F03
:103010000B4A4FF480338340C2F80433094BBFF3AB
:103020005B8F1B68BFF35B8FC340DB0742BF064B60
:103030004FF40032C3F80021704700BFF0110020A8
:1030400000100140EC11002000E100E00D4B186879
:10305000010A0006BFF35F8F0B4BD3F80435181835
:1030600041F10001B3F5801F0AD2084BD3E90023D8
:10307000904271EB030303D210F1807041F1000123
:10308000704700BFF41100200010014038110020EB
:103090002DE9F04F85B016461F469DF840A0044626
:1030A000FFF782FF0190FFF7D1FFB04271EB0703FA
:1030B00054D23E4B301A67EB0101984271F1000186
:1030C0004FD23B4B03EB0413D3E902239F4208BFCB
:1030D00096425ED037494FF4803804F1500508FA23
:1030E00004F8AD00C1F848832046ADB205F04BFBB3
:1030F00026F07F4B05F1804504F5A87305F588356A
:10310000DC464FF003090293029A2CF07F4341F80A
:103110002230C1F84483D1F80435274A6FF0020009
:10312000C01A604420F07F40904232D9286868B1CC
:10313000D1F804350393A3EB0B0020F07F40B0F5EA
:10314000000F26D9204605F01EFB039BBAF1000FA5
:1031500007D109EB030C09F10109D5E7BAF1000F1A
:1031600009D06FF0150520460199FFF741FF284669
:1031700005B0BDE8F08F0123104ABFF35B8FA34079
:1031800052E8000F184342E800010029F8D1BFF3CC
:103190005B8F07490E98230101EB0412C8500F9B67
:1031A0005360C2E902670025DDE700BF010080002F
:1031B0002011002000100140FDFF7F00EC110020D5
:1031C0007FB51C4C1C4BC4F80833C4F848331B4B68
:1031D00000254FF0FF304FF0FF31C4F80855C3E928
:1031E00002014FF48033C4F80433154B02264FF428
:1031F00000320121C4F804631120C3F880212A465B
:10320000FEF794FC1120FEF761FC0E4A0123A36037
:10321000236013600C4B00934FF480720023CDE9C0
:1032200001552846FFF734FF3046FEF773FE284667
:1032300004B070BD0010014003000F0020110020F9
:1032400000E100E0F01100204D320000F0B5184917
:10325000D1E9006322F07F45921B140A22F0FF029D
:10326000921943F10003C1E90023A5F50011B1F55E
:10327000400F85B00AD20F4909684FEA112C0906A0
:103280004E190D494CF10007C1E900670021CDE955
:10329000011112F580720949009143F10003FFF713
:1032A000F7FE204605B0BDE8F04001F0EBBF00BFDF
:1032B00030110020F4110020381100204D320000A0
:1032C0002DE9F7432F4CD4F8043399070BD5D4F8E4
:1032D000043143B12C4A0023C4F80431D4F804313A
:1032E000136801331360D4F80433DA0329D5BFF32C
:1032F0005B8F264B53E8002F22F0010143E80010BA
:103300000028F7D1BFF35B8FD30702D4D4F8403144
:10331000BBB10025C4F84051D4F84031FFF796FE08
:10332000EFF31182202383F31288BFF36F8F184BC2
:10333000D3E90267B042B94106D282F31188BFF3E4
:103340006F8F03B0BDE8F0834FF0FF384FF0FF39C7
:10335000C3E90289D3E900101D604FF48033C4F83B
:103360004833C4F84051D4F8403182F31188BFF398
:103370006F8F0029E5D0009032463B4628468847AB
:10338000DFE700BF00100140F4110020EC11002025
:103390002011002010B5084C012363601120FEF7B6
:1033A000A3FB064BC4F80833C4F84833044B4FF46E
:1033B0000032C3F8802110BD0010014003000F004F
:1033C00000E100E030B50C490C4D0B6802460024CA
:1033D00005EB0310D0F80808C0B218B904B10B60AF
:1033E000002007E00133072B4FF00104F0D90B60F8
:1033F0006FF01B00136030BDF811002000E00140A9
:1034000038B5024604460D460B460548572104F0E0
:10341000ABFE294620460222BDE8384005F0C2B97D
:1034200053B700007FB505464FF480514FF450402C
:10343000FFF7E6FF044628B14C4804B0BDE87040F1
:1034400004F0ACBDA9694A484A4E04F0A7FD4A4BB6
:103450004A48C3F80045D3F80C250092D3F8142548
:103460000192D3F808250292D3F8103503936946E8
:1034700051F8043B5A1C0FD003F01F025B0969D0BE
:10348000012B6AD1334603EB8203D3F800270240B5
:1034900042F00202C3F800270134042CE8D14FF0B7
:1034A00080424FF0FF33C2F80833BFF36F8F72B61C
:1034B000334AC2F88030C2F88430C2F88830C2F88B
:1034C0008C30C2F89030C2F89430C2F89830C2F80C
:1034D0009C30C2F88031C2F88431C2F88831C2F819
:1034E0008C31C2F89031C2F89431C2F89831C2F8E8
:1034F0009C314FF0E02300221A61D3F8042D42F0F2
:103500000072C3F8042DD3F8242D22F4E02203F531
:1035100050635A62EFF31482920707D5EFF31482D7
:1035200022F0020282F31488BFF36F8FBFF34F8F34
:10353000BFF36F8FAA699A6001212846AC6900F039
:103540006FFA80B1236883F30888002383F3098826
:10355000636898474FF0A04395E702F5E0720023B7
:1035600053F82230FFDE04B070BD00BF8CB70000FE
:10357000B4B700000003005000200040F0F8FCFF4A
:1035800000E100E0024B0122C3F80025704700BFB4
:1035900000A00250024B0022C3F80025704700BF74
:1035A00000A0025070B5EFF30883B3F5504F02D27C
:1035B000094D2B780BB1002070BD084C0126C4F8D2
:1035C000006502F0B1F818B92E70C4F80005F2E7F2
:1035D0006FF00D00F0E700BF2725002000A002508B
:1035E00090B5B1F1005F83B002AF1FD2BBB16C46A2
:1035F000ADF5007D02AB00934FF4007305F0A2F926
:10360000A5460E4B984213D00A33984213D00C3B78
:10361000984208BF6FF015000437BD4690BD084BB7
:1036200000934FF4004305F08DF9EAE70023F7E734
:103630006FF01500F0E76FF08500EDE70202F00093
:10364000303D002008B501F0CDFF034B984208BF84
:103650006FF0150008BD00BF0002F0001FB5084A5A
:10366000044607CA01AB83E807000C22194620462E
:1036700005F07CFC00280CBF2046002004B010BDE3
:103680006097000070B5064E0546002456F8040BFE
:103690002844FFF7E3FF10B90134052CF6D170BDC3
:1036A000789E000073B50B46024606460D46164846
:1036B000492104F059FD0DF10601012005F081FAC0
:1036C000044628B102461148452104F04DFD08E0AA
:1036D000BDF8063043B90E48452104F045FD6FF0B2
:1036E0001504204602B070BDB5FA85F1490941EADA
:1036F000460189B2012005F07DFA04460028F0D089
:10370000024645210348E0E7C6B70000FFB70000C6
:1037100048B8000074B800002DE9F04F824689B027
:103720001046D76816690D4614469946FFF796FF6E
:1037300020B98248452104F017FD38E0A3695345BC
:1037400002D07F484521F6E7B9F1000F04D19D4230
:1037500002D07C484521EEE72846FFF793FF8442DC
:1037600002D079484521E6E7226A784B9A4204D094
:103770007748452104F0F8FC19E00DF10E0005F042
:103780004AF9024650B17348452104F0EDFC7248F5
:10379000492104F0E9FC0023ADF80E306269BDF860
:1037A0000E309A4207D26D48452104F0DDFC00201E
:1037B00009B0BDE8F08FD4F81080B8F5C83F02D842
:1037C000E368984502D266484521B4E7E7190AD272
:1037D000731908D2A54206D8A34204D9013FBD42BD
:1037E00001D8BB4202D85F484521A4E716EB0A0680
:1037F000E3692CBF012700270CD253450AD3B342FB
:1038000008D22B44A3EB0A035B68534505D2564804
:10381000452190E7554845218DE7B342F7D208EBA3
:103820000506534B06F1050B0DF1100A93E807004E
:103830008AE807000C225146304605F097FB4C4BB6
:1038400008B9002E6ED101365E45EFD149484521B9
:1038500071E7494845216EE705F065F9044648B12E
:1038600002464521454804F07FFC71349FD144480D
:10387000492160E7434A444BB9F1000F0CBF93461E
:103880009B4605F04CF9844202D34048452152E75B
:103890005146204605F070F9102802460CD010F170
:1038A000160F06D13A482246492104F05DFC013446
:1038B000E7E7384845215DE737482246492104F0CB
:1038C00053FC9DF81F309DF810203448492104F026
:1038D0004BFC06F17002CDF800802B46514606F1F4
:1038E0003000D847024690B92D4DBC4205D12D4835
:1038F000492104F039FC01205AE73A46492128467B
:1039000004F032FC384600F079F80137EDE710F1A9
:10391000650F04D12448572104F026FCC7E723484B
:10392000452127E7F268A3699A4292D104F0CDFFBE
:103930000246002890D01E4845211BE7B0B8000081
:10394000D3B8000009B9000039B90000FFFF0291A7
:1039500065B900008FB90000B9B90000FFB90000D7
:1039600042BA000074BA0000D3BA0000A4BA000042
:103970006C97000005BD000003BB00005CBB0000AD
:1039800083BB0000D9880000B9880000E2BC0000B9
:10399000BBBB0000E7BB00000DBC000036BC000054
:1039A0004FBC000069BC00008BBC0000B3BC000031
:1039B00039BB00004FF450431B6B984216D21423BE
:1039C00043434DF23402D1580A4A0B4B42EA00629B
:1039D0008A4243EA006309D08B4209D0002383F373
:1039E0001188BFF36F8F0423184602DF0020704751
:1039F000012070470000FA50FFFFFA5010B504464E
:103A0000FFF7D8FF48B114204DF2340300FB043017
:103A10000249BDE8104000F03FBF10BD0000FFFFAD
:103A20002DE9F04F87B00646009198B305F0FEF8F7
:103A300000270446B36BBB424ED9DFF8BCA04FF061
:103A400000085AF8043BDFF8B4B04FF000095BF807
:103A5000045B01931D44254B93E8070003AB83E807
:103A6000070019460C22284605F080FA019B00B990
:103A7000A5B909F10109B9F1050FE8D11C4B08F10D
:103A800001089845DDD3009B13B1636A00221A60D8
:103A9000236A3BB3002007B0BDE8F08F2B6A154ABC
:103AA0009342EBD1AE42E9D0696B05F13C03884209
:103AB000E4D025691A6995420AD19A69A5699542A7
:103AC00006D8E569954203D962695D69AA4305D0C4
:103AD000DA6801301344EAE70120DCE7009A0AB112
:103AE000626A1360E36801371C44A3E7789700001B
:103AF00001000000FFFF029198BE00008C9E0000B4
:103B00002DE9F0432248234FDFF8909085B005F06F
:103B10008DF81F4BD3F8388004460026B04503D8F3
:103B2000002005B0BDE8F08397E80700636A1D68D0
:103B300001AB83E807000C221946284605F016FA67
:103B400078B975B122692B699A420AD1AB69A26929
:103B50009A4206D8E2699A4203D963696A69934333
:103B60000CD0256A75B10C4804F018FA002383F3D1
:103B70001188BFF36F8F0423184602DFE368013614
:103B80001C44CBE7484604F009FA636A1D60F5E778
:103B9000000200008497000047BD000070BD0000D7
:103BA000026A044B9A4203D10349203000F074BEEC
:103BB000704700BFFFFF02910000FFFF4FF08053EE
:103BC000D3F83021082A06D1D3F83431052B02D896
:103BD000024AD05C70470020704700BFA9BD0000BA
:103BE000024AD2F80034002BFBD0704700E00140BD
:103BF00010B54FF08053D3F83021082A4ED14FF042
:103C000080420021C2F80C11C2F81011C2F8381518
:103C100002F54042D3F80414C2F82015D3F8081472
:103C2000C2F82415D3F80C14C2F82815D3F81014D0
:103C3000C2F82C15D3F81414C2F83015D3F81814A0
:103C4000C2F83415D3F81C14C2F84015D3F8201468
:103C5000C2F84415D3F82414C2F84815D3F8281430
:103C6000C2F84C15D3F82C14C2F85015D3F8301400
:103C7000C2F85415D3F83414C2F86015D3F83814C8
:103C8000C2F86415D3F83C14C2F86815D3F8401490
:103C9000C2F86C15D3F84434C2F87035FFF78EFFC4
:103CA00018B1414B414AC3F88C26FFF787FF18B182
:103CB0003F4BFB22C3F81825FFF780FF70B14FF090
:103CC00080414FF08053D1F8E42ED3F8583222F0DF
:103CD0000F0203F00F031343C1F8E43EFFF76EFF3A
:103CE00020B1344B4FF40072C3F840264FF080539C
:103CF000D3F83031082B09D14FF08043D3F800249A
:103D0000D20744BF6FF00102C3F800242A4AD2F858
:103D1000883043F47003C2F88830BFF34F8FBFF38D
:103D20006F8F4FF08053D3F83021082A0ED1D3F88B
:103D30003431052B02D8214AD35C3BB14FF010231C
:103D4000D3F808224FF08043C3F858254FF01023D2
:103D5000D3F80022002A03DBD3F80432002B22DA46
:103D6000174901234FF01020C1F804351224FFF742
:103D700037FFC0F80042FFF733FFC0F80442FFF7F7
:103D80002FFF0023C1F80435FFF72AFFBFF34F8F41
:103D900009490C4BCA6802F4E0621343CB60BFF3DD
:103DA0004F8F00BFFDE710BD005000404881030069
:103DB00000F000400090024000ED00E0A3BD0000D4
:103DC00000E001400400FA0530B50468CCB1BFF34F
:103DD0005B8FB4FA84F3C3F11F03DBB201229A4074
:103DE00024EA020250E8005FA54204D140E8002C1A
:103DF000BCF1000FF6D1BFF35B8FE6D102480B7028
:103E000030BD0248FCE700BF0000AD0B0200AD0B67
:103E100010B50368CB40DB0714D401238B40026844
:103E2000BFF35B8F43EA020150E8004F944204D194
:103E300040E8001CBCF1000FF6D1BFF35B8FEED160
:103E4000014810BD0148FCE70000AD0B0400AD0BBC
:103E5000014BC3F80405704700F00140F7B5044674
:103E600018B1012823D003B0F0BD4FF080430222E7
:103E7000C3F808230122DA60C3F80401D3F804313F
:103E8000064601238DF8073042F210754FF0804747
:103E9000D4B1012CE7D1D7F80C3403F48033AEBB96
:103EA00083B3012004F0D9FE013DF4D12AE04FF0A4
:103EB00080430022C3F808035860C3F80021D3F8F8
:103EC00000310DF10706DCE7D7F8183403F480332E
:103ED0003EB9002BC7D0012004F0BFFE013DF3D155
:103EE000C1E7D7F8182402F003023260002BBAD0E1
:103EF0009DF80700012803D104F0AFFE013DC7D1B2
:103F0000012CB0D1054B00225A71ACE7D7F80C2434
:103F100002F001023270002BEAD1F3E7FC1100201D
:103F2000044B1A7922B9012218609A80024870471E
:103F300002487047FC1100200000AD0B0C00AD0BD7
:103F400008B5074B1B682BB10020FDF7E1FD08B950
:103F5000FDF7BCFD4FF080430222C3F8182508BDD1
:103F6000FC11002010B510B1012842D010BD4FF057
:103F70008043D3F81814D3F81824C9031FD502F0CE
:103F80000303022B02D00020FFF768FF4FF08043AD
:103F90000220C3F8180508224FF4827303F180430E
:103FA0000021196002F180421C6801241460164A45
:103FB000126812B34FF08043C3F80403D6E7D3F876
:103FC0001424D207E2D5D3F81C2402F00302022AFB
:103FD000D9D10D49096811B1C3F80423C6E7D3F854
:103FE0000421002AFBD00022C3F80421D3F80431B5
:103FF000BCE700224FF48073D0E71A68002AFCD097
:1040000019601B68B2E700BFFC11002010B54FF02B
:104010008043D3F800216AB10022C3F80021D3F80D
:1040200000210122C3F808230C4B587910B95A71AA
:104030001B6898474FF08043D3F804216AB10022EF
:10404000C3F80421D3F804210222C3F80823034B48
:10405000BDE810401B680120184710BDFC1100206E
:10406000036803F01F025B09026004D0012B0348C0
:1040700018BF002070474FF0A04070470003005069
:10408000034A430900F01F00D35C1844C0B27047D4
:10409000AFBD000070B50546FFF7F2FF0C4C0830CD
:1040A0000E4634F81030DA0508D5C3F3432304EB89
:1040B000C302284654F8333052689847A3682BB19E
:1040C000E26831462846BDE87040184770BD00BF21
:1040D0001810002008B5FFF7D3FF034B083033F862
:1040E0001000400B08BD00BF1810002008B5FFF7F6
:1040F000C7FF034B083033F81000C0F3400008BD81
:104100001810002008B5FFF7BBFF034B083033F849
:104110001000C0F3401008BD18100020034611F035
:10412000010010B5CCB20DD1A207C4F3400012D5E6
:10413000094AD2F820055860C2F82005003818BF97
:10414000012008E04FF0A041D1F820251A60C1F805
:104150002025002AE8D010BD0003005010B5FFF75D
:104160008FFF124A083032F81030D9051CD5C3F33E
:10417000432123F4F85322F8103002F10E040020FA
:1041800034F8023F13F4807F03D0C3F343239942F2
:104190000AD001303028F3D1002342F831300448EE
:1041A000BDE81040FFF734BE10BD00BF181000205E
:1041B00090100020F0B50546002004460126074671
:1041C0008C420BD1114BD3F87C2132B10022C3F8C1
:1041D0007C21D3F87C3140F00040F0BDE3B29B007D
:1041E00003F580729B0806FA03F31D420BD002F11F
:1041F000804202F5C042D2F800C0BCF1000F02D0EC
:104200001760126818430134DAE700BF006000400D
:10421000F7B506460846FFF733FF194F00F10805CA
:104220000C4637F81530DB0727D5304604F07DFD06
:104230002046FFF767FF40B12046FFF74BFF31688C
:1042400000F5A270002341F820302046FFF786FFDA
:10425000002301A827F815300194FFF701FF019B07
:1042600000EB8300074BD0F80027134043F0020314
:10427000C0F80037044803B0F0BD0448FBE700BFB6
:1042800018100020F0F8FCFF0000AD0B0400AD0B8F
:104290002DE9FF41164680460846FFF7F1FE0D4620
:1042A0003168044609B32846FFF720FF18B12846B5
:1042B000FFF728FF10BB0023CDE900338DF80E3047
:1042C0008DF80F300DF10F020B4628460DF10E014F
:1042D00004F0D3FC474A04F1080132F8113023F00E
:1042E000020343F0010322F81130736863B32846D8
:1042F0001F785968FFF7FAFE10B1D1B13E4826E0A9
:104300003C4A04F1080032F8103023F02003DB04AB
:10431000DB0C22F8103061B1032FEFD871684968C7
:1043200091F800C0D8F80010A7B90CF5A27C41F8AC
:104330002C70304A04F1080132F8113023F01C03CC
:1043400043EA870322F81130B3684BBB2B4804B013
:10435000BDE8F08101EB8C0143EA4C33D1F810E564
:104360002EF0030EC1F810E5D8F8001001EB8C0E0A
:1043700043F02003DEF8101522F8103021F44F31FD
:1043800021F44071CEF810152902DEF8108501F4F1
:104390007C5141EA074141EA0801CEF81015C8E70F
:1043A000D3E900672846FFF7D9FE002ECED0114D85
:1043B000D5E90023964203D19F4201D1002209E0B2
:1043C0000F480DF10F01FFF7FFFC0C4B9842BED1D7
:1043D0009DF80F2045F8326005EBC20308345F609A
:1043E00035F8143043EA422343F4807325F814303F
:1043F000ACE700BF181000200400AD0B0000AD0BAF
:10440000901000202DE9F0430C4685B080462046F0
:1044100011461E46FFF734FE054629B32046FFF736
:1044200065FE18B92046FFF76DFE18BB314F05F148
:10443000080937F8193013F01C0F02D04B78012B04
:1044400018D001238DF80F300023CDE900134A1C4A
:104450008B1C20460DF10F0104F00FFC37F81930CA
:1044600043F0030327F81930002E41D02046FFF710
:104470003DFE18B9204805B0BDE8F08396F800C0AD
:10448000D8F800301B4F0CF5A272002143F822101F
:1044900005F1080237F8121021F02001C904C90CF7
:1044A00027F8121075781DB3D8F80000B67800EB25
:1044B0008C002D04D0F8103523F4991323F4F8530D
:1044C000C0F81035230203F47C5305F4403536055B
:1044D000D0F810E52B4306F4801641EA4C31334303
:1044E00041F0200143EA0E0327F81210C0F81035FE
:1044F0000248C0E7181000200400AD0B0000AD0B0F
:10450000014BC3E9021270471810002010B508468D
:104510001446FFF7F7FD50B10846FFF7B1FD054B14
:10452000083033F8103004485B0B237010BD03488B
:10453000FCE700BF181000200000AD0B0400AD0B1D
:1045400070B5164D95F8804006462CBB214660227A
:1045500005F1100004F06DFE30682E6F21468E428A
:104560000ED10023C0F87C31D0F87C3140F3073005
:10457000FDF7ACFA01230A4885F88030AB6770BDBF
:10458000CBB29B0003F580727C2B08BF845001F1F5
:10459000010108BF8358E2E70248F0E71810002045
:1045A0000000AD0B0C00AD0B034B93F880000038FE
:1045B00018BF0120704700BF181000200148FFF706
:1045C00027BC00BF8C1000200148FFF7FDBB00BFD7
:1045D0008C10002073B503681646D3F80423002A14
:1045E000A8BF4FF000420546A8BFC3F80423084601
:1045F0000C46FFF787FD00B30846FFF777FD01463D
:10460000D8B92046FFF766FD04B2A40004F5807215
:10461000034628688150296882582144D1F8102522
:1046200042F00102C1F810252EB12968012202FAD8
:1046300003F3C1F8043302B070BD2046FFF720FD3C
:104640000F4B083033F81030C3F38203042B12D021
:10465000052B12D001A80194FFF702FD019AD0F8B2
:104660001035D34003F00103991C204602B0BDE889
:10467000704004F04BBB0321F7E70221F5E700BFD0
:10468000181000202DE9F04F694BDFF8B081D3F806
:104690000403D8F87010C0B289B040F00040FFF7B2
:1046A00089FD051E2FDAC24600235AF87C1F06A892
:1046B000CDE90633FFF732FD5E4B01930DF118098A
:1046C0004FF0000B019A12F8013B0192DA0803F057
:1046D00007031AF8022022FA03F3DA071CD409F1BF
:1046E0000409BBF1000F14D0D8F870104FF000404F
:1046F000FFF760FDD8F87C1006A8FFF70FFD002833
:10470000DAD125F000450124002D79D109B0BDE8AA
:10471000F08F4FF0010BD5E7474B5B440293D9F87C
:1047200000100029DBD0029B91FAA1F11C78B1FAAC
:1047300081F141EA44142046FFF7A2FC08300594B9
:1047400038F81070C808BB0819F80020039301F06E
:104750000701012303FA01F122EA010209F800200E
:1047600005A8FFF77DFC059A039B02F5E072C7F3ED
:10477000820650F822205B073746C2F3014224D557
:1047800020463946D6B2FFF785FC05A80594FFF709
:1047900067FC059B03F5E07350F82330C3F3014336
:1047A0009E4207D10021204604F0B0FA314620464F
:1047B00004F0ACFA05A80594FFF752FC059B012212
:1047C00002FA03F3C0F82035A9E7022A0CD103212D
:1047D000204604F09BFA06F00503012BEAD1394686
:1047E0002046FFF757FCE5E702212046039204F03C
:1047F0008DFA032EF3D0039A032ADBD1022EEDE7C4
:1048000095FAA5F3B3FA83F304FA03F29B0003F1DC
:10481000804303F5C04325EA0205D3F81005D3F819
:104820001015C0F30520C1F30141FFF733FC6BE71E
:1048300000600040BFBD0000BFBD00001810002098
:10484000044AD2F80034DB07FBD50160BFF35F8F69
:10485000704700BF00E001404FF080531A69B0FB81
:10486000F2F302FB130373B9084B0222C3F80425C9
:10487000C3F80805D3F80024D207FBD5002204486A
:10488000C3F8042570470348704700BF00E00140AB
:104890000000AD0B0A00AD0B10B5054C0123C4F8A8
:1048A0000435FFF7CDFF0023C4F8043510BD00BF69
:1048B00000E0014001460148FFF786BA9C10002045
:1048C00070B5104D6C6B9CB14FF47A735C430A2346
:1048D000B4FBF3F40C4ED6F8003163B995F83930D7
:1048E0004BB90A2004F0B9F9013CF4D1074870BD76
:1048F0004CF25034EEE795F83930002BF6D10448ED
:10490000F5E700BF04120020009002400700AD0B45
:104910000000AD0B094B10B500220124C3F800457F
:10492000C3F800211C6038B1FFF7CAFF044B98425E
:1049300003D1044B83F83840014810BD0090024079
:104940000000AD0B0412002070B500F06044B4F11B
:10495000005F5DD184075BD12F4C94F83050012D5E
:1049600005D09D4256D194F83850002D52D02B4D91
:10497000022B0BBFC5F81025C5F80425C5F8140592
:10498000C5F808050CBFC5F81815C5F80C154FF08B
:10499000000684F8396026680CBF08250425BEB9D6
:1049A00094F838306BB11D4B05F1804505F5243581
:1049B0000022C3F8002101232B60BDE87040FFF7FF
:1049C0007FBF0120FFF7A6FF154B9842EBD170BDCA
:1049D000A66826B1E0606161E2611248F7E7A26172
:1049E0000E4A84F830300123A0602161C2F80061D2
:1049F000C2F8043394F8382002F0FF0012B9FFF730
:104A000089FFEAE705F1804505F524352B60E4E7E9
:104A10000548DCE70548DAE7041200200090024070
:104A20000700AD0B0000AD0B0A00AD0B0B00AD0B8A
:104A3000084B9A685A621A699A629A69DA62DA6865
:104A40009A6032B15A691A61DA699A610022DA60B1
:104A5000704770470412002000F01F0340090FD078
:104A6000012810D10B4A02EB83020B4BD2F800074E
:104A7000034043EA012343F00203C2F800377047C2
:104A80004FF0A042EFE7002203F5E07352F8233025
:104A9000FFDE00BF00030050F0F8FCFF10B50E4B26
:104AA0000238D3F83C26D3F83836072813D8DFE885
:104AB00000F0110F0D0B0A080604100EC871100C3F
:104AC0008871100A48710A711A0ECA701A0C8A701D
:104AD0001A0A4A700B7010BD009002400238072875
:104AE0001FD8DFE800F02927251123211F04CB79E7
:104AF0001B068A7943EA02434A7943EA02230A7988
:104B000013430E4AC2F83C36CB781B068A7843EA38
:104B100002434A7843EA02230A781343074AC2F859
:104B2000383670470023E4E70023E5E70023E6E793
:104B30000023EBE70023ECE70023EDE700900240C1
:104B40000268154BFF2A08BF4FF0FF32C3F8242537
:104B50004268FF2A08BF4FF0FF32C3F82825826859
:104B6000FF2A08BF4FF0FF32C3F83025C268FF2A82
:104B700008BF4FF0FF32C3F834250269FF2A08BF8F
:104B80004FF0FF32C3F838254269FF2A08BF4FF0C3
:104B9000FF32C3F83C257047009002400A4B0022C8
:104BA00083F83820094B01214FF08050C3F80813D7
:104BB0001961D0F83001082808BF5965C3F80025ED
:104BC000C3F80021704700BF04120020009002408B
:104BD00030B5194D0FCD8DB006AC0FC495E803006C
:104BE00084E803001549D1F82435DBB20093D1F8ED
:104BF0002835DBB20193D1F83035DBB20293D1F81E
:104C00003435DBB20393D1F83835DBB20493D1F8F5
:104C10003C3506A8DBB20593FFF792FF0023C1F8ED
:104C2000003101230B60D1F80031002BFBD0684626
:104C3000FFF786FF0DB030BD909700000090024056
:104C400070B590F82930044613B190F82A204ABB79
:104C50006068FF2860D0A268FF2A5DD0E268FF2A62
:104C60005AD02269FF2A57D0B3B90321FFF7F4FEC7
:104C7000A068FFF7F1FEE068FFF7EEFE2069FFF79E
:104C8000EBFE6069FF2801D0FFF7E6FEA069FF2870
:104C900002D00321FFF7E0FE94F82A3013B9201D5B
:104CA000FFF74EFF1D4E636A73631D4D94F8293064
:104CB00086F83A300123C5F80833FFF789FF2368E7
:104CC000C5F84035A37F617F227F9B0143EAC10382
:104CD0001343E27F43EAC213C5F84435D5F80026F2
:104CE00094F8203022F07F4222F0FF02134394F820
:104CF000212043EA026394F8222043EA426394F8B5
:104D0000232043EA0273C5F80036336813B1292023
:104D1000FCF7DCFE034870BD0348FCE704120020EA
:104D2000009002400000AD0B0400AD0B38B50C4CF8
:104D300094F8305095B9C4E9001248B90023C4E989
:104D400002330122074884F8302084F8383038BD17
:104D5000FFF776FF034B9842F9D1EFE70248F6E7F9
:104D6000041200200000AD0B0C00AD0B2DE9F84340
:104D7000DFF8A090074699F83000012888461446CD
:104D80003DD199F838301F4E6BB31F4D0123C5F844
:104D90000833FFF71DFFB8F1000F2BD14FF00008CB
:104DA00089F83980C5F80081BB787A781B0343EA1B
:104DB00002233A781343FA7843EA42333A7943EAD2
:104DC00082337A7943EAC233C5F83436FFF778FD87
:104DD000B0420CD0C5F800811CB178782146FFF7AD
:104DE0005DFE0A4804E0FFF795FDB042CDD10548CD
:104DF000BDE8F88378784146FFF770FECEE70448B7
:104E0000F6E700BF0700AD0B009002400000AD0BBD
:104E10000B00AD0B04120020034B93F838300BB994
:104E2000FFF778BD01487047041200200C00AD0B5D
:104E300008B5054B93F83030012B03D1FFF7AEFED8
:104E4000024808BD0248FCE7041200200000AD0B38
:104E50000B00AD0B034B93F83000003818BF012056
:104E6000704700BF0412002038B511F0030539D196
:104E70001E4B1A68D2B193F83040012C34D11C4A31
:104E8000C2F81C150421C2F8200583F8395083F8B4
:104E90003010C2F80051C2F8044393F8383003F0E0
:104EA000FF00EBB9FFF736FD124818E0104CC4F8CC
:104EB0001C15C4F8200583F8392093F8383043B125
:104EC0000023C4F800310123E360BDE83840FFF758
:104ED000F7BC0120FFF71EFD074B9842F0D138BD0B
:104EE000D460E1E70548FAE70548F8E70412002036
:104EF000009002400000AD0B0700AD0B0A00AD0BA7
:104F00000B00AD0B10B5224BD3F8002192B1214C10
:104F10000022C3F8002194F8381094F8302071B9B9
:104F20000121032A84F8381005D0042A05D0022A6A
:104F300000D1996010BD5960FCE7D960FAE7032AF7
:104F400019D0042A19D0022A04D1012384F8203070
:104F5000FFF76EFDA36813B9012384F8303094F88D
:104F6000393003F0FF0013B9D4E90031984700232A
:104F700084F82030DEE70223E8E7032284F82020CB
:104F8000D3F81C256262D3F8203584F82830E1E795
:104F9000009002400412002008B5144BA822002102
:104FA000184604F046F90322026111494261114A90
:104FB0008161C26140F648720262002282624262EE
:104FC000C26201660C494166102181660346026790
:104FD000C2664267BFF35F8F084911F8010D98540C
:104FE0000132102AF9D1BFF35F8F08BD580F00209E
:104FF000C1BD00001000002000000020DABD00004C
:10500000F8B5144B182700FB07751D4407FB003348
:105010000E46DB6A012B14460AD0022B14D023B9AA
:10502000284603F0E8FE844208D900242046F8BD53
:10503000284603F0E0FE844228BF0446224631465B
:10504000284603F0E1FEF1E72846BDE8F84003F00A
:10505000F8BE00BF580F0020F8B50B4B1B78044674
:105060000D4616460BB9FFF797FFEFF311874FF088
:10507000200181F31188324629462046FFF7C0FF00
:1050800087F31188F8BD00BF580F002073B50446A0
:105090000D46EFF31186202383F31288BFF36F8F41
:1050A000104A042898BF104B127C94BF53F820304C
:1050B0000E4B0092452102460D4803F055F83DB1D4
:1050C000EB69C3F308031BB10A48452103F04CF810
:1050D00029462046FBF7ECFA86F31188BFF36F8F61
:1050E00002B070BDA8120020A09E0000DBBD000031
:1050F000E9BD000016BE000038B5094B53F820404A
:10510000013053F82050A54200D838BD636823B160
:10511000204603F0DAFE0834F5E723689847FAE7FB
:10512000B49E000008B50B4B012203201A70FFF754
:10513000E3FFFBF741FCFCF7B9F903F0E2FE0420C2
:10514000FFF7DAFFFBF7DEFF034A137B23F00103CF
:10515000137308BD282500204012002008B503481D
:10516000034A0021121A03F0C8FE08BD20110020D6
:105170002C25002008B50020FFF7BEFF164B83F357
:105180000888164C636943F4007363610025E023CB
:1051900084F82230E57725766576A57684F8205068
:1051A000636A43F4E023636284F82350FCF7F0FB66
:1051B000FCF71EFD4FF0FF33A362E36203F079FEBC
:1051C0000120FFF799FF0220FFF796FF04482B46C6
:1051D0002A462946FCF7F0FC302D002000ED00E0C7
:1051E0002551000008B50648064A0749121A03F07F
:1051F00086FEBDE80840054A0549064803F07FBE23
:10520000001000201A110020A4BE000000000000C1
:10521000A4BE000000100020034B1B680BB903F074
:10522000BFBA0020704700BFC812002048B1094B28
:105230005B68984205D003681BB1DA68C1680A440C
:10524000DA60D0E9003213605A600023C0E900330D
:10525000704700BFA010002010B5094B1C689C428D
:1052600004D1FFF7D9FF6FF0004010BDFFF7D4FF66
:10527000002CF8D0E368181A20EAE070F5E700BFC8
:10528000A01000202DE9F843EFF3118C202383F3C5
:105290001288BFF36F8FDFF89880234F234D38605B
:1052A000D8F800004FF00009404508BF0020D5E9BC
:1052B00000213B68664628B3C4689C4202DDE41ABC
:1052C000C4601FE0A21841EBE471C0F80C90C5E97E
:1052D0000021FFF7ABFF86F31188BFF36F8F836860
:1052E0009847EFF31186202383F31288BFF36F8F63
:1052F0003B68D8F800001B1B4045B4463B60D6D144
:10530000D5E900219A1841EBE3710024C5E9002199
:105310003C60FFF7A1FF214603F041FA86F31188B4
:10532000BFF36F8FBDE8F883C81200204011002042
:10533000A010002010B5EFF31184202383F312880E
:10534000BFF36F8FFFF768FF054A0346D2E90001FC
:10535000181841EBE37184F31188BFF36F8F10BD10
:105360004011002030B10268034B04489A4208BF44
:105370000020704702487047DD55AABB8208F00044
:105380007108F00038B50D460446B0B1A0220021E6
:10539000043003F0D8FD95B10822294604F16400D9
:1053A00003F0D7FD082205F1200104F1840003F089
:1053B000D0FD044B2360002038BD0348FCE70348C0
:1053C000FAE700BFDD55AABB7108F0008308F000C2
:1053D0002DE9F74305460E4699461146FFF7C2FFF1
:1053E0000446002840F08480002E00F085800029CB
:1053F00000F08480B9F1200F40F0828005F1440470
:10540000082205F10408204603F0A3FD05F1240756
:1054100008223146404603F09CFD06F12001082297
:10542000384603F096FD02A94FF4807041F8049DC0
:1054300003F083FD002865D1334A4FF48073136075
:10544000012193600823314A00F02EFB0121084618
:1054500005232F4A00F028FB0823424601211C2087
:1054600000F022FB08233A460121032000F01CFB38
:10547000224608230121022000F016FB0823254ABA
:1054800001211A2000F010FB0523234A01211B20D3
:1054900000F00AFB0823214A0121142000F004FB3C
:1054A00008231F4A0121152000F0FEFA082305F108
:1054B00064020121162000F0F7FA082305F18402A6
:1054C0000121172000F0F0FA0823164A01210B20D1
:1054D00000F0EAFA00F044FB0446019800F0D2FA2A
:1054E000114B002C18BF1C46A421284603F02DFDAB
:1054F000204603B0BDE8F0830C4CF9E70C4CF7E70D
:105500000C4CF5E7084CEFE790B002500C9F000000
:10551000849F0000CC9E0000709F0000309F000020
:10552000509F0000EC9E00008408F0007608F00018
:105530008008F0008108F0000C4BC2691A60826993
:1055400043F8042C426943F8082C026943F80C2CF8
:10555000C26843F8102C826843F8142C426843F860
:10556000182C026843F81C2C704700BF5CB6025030
:105570000C4B1B68C3610C4B1B6883610B4B1B6896
:1055800043610B4B1B6803610A4B1B68C3600A4BEA
:105590001B688360094B1B684360094B1B680360F1
:1055A000704700BF5CB6025058B6025054B6025065
:1055B00050B602504CB6025048B6025044B60250A3
:1055C00040B6025030B10268034B04489A4208BF0B
:1055D0000020704702487047DD55AABB0202F00068
:1055E0000002F00038B5044668B1051D7021284658
:1055F00003F0ABFC28462022044903F0A2FC044B34
:105600002360002038BD0348FCE700BF989F0000DE
:10561000DD55AABB0002F0002DE9F043284B0446FB
:105620000E4615460FCB85B06F4687E80F002DB9A3
:105630004FF00009484605B0BDE8F0832046FFF76B
:10564000C1FF81460028F5D1231D0193636AA3BBE6
:10565000236F8BB1C3F14008A84528BFA84604F1C9
:10566000300031461844424603F06BFC236F43443C
:1056700046442367A5EB0805226F402A06D104F1B2
:105680003001384600F0AEFB0023236705F03F08E9
:1056900035F03F0505D031462A46384600F0A2FBDA
:1056A0002E44B8F1000FC3D04246314604F1300019
:1056B00003F047FCC4F87080BCE7DFF80890B9E756
:1056C000A89700000C02F0002DE9FF41144B04469E
:1056D0000E460FCB6F4687E80F002046FFF772FF9C
:1056E0008046B0B9CEB1636A251D01953BB901234F
:1056F0006362226F04F13001384600F073FB2B46E1
:10570000043E243453F8042B12BAA34246F8042F63
:10571000F8D1404604B0BDE8F081DFF80880F8E732
:10572000A89700000502F000084B1B681B0EF02B29
:1057300008D1074B1A68074B9A4205D1064B002047
:1057400018607047052070470620704728B902503E
:1057500024BA02500000E0200CBA0250002230B5FA
:1057600049001346023840F6FC7502F1A05404F5D6
:105770002C44A400904202F10102CABF23602560BC
:105780005B181E2AF1D1044A13600B445360034B8B
:10579000034A1A6030BD00BF78B0025084B0025096
:1057A00020F80F0030B51E4B85B01A4619680091DD
:1057B0000099CC07FAD500F1A05000F52C408000EC
:1057C000016813680193019BD807FAD5154B164C55
:1057D0001868164D1F30202390FBF3F00138002885
:1057E00010DA00230130400153B1A0F120014FF045
:1057F0000042134204D1013888424FEA5202F8D1E4
:1058000005B030BD13680393039BDB07FAD543183B
:1058100023602B680293029B002BE3D10138DEE763
:10582000B4B00250ACB00250E4B00250DCB0025050
:10583000F0B51D6885B001F01F040DB91F2C25D1EE
:10584000154D2E462F680197019FFF07FAD500F1ED
:10585000A05000F52C408000006835680395039D3A
:10586000ED07FAD50D4D00EB611028600C4800687B
:1058700002901F2C18BFC94302980FBF106001F09F
:105880001F0100FA01F11160002119601068430046
:10589000C00F136005B0F0BDB4B00250E4B00250C8
:1058A000DCB002500C4B18603F3020F03F00890103
:1058B000403058609960D9601961596199611C3311
:1058C0000648196082B002680192019AD207FAD59F
:1058D000196002B0704700BF90B00250B4B00250DF
:1058E00038B5A0F12003B3F5426F05462CD88F28B8
:1058F00026D800F1470300F16604DB064FEA541492
:1059000000D0013464013F34A409013411B1A14233
:105910001AD30C46E3004FF48050B0FBF3F020287C
:1059200028BF202002B11060084B01221A602146D6
:10593000FFF714FF28462146FFF7B4FF002038BDCB
:1059400000F11F046409DDE70148F8E71CB80250C4
:105950002221F000F0B5454B89B01D461C6801942A
:10596000019CE407FAD5424BDFF80CE1DFF80CC1EB
:1059700013449B0000241A680B181E2B88BFC0F12B
:105980001E011F320B1852095343B3F5806F82BFBB
:105990004FF48061B1FBF2F1091A00F1A05000F55B
:1059A0002C402746A14233DC2B680493049BDB0781
:1059B000FAD5304B1B68296805910599CF07FAD5B0
:1059C0002D4C2E49236000231E46934203F1010013
:1059D00040D120F001022948194600268A423CD8CD
:1059E000296806910699CE07FAD5254909682868DD
:1059F00007900798C007FAD52160204800210C467F
:105A00008B422DD11D4900209A422CD809B0F0BDFF
:105A10002B680293029BDB07FAD503199B001B68D6
:105A20002E680396039EF607FAD5CEF800300023C1
:105A3000934203F1010306D1164623F00103B3425A
:105A400004D80134AEE7CCF80070F1E7CCF8007070
:105A50000136F4E70E600346B7E706600131BDE7A3
:105A600004600131CCE708600133CDE7B4B00250E7
:105A700024AC00147CB00250D4B00250D8B0025014
:105A800078B0025008B540B1202801464FF0070217
:105A900028BF20210020FFF75DFF024B00221A6083
:105AA00008BD00BF1CB80250F0B5294D85B02C468A
:105AB0002E680096009EF607FAD500F1A05000F57A
:105AC0002C4080000568206801900198C707FAD52E
:105AD0002048214F056002EB8306B24229D15A1CAF
